{
  "contractName": "acl",
  "abi": [
    {
      "inputs": [],
      "payable": false,
      "stateMutability": "nonpayable",
      "type": "constructor"
    },
    {
      "constant": false,
      "inputs": [
        {
          "name": "rolevalue",
          "type": "uint8"
        },
        {
          "name": "entity",
          "type": "address"
        }
      ],
      "name": "setRole",
      "outputs": [],
      "payable": false,
      "stateMutability": "nonpayable",
      "type": "function"
    },
    {
      "constant": true,
      "inputs": [
        {
          "name": "entity",
          "type": "address"
        }
      ],
      "name": "getRole",
      "outputs": [
        {
          "name": "",
          "type": "uint8"
        }
      ],
      "payable": false,
      "stateMutability": "view",
      "type": "function"
    }
  ],
  "bytecode": "0x608060405234801561001057600080fd5b5060028081111561001d57fe5b6000803373ffffffffffffffffffffffffffffffffffffffff1673ffffffffffffffffffffffffffffffffffffffff16815260200190815260200160002060006101000a81548160ff0219169083600281111561007657fe5b02179055506102228061008a6000396000f30060806040526004361061004c576000357c0100000000000000000000000000000000000000000000000000000000900463ffffffff1680634427673314610051578063f2e12a39146100b6575b600080fd5b34801561005d57600080fd5b50610092600480360381019080803573ffffffffffffffffffffffffffffffffffffffff169060200190929190505050610106565b604051808260028111156100a257fe5b60ff16815260200191505060405180910390f35b3480156100c257600080fd5b50610104600480360381019080803560ff169060200190929190803573ffffffffffffffffffffffffffffffffffffffff16906020019092919050505061015b565b005b60008060008373ffffffffffffffffffffffffffffffffffffffff1673ffffffffffffffffffffffffffffffffffffffff16815260200190815260200160002060009054906101000a900460ff169050919050565b60028060ff1661016a33610106565b600281111561017557fe5b60ff1614151561018457600080fd5b8260ff16600281111561019357fe5b6000808473ffffffffffffffffffffffffffffffffffffffff1673ffffffffffffffffffffffffffffffffffffffff16815260200190815260200160002060006101000a81548160ff021916908360028111156101ec57fe5b02179055505050505600a165627a7a72305820533b3fefe53e596594a709cfad527d1295c173e0efd30d9ddcd21f850586450e0029",
  "source": "pragma solidity ^0.4.23;\n\n//This is the first version of a simple ACL / Permission Management System\n//It might differentiate from other Permission Management Systems and therefore be more restrictive in the following points:\n// Every User can just have one Role (similar to a state machine)\n// No new Roles \"Positions\" can be generated\n// Therefore all possible Roles must be defined at the beginning\n\n\ncontract acl{\n\n    enum Role {\n        USER,\n        ORACLE,\n        ADMIN\n    }\n\n    mapping (address=> Role) permissions;\n\n    constructor(){\n    permissions[msg.sender] = Role(2);\n    }\n\n    function setRole(uint8 rolevalue,address entity)external check(2){\n    permissions[entity] = Role(rolevalue);\n    }\n\n    function getRole(address entity)public view returns(Role){\n        return permissions[entity];\n    }\n\n    modifier check(uint8 role) {\n         require(uint8(getRole(msg.sender)) == role);\n        _;\n    }\n}\n",
  "sourcePath": "/Users/mfahampshire/terra0/source/ERC721/contracts/acl.sol",
  "compiler": {
    "name": "solc",
    "version": "0.4.23+commit.124ca40d.Emscripten.clang"
  },
  "schemaVersion": "2.0.0",
  "updatedAt": "2018-05-13T10:21:33.357Z"
}