{
  "contractName": "bloomingPool",
  "abi": [
    {
      "constant": false,
      "inputs": [
        {
          "name": "_tokenId",
          "type": "uint256"
        },
        {
          "name": "new_uri",
          "type": "string"
        }
      ],
      "name": "updatetoken",
      "outputs": [],
      "payable": false,
      "stateMutability": "nonpayable",
      "type": "function"
    },
    {
      "constant": true,
      "inputs": [
        {
          "name": "_tokenId",
          "type": "uint256"
        }
      ],
      "name": "getApproved",
      "outputs": [
        {
          "name": "",
          "type": "address"
        }
      ],
      "payable": false,
      "stateMutability": "view",
      "type": "function"
    },
    {
      "constant": false,
      "inputs": [
        {
          "name": "_to",
          "type": "address"
        },
        {
          "name": "_tokenId",
          "type": "uint256"
        }
      ],
      "name": "approve",
      "outputs": [],
      "payable": false,
      "stateMutability": "nonpayable",
      "type": "function"
    },
    {
      "constant": false,
      "inputs": [
        {
          "name": "_from",
          "type": "address"
        },
        {
          "name": "_to",
          "type": "address"
        },
        {
          "name": "_tokenId",
          "type": "uint256"
        }
      ],
      "name": "transferFrom",
      "outputs": [],
      "payable": false,
      "stateMutability": "nonpayable",
      "type": "function"
    },
    {
      "constant": true,
      "inputs": [],
      "name": "totalShares",
      "outputs": [
        {
          "name": "",
          "type": "uint256"
        }
      ],
      "payable": false,
      "stateMutability": "view",
      "type": "function"
    },
    {
      "constant": true,
      "inputs": [
        {
          "name": "_spender",
          "type": "address"
        },
        {
          "name": "_tokenId",
          "type": "uint256"
        }
      ],
      "name": "isApprovedOrOwner",
      "outputs": [
        {
          "name": "",
          "type": "bool"
        }
      ],
      "payable": false,
      "stateMutability": "view",
      "type": "function"
    },
    {
      "constant": true,
      "inputs": [
        {
          "name": "entity",
          "type": "address"
        }
      ],
      "name": "getRole",
      "outputs": [
        {
          "name": "",
          "type": "uint8"
        }
      ],
      "payable": false,
      "stateMutability": "view",
      "type": "function"
    },
    {
      "constant": false,
      "inputs": [
        {
          "name": "_to",
          "type": "address"
        },
        {
          "name": "_tokenId",
          "type": "uint256"
        }
      ],
      "name": "_mint",
      "outputs": [],
      "payable": false,
      "stateMutability": "nonpayable",
      "type": "function"
    },
    {
      "constant": true,
      "inputs": [
        {
          "name": "_tokenId",
          "type": "uint256"
        }
      ],
      "name": "exists",
      "outputs": [
        {
          "name": "",
          "type": "bool"
        }
      ],
      "payable": false,
      "stateMutability": "view",
      "type": "function"
    },
    {
      "constant": false,
      "inputs": [
        {
          "name": "_owner",
          "type": "address"
        },
        {
          "name": "_tokenId",
          "type": "uint256"
        }
      ],
      "name": "_burn",
      "outputs": [],
      "payable": false,
      "stateMutability": "nonpayable",
      "type": "function"
    },
    {
      "constant": true,
      "inputs": [
        {
          "name": "_tokenId",
          "type": "uint256"
        }
      ],
      "name": "ownerOf",
      "outputs": [
        {
          "name": "",
          "type": "address"
        }
      ],
      "payable": false,
      "stateMutability": "view",
      "type": "function"
    },
    {
      "constant": true,
      "inputs": [
        {
          "name": "_owner",
          "type": "address"
        }
      ],
      "name": "balanceOf",
      "outputs": [
        {
          "name": "",
          "type": "uint256"
        }
      ],
      "payable": false,
      "stateMutability": "view",
      "type": "function"
    },
    {
      "constant": false,
      "inputs": [
        {
          "name": "_to",
          "type": "address"
        },
        {
          "name": "_approved",
          "type": "bool"
        }
      ],
      "name": "setApprovalForAll",
      "outputs": [],
      "payable": false,
      "stateMutability": "nonpayable",
      "type": "function"
    },
    {
      "constant": true,
      "inputs": [],
      "name": "numTokensTotal",
      "outputs": [
        {
          "name": "",
          "type": "uint256"
        }
      ],
      "payable": false,
      "stateMutability": "view",
      "type": "function"
    },
    {
      "constant": true,
      "inputs": [
        {
          "name": "",
          "type": "address"
        }
      ],
      "name": "shares",
      "outputs": [
        {
          "name": "",
          "type": "uint256"
        }
      ],
      "payable": false,
      "stateMutability": "view",
      "type": "function"
    },
    {
      "constant": true,
      "inputs": [],
      "name": "totalReleased",
      "outputs": [
        {
          "name": "",
          "type": "uint256"
        }
      ],
      "payable": false,
      "stateMutability": "view",
      "type": "function"
    },
    {
      "constant": true,
      "inputs": [
        {
          "name": "_owner",
          "type": "address"
        },
        {
          "name": "_operator",
          "type": "address"
        }
      ],
      "name": "isApprovedForAll",
      "outputs": [
        {
          "name": "",
          "type": "bool"
        }
      ],
      "payable": false,
      "stateMutability": "view",
      "type": "function"
    },
    {
      "constant": false,
      "inputs": [
        {
          "name": "rolevalue",
          "type": "uint8"
        },
        {
          "name": "entity",
          "type": "address"
        }
      ],
      "name": "setRole",
      "outputs": [],
      "payable": false,
      "stateMutability": "nonpayable",
      "type": "function"
    },
    {
      "constant": false,
      "inputs": [
        {
          "name": "_to",
          "type": "address"
        },
        {
          "name": "_tokenId",
          "type": "uint256"
        },
        {
          "name": "new_uri",
          "type": "string"
        }
      ],
      "name": "_mint_with_uri",
      "outputs": [],
      "payable": false,
      "stateMutability": "nonpayable",
      "type": "function"
    },
    {
      "inputs": [],
      "payable": false,
      "stateMutability": "nonpayable",
      "type": "constructor"
    },
    {
      "payable": true,
      "stateMutability": "payable",
      "type": "fallback"
    },
    {
      "anonymous": false,
      "inputs": [
        {
          "indexed": false,
          "name": "_tokenId",
          "type": "uint256"
        },
        {
          "indexed": false,
          "name": "new_uri",
          "type": "string"
        }
      ],
      "name": "UpdateToken",
      "type": "event"
    },
    {
      "anonymous": false,
      "inputs": [
        {
          "indexed": true,
          "name": "_from",
          "type": "address"
        },
        {
          "indexed": true,
          "name": "_to",
          "type": "address"
        },
        {
          "indexed": false,
          "name": "_tokenId",
          "type": "uint256"
        }
      ],
      "name": "Transfer",
      "type": "event"
    },
    {
      "anonymous": false,
      "inputs": [
        {
          "indexed": true,
          "name": "_owner",
          "type": "address"
        },
        {
          "indexed": true,
          "name": "_approved",
          "type": "address"
        },
        {
          "indexed": false,
          "name": "_tokenId",
          "type": "uint256"
        }
      ],
      "name": "Approval",
      "type": "event"
    },
    {
      "anonymous": false,
      "inputs": [
        {
          "indexed": true,
          "name": "_owner",
          "type": "address"
        },
        {
          "indexed": true,
          "name": "_operator",
          "type": "address"
        },
        {
          "indexed": false,
          "name": "_approved",
          "type": "bool"
        }
      ],
      "name": "ApprovalForAll",
      "type": "event"
    },
    {
      "constant": false,
      "inputs": [
        {
          "name": "unique_id",
          "type": "uint256"
        }
      ],
      "name": "oracle_call",
      "outputs": [],
      "payable": false,
      "stateMutability": "nonpayable",
      "type": "function"
    },
    {
      "constant": true,
      "inputs": [],
      "name": "get_shares",
      "outputs": [
        {
          "name": "individual_shares",
          "type": "uint256"
        }
      ],
      "payable": false,
      "stateMutability": "view",
      "type": "function"
    },
    {
      "constant": false,
      "inputs": [],
      "name": "claim",
      "outputs": [],
      "payable": false,
      "stateMutability": "nonpayable",
      "type": "function"
    }
  ],
  "bytecode": "0x60806040526000600755600060085534801561001a57600080fd5b5060028081111561002757fe5b6000803373ffffffffffffffffffffffffffffffffffffffff1673ffffffffffffffffffffffffffffffffffffffff16815260200190815260200160002060006101000a81548160ff0219169083600281111561008057fe5b0217905550611c40806100946000396000f300608060405260043610610128576000357c0100000000000000000000000000000000000000000000000000000000900463ffffffff16806303ad4be31461012a578063081812fc1461016f578063095ea7b3146101dc57806323b872dd146102295780633a98ef3914610296578063430c2081146102c157806344276733146103265780634e6ec2471461038b5780634e71d92d146103d85780634f558e79146103ef5780636161eb18146104345780636352211e1461048157806370a08231146104ee578063a22cb46514610545578063af129dc214610594578063ce7c2ac2146105bf578063e33b7de314610616578063e985e9c514610641578063f2e12a39146106bc578063f3f706741461070c578063f4a8a69914610739578063f8bdc9dd1461079e575b005b34801561013657600080fd5b5061016d600480360381019080803590602001909291908035906020019082018035906020019190919293919293905050506107c9565b005b34801561017b57600080fd5b5061019a60048036038101908080359060200190929190505050610877565b604051808273ffffffffffffffffffffffffffffffffffffffff1673ffffffffffffffffffffffffffffffffffffffff16815260200191505060405180910390f35b3480156101e857600080fd5b50610227600480360381019080803573ffffffffffffffffffffffffffffffffffffffff169060200190929190803590602001909291905050506108b4565b005b34801561023557600080fd5b50610294600480360381019080803573ffffffffffffffffffffffffffffffffffffffff169060200190929190803573ffffffffffffffffffffffffffffffffffffffff16906020019092919080359060200190929190505050610a88565b005b3480156102a257600080fd5b506102ab610b9f565b6040518082815260200191505060405180910390f35b3480156102cd57600080fd5b5061030c600480360381019080803573ffffffffffffffffffffffffffffffffffffffff16906020019092919080359060200190929190505050610ba5565b604051808215151515815260200191505060405180910390f35b34801561033257600080fd5b50610367600480360381019080803573ffffffffffffffffffffffffffffffffffffffff169060200190929190505050610c3a565b6040518082600281111561037757fe5b60ff16815260200191505060405180910390f35b34801561039757600080fd5b506103d6600480360381019080803573ffffffffffffffffffffffffffffffffffffffff16906020019092919080359060200190929190505050610c8f565b005b3480156103e457600080fd5b506103ed610d84565b005b3480156103fb57600080fd5b5061041a60048036038101908080359060200190929190505050610d90565b604051808215151515815260200191505060405180910390f35b34801561044057600080fd5b5061047f600480360381019080803573ffffffffffffffffffffffffffffffffffffffff16906020019092919080359060200190929190505050610e02565b005b34801561048d57600080fd5b506104ac60048036038101908080359060200190929190505050610ec5565b604051808273ffffffffffffffffffffffffffffffffffffffff1673ffffffffffffffffffffffffffffffffffffffff16815260200191505060405180910390f35b3480156104fa57600080fd5b5061052f600480360381019080803573ffffffffffffffffffffffffffffffffffffffff169060200190929190505050610f07565b6040518082815260200191505060405180910390f35b34801561055157600080fd5b50610592600480360381019080803573ffffffffffffffffffffffffffffffffffffffff169060200190929190803515159060200190929190505050610f8b565b005b3480156105a057600080fd5b506105a96110c7565b6040518082815260200191505060405180910390f35b3480156105cb57600080fd5b50610600600480360381019080803573ffffffffffffffffffffffffffffffffffffffff1690602001909291905050506110cd565b6040518082815260200191505060405180910390f35b34801561062257600080fd5b5061062b6110e5565b6040518082815260200191505060405180910390f35b34801561064d57600080fd5b506106a2600480360381019080803573ffffffffffffffffffffffffffffffffffffffff169060200190929190803573ffffffffffffffffffffffffffffffffffffffff1690602001909291905050506110eb565b604051808215151515815260200191505060405180910390f35b3480156106c857600080fd5b5061070a600480360381019080803560ff169060200190929190803573ffffffffffffffffffffffffffffffffffffffff16906020019092919050505061117f565b005b34801561071857600080fd5b506107376004803603810190808035906020019092919050505061121a565b005b34801561074557600080fd5b5061079c600480360381019080803573ffffffffffffffffffffffffffffffffffffffff16906020019092919080359060200190929190803590602001908201803590602001919091929391929390505050611252565b005b3480156107aa57600080fd5b506107b361136f565b6040518082815260200191505060405180910390f35b60018060ff166107d833610c3a565b60028111156107e357fe5b60ff161415156107f257600080fd5b8282600660008781526020019081526020016000206000019190610817929190611b6f565b507f53560fd2a0eb35afd8d535363033618f52ccbfc857a7bf616eb195a0ed022ef484848460405180848152602001806020018281038252848482818152602001925080828437820191505094505050505060405180910390a150505050565b60006003600083815260200190815260200160002060009054906101000a900473ffffffffffffffffffffffffffffffffffffffff169050919050565b60006002600083815260200190815260200160002060009054906101000a900473ffffffffffffffffffffffffffffffffffffffff169050826003600084815260200190815260200160002060006101000a81548173ffffffffffffffffffffffffffffffffffffffff021916908373ffffffffffffffffffffffffffffffffffffffff16021790555061094782610ec5565b73ffffffffffffffffffffffffffffffffffffffff168373ffffffffffffffffffffffffffffffffffffffff161415151561098157600080fd5b8073ffffffffffffffffffffffffffffffffffffffff163373ffffffffffffffffffffffffffffffffffffffff1614806109c157506109c081336110eb565b5b15156109cc57600080fd5b826003600084815260200190815260200160002060006101000a81548173ffffffffffffffffffffffffffffffffffffffff021916908373ffffffffffffffffffffffffffffffffffffffff1602179055508273ffffffffffffffffffffffffffffffffffffffff168173ffffffffffffffffffffffffffffffffffffffff167f8c5be1e5ebec7d5bd14f71427d1e84f3dd0314c0f7b2291e5b200ac8c7c3b925846040518082815260200191505060405180910390a3505050565b80610a933382610ba5565b1515610a9e57600080fd5b600073ffffffffffffffffffffffffffffffffffffffff168473ffffffffffffffffffffffffffffffffffffffff1614151515610ada57600080fd5b600073ffffffffffffffffffffffffffffffffffffffff168373ffffffffffffffffffffffffffffffffffffffff1614151515610b1657600080fd5b610b2084836113b6565b610b2a848361151f565b610b34838361164e565b8273ffffffffffffffffffffffffffffffffffffffff168473ffffffffffffffffffffffffffffffffffffffff167fddf252ad1be2c89b69c2b068fc378daa952ba7f163c4a11628f55a4df523b3ef846040518082815260200191505060405180910390a350505050565b60075481565b600080610bb183610ec5565b90508073ffffffffffffffffffffffffffffffffffffffff168473ffffffffffffffffffffffffffffffffffffffff161480610c2057508373ffffffffffffffffffffffffffffffffffffffff16610c0884610877565b73ffffffffffffffffffffffffffffffffffffffff16145b80610c315750610c3081856110eb565b5b91505092915050565b60008060008373ffffffffffffffffffffffffffffffffffffffff1673ffffffffffffffffffffffffffffffffffffffff16815260200190815260200160002060009054906101000a900460ff169050919050565b60028060ff16610c9e33610c3a565b6002811115610ca957fe5b60ff16141515610cb857600080fd5b600073ffffffffffffffffffffffffffffffffffffffff168373ffffffffffffffffffffffffffffffffffffffff1614151515610cf457600080fd5b610cfe838361164e565b610d13600180546117a890919063ffffffff16565b6001819055508273ffffffffffffffffffffffffffffffffffffffff16600073ffffffffffffffffffffffffffffffffffffffff167fddf252ad1be2c89b69c2b068fc378daa952ba7f163c4a11628f55a4df523b3ef846040518082815260200191505060405180910390a3505050565b610d8d336117c6565b50565b6000806002600084815260200190815260200160002060009054906101000a900473ffffffffffffffffffffffffffffffffffffffff169050600073ffffffffffffffffffffffffffffffffffffffff168173ffffffffffffffffffffffffffffffffffffffff161415915050919050565b60028060ff16610e1133610c3a565b6002811115610e1c57fe5b60ff16141515610e2b57600080fd5b610e3583836113b6565b610e3f838361151f565b610e546001805461199090919063ffffffff16565b600181905550600073ffffffffffffffffffffffffffffffffffffffff168373ffffffffffffffffffffffffffffffffffffffff167fddf252ad1be2c89b69c2b068fc378daa952ba7f163c4a11628f55a4df523b3ef846040518082815260200191505060405180910390a3505050565b6000806002600084815260200190815260200160002060009054906101000a900473ffffffffffffffffffffffffffffffffffffffff16905080915050919050565b60008073ffffffffffffffffffffffffffffffffffffffff168273ffffffffffffffffffffffffffffffffffffffff1614151515610f4457600080fd5b600460008373ffffffffffffffffffffffffffffffffffffffff1673ffffffffffffffffffffffffffffffffffffffff168152602001908152602001600020549050919050565b3373ffffffffffffffffffffffffffffffffffffffff168273ffffffffffffffffffffffffffffffffffffffff1614151515610fc657600080fd5b80600560003373ffffffffffffffffffffffffffffffffffffffff1673ffffffffffffffffffffffffffffffffffffffff16815260200190815260200160002060008473ffffffffffffffffffffffffffffffffffffffff1673ffffffffffffffffffffffffffffffffffffffff16815260200190815260200160002060006101000a81548160ff0219169083151502179055508173ffffffffffffffffffffffffffffffffffffffff163373ffffffffffffffffffffffffffffffffffffffff167f17307eab39ab6107e8899845ad3d59bd9653f200f220920489ca2b5937696c3183604051808215151515815260200191505060405180910390a35050565b60015481565b60096020528060005260406000206000915090505481565b60085481565b6000600560008473ffffffffffffffffffffffffffffffffffffffff1673ffffffffffffffffffffffffffffffffffffffff16815260200190815260200160002060008373ffffffffffffffffffffffffffffffffffffffff1673ffffffffffffffffffffffffffffffffffffffff16815260200190815260200160002060009054906101000a900460ff16905092915050565b60028060ff1661118e33610c3a565b600281111561119957fe5b60ff161415156111a857600080fd5b8260ff1660028111156111b757fe5b6000808473ffffffffffffffffffffffffffffffffffffffff1673ffffffffffffffffffffffffffffffffffffffff16815260200190815260200160002060006101000a81548160ff0219169083600281111561121057fe5b0217905550505050565b60018060ff1661122933610c3a565b600281111561123457fe5b60ff1614151561124357600080fd5b61124e6001836119a9565b5050565b60028060ff1661126133610c3a565b600281111561126c57fe5b60ff1614151561127b57600080fd5b600073ffffffffffffffffffffffffffffffffffffffff168573ffffffffffffffffffffffffffffffffffffffff16141515156112b757600080fd5b6112c1858561164e565b6112d6600180546117a890919063ffffffff16565b6001819055508282600660008781526020019081526020016000206000019190611301929190611b6f565b508473ffffffffffffffffffffffffffffffffffffffff16600073ffffffffffffffffffffffffffffffffffffffff167fddf252ad1be2c89b69c2b068fc378daa952ba7f163c4a11628f55a4df523b3ef866040518082815260200191505060405180910390a35050505050565b6000600960003373ffffffffffffffffffffffffffffffffffffffff1673ffffffffffffffffffffffffffffffffffffffff16815260200190815260200160002054905090565b8173ffffffffffffffffffffffffffffffffffffffff166113d682610ec5565b73ffffffffffffffffffffffffffffffffffffffff161415156113f857600080fd5b600073ffffffffffffffffffffffffffffffffffffffff166003600083815260200190815260200160002060009054906101000a900473ffffffffffffffffffffffffffffffffffffffff1673ffffffffffffffffffffffffffffffffffffffff1614151561151b5760006003600083815260200190815260200160002060006101000a81548173ffffffffffffffffffffffffffffffffffffffff021916908373ffffffffffffffffffffffffffffffffffffffff160217905550600073ffffffffffffffffffffffffffffffffffffffff168273ffffffffffffffffffffffffffffffffffffffff167f8c5be1e5ebec7d5bd14f71427d1e84f3dd0314c0f7b2291e5b200ac8c7c3b925836040518082815260200191505060405180910390a35b5050565b8173ffffffffffffffffffffffffffffffffffffffff1661153f82610ec5565b73ffffffffffffffffffffffffffffffffffffffff1614151561156157600080fd5b6115b46001600460008573ffffffffffffffffffffffffffffffffffffffff1673ffffffffffffffffffffffffffffffffffffffff1681526020019081526020016000205461199090919063ffffffff16565b600460008473ffffffffffffffffffffffffffffffffffffffff1673ffffffffffffffffffffffffffffffffffffffff1681526020019081526020016000208190555060006002600083815260200190815260200160002060006101000a81548173ffffffffffffffffffffffffffffffffffffffff021916908373ffffffffffffffffffffffffffffffffffffffff1602179055505050565b600073ffffffffffffffffffffffffffffffffffffffff166002600083815260200190815260200160002060009054906101000a900473ffffffffffffffffffffffffffffffffffffffff1673ffffffffffffffffffffffffffffffffffffffff161415156116bc57600080fd5b816002600083815260200190815260200160002060006101000a81548173ffffffffffffffffffffffffffffffffffffffff021916908373ffffffffffffffffffffffffffffffffffffffff1602179055506117616001600460008573ffffffffffffffffffffffffffffffffffffffff1673ffffffffffffffffffffffffffffffffffffffff168152602001908152602001600020546117a890919063ffffffff16565b600460008473ffffffffffffffffffffffffffffffffffffffff1673ffffffffffffffffffffffffffffffffffffffff168152602001908152602001600020819055505050565b60008082840190508381101515156117bc57fe5b8091505092915050565b6000806000808492506000600960008573ffffffffffffffffffffffffffffffffffffffff1673ffffffffffffffffffffffffffffffffffffffff1681526020019081526020016000205411151561181d57600080fd5b3073ffffffffffffffffffffffffffffffffffffffff1631915061189d60075461188f600960008773ffffffffffffffffffffffffffffffffffffffff1673ffffffffffffffffffffffffffffffffffffffff1681526020019081526020016000205485611ac390919063ffffffff16565b611afe90919063ffffffff16565b9050600081141515156118af57600080fd5b803073ffffffffffffffffffffffffffffffffffffffff1631101515156118d557600080fd5b6118ea816008546117a890919063ffffffff16565b6008819055508273ffffffffffffffffffffffffffffffffffffffff166108fc829081150290604051600060405180830381858888f19350505050158015611936573d6000803e3d6000fd5b5061197f600960008573ffffffffffffffffffffffffffffffffffffffff1673ffffffffffffffffffffffffffffffffffffffff16815260200190815260200160002054611b19565b61198883611b27565b505050919050565b600082821115151561199e57fe5b818303905092915050565b611a2e82600960006002600086815260200190815260200160002060009054906101000a900473ffffffffffffffffffffffffffffffffffffffff1673ffffffffffffffffffffffffffffffffffffffff1673ffffffffffffffffffffffffffffffffffffffff168152602001908152602001600020546117a890919063ffffffff16565b600960006002600085815260200190815260200160002060009054906101000a900473ffffffffffffffffffffffffffffffffffffffff1673ffffffffffffffffffffffffffffffffffffffff1673ffffffffffffffffffffffffffffffffffffffff16815260200190815260200160002081905550611ab9826007546117a890919063ffffffff16565b6007819055505050565b6000806000841415611ad85760009150611af7565b8284029050828482811515611ae957fe5b04141515611af357fe5b8091505b5092915050565b6000808284811515611b0c57fe5b0490508091505092915050565b806007540360078190555050565b6000600960008373ffffffffffffffffffffffffffffffffffffffff1673ffffffffffffffffffffffffffffffffffffffff1681526020019081526020016000208190555050565b828054600181600116156101000203166002900490600052602060002090601f016020900481019282601f10611bb057803560ff1916838001178555611bde565b82800160010185558215611bde579182015b82811115611bdd578235825591602001919060010190611bc2565b5b509050611beb9190611bef565b5090565b611c1191905b80821115611c0d576000816000905550600101611bf5565b5090565b905600a165627a7a72305820b99b2398cb5e25427f1b30261ac852e2d38f0e05271917f9a1a482e43c7d1bca0029",
  "source": "pragma solidity ^0.4.23;\nimport \"./update.sol\";\nimport \"./SafeMath.sol\";\n\n/// @dev altered version of Open Zepplin's 'SplitPayment' contract\n\ncontract bloomingPool is update {\n\n    using SafeMath for uint256;\n\n    uint256 public totalShares = 0;\n    uint256 public totalReleased = 0;\n\n    mapping(address => uint256) public shares;\n    //mapping(address => uint256) public released;\n\n    constructor() public {}\n\n    function() public payable { } // fallback function for payment acceptance\n\n\n    function calculate_total_shares(uint256 _shares,uint256 unique_id )internal{\n        shares[tokenOwner[unique_id]] = shares[tokenOwner[unique_id]].add(_shares);\n        totalShares = totalShares.add(_shares);\n    }\n\n    function oracle_call(uint256 unique_id) external check(1){\n        calculate_total_shares(1,unique_id);\n    }\n\n    function get_shares() external view returns(uint256 individual_shares){\n        return shares[msg.sender];\n    }\n\n    function reset_individual_shares(address payee)internal {\n        shares[payee] = 0;\n    }\n\n    function substract_individual_shares(uint256 _shares)internal {\n        totalShares = totalShares - _shares;\n    }\n\n\n    function claim()public{\n        payout(msg.sender);\n    }\n\n    function payout(address to) internal returns(bool){\n        address payee = to;\n        require(shares[payee] > 0);\n\n        uint256 volume = address(this).balance;   ///totalReleased need to go :(\n        uint256 payment = volume.mul(shares[payee]).div(totalShares);\n        /* uint256 totalReceived = address(this).balance.add(totalReleased);\n        uint256 payment = totalReceived.mul(shares[payee]).div(totalShares).sub(released[payee]); */\n\n        require(payment != 0);\n        require(address(this).balance >= payment);\n\n        //released[payee] = released[payee].add(payment);\n        totalReleased = totalReleased.add(payment);\n        payee.transfer(payment);\n        substract_individual_shares(shares[payee]);\n        reset_individual_shares(payee);\n    }\n\n\n}\n",
  "sourcePath": "/Users/paul/Documents/Dev/final_contracts/source/ERC721/contracts/bloomingPool.sol",
  "compiler": {
    "name": "solc",
    "version": "0.4.24+commit.e67f0147.Emscripten.clang"
  },
  "schemaVersion": "2.0.1",
  "updatedAt": "2018-07-02T21:13:47.622Z"
}