{
  "contractName": "bloomingPool",
  "abi": [
    {
      "constant": true,
      "inputs": [],
      "name": "name",
      "outputs": [
        {
          "name": "_name",
          "type": "string"
        }
      ],
      "payable": false,
      "stateMutability": "pure",
      "type": "function"
    },
    {
      "constant": true,
      "inputs": [
        {
          "name": "_tokenId",
          "type": "uint256"
        }
      ],
      "name": "getApproved",
      "outputs": [
        {
          "name": "",
          "type": "address"
        }
      ],
      "payable": false,
      "stateMutability": "view",
      "type": "function"
    },
    {
      "constant": false,
      "inputs": [
        {
          "name": "_approved",
          "type": "address"
        },
        {
          "name": "_tokenId",
          "type": "uint256"
        }
      ],
      "name": "approve",
      "outputs": [],
      "payable": true,
      "stateMutability": "payable",
      "type": "function"
    },
    {
      "constant": false,
      "inputs": [
        {
          "name": "_from",
          "type": "address"
        },
        {
          "name": "_to",
          "type": "address"
        },
        {
          "name": "_tokenId",
          "type": "uint256"
        }
      ],
      "name": "transferFrom",
      "outputs": [],
      "payable": true,
      "stateMutability": "payable",
      "type": "function"
    },
    {
      "constant": false,
      "inputs": [
        {
          "name": "entityAddress",
          "type": "address"
        },
        {
          "name": "UniqueID",
          "type": "uint256"
        }
      ],
      "name": "_writeownership",
      "outputs": [],
      "payable": false,
      "stateMutability": "nonpayable",
      "type": "function"
    },
    {
      "constant": true,
      "inputs": [],
      "name": "totalShares",
      "outputs": [
        {
          "name": "",
          "type": "uint256"
        }
      ],
      "payable": false,
      "stateMutability": "view",
      "type": "function"
    },
    {
      "constant": true,
      "inputs": [
        {
          "name": "entity",
          "type": "address"
        }
      ],
      "name": "getRole",
      "outputs": [
        {
          "name": "",
          "type": "uint8"
        }
      ],
      "payable": false,
      "stateMutability": "view",
      "type": "function"
    },
    {
      "constant": false,
      "inputs": [
        {
          "name": "entityAddress",
          "type": "address"
        },
        {
          "name": "entityData",
          "type": "string"
        }
      ],
      "name": "Mint",
      "outputs": [
        {
          "name": "_UniqueID",
          "type": "uint256"
        }
      ],
      "payable": false,
      "stateMutability": "nonpayable",
      "type": "function"
    },
    {
      "constant": true,
      "inputs": [
        {
          "name": "",
          "type": "uint256"
        }
      ],
      "name": "payees",
      "outputs": [
        {
          "name": "",
          "type": "address"
        }
      ],
      "payable": false,
      "stateMutability": "view",
      "type": "function"
    },
    {
      "constant": true,
      "inputs": [
        {
          "name": "_tokenId",
          "type": "uint256"
        }
      ],
      "name": "ownerOf",
      "outputs": [
        {
          "name": "",
          "type": "address"
        }
      ],
      "payable": false,
      "stateMutability": "view",
      "type": "function"
    },
    {
      "constant": false,
      "inputs": [
        {
          "name": "entityAddress",
          "type": "address"
        },
        {
          "name": "entityData",
          "type": "string"
        },
        {
          "name": "UniqueID",
          "type": "uint256"
        }
      ],
      "name": "_writedata",
      "outputs": [],
      "payable": false,
      "stateMutability": "nonpayable",
      "type": "function"
    },
    {
      "constant": true,
      "inputs": [
        {
          "name": "_owner",
          "type": "address"
        }
      ],
      "name": "balanceOf",
      "outputs": [
        {
          "name": "balance",
          "type": "uint256"
        }
      ],
      "payable": false,
      "stateMutability": "view",
      "type": "function"
    },
    {
      "constant": true,
      "inputs": [],
      "name": "symbol",
      "outputs": [
        {
          "name": "_symbol",
          "type": "string"
        }
      ],
      "payable": false,
      "stateMutability": "pure",
      "type": "function"
    },
    {
      "constant": true,
      "inputs": [
        {
          "name": "",
          "type": "address"
        }
      ],
      "name": "released",
      "outputs": [
        {
          "name": "",
          "type": "uint256"
        }
      ],
      "payable": false,
      "stateMutability": "view",
      "type": "function"
    },
    {
      "constant": false,
      "inputs": [
        {
          "name": "_to",
          "type": "address"
        },
        {
          "name": "_approved",
          "type": "bool"
        }
      ],
      "name": "setApprovalForAll",
      "outputs": [],
      "payable": false,
      "stateMutability": "nonpayable",
      "type": "function"
    },
    {
      "constant": true,
      "inputs": [],
      "name": "numTokensTotal",
      "outputs": [
        {
          "name": "",
          "type": "uint256"
        }
      ],
      "payable": false,
      "stateMutability": "view",
      "type": "function"
    },
    {
      "constant": true,
      "inputs": [
        {
          "name": "_tokenId",
          "type": "uint256"
        }
      ],
      "name": "tokenURI",
      "outputs": [
        {
          "name": "",
          "type": "string"
        }
      ],
      "payable": false,
      "stateMutability": "view",
      "type": "function"
    },
    {
      "constant": false,
      "inputs": [
        {
          "name": "Owner",
          "type": "address"
        },
        {
          "name": "uniqueID",
          "type": "uint256"
        }
      ],
      "name": "_removetoken",
      "outputs": [
        {
          "name": "list",
          "type": "uint256"
        }
      ],
      "payable": false,
      "stateMutability": "nonpayable",
      "type": "function"
    },
    {
      "constant": true,
      "inputs": [
        {
          "name": "",
          "type": "address"
        }
      ],
      "name": "shares",
      "outputs": [
        {
          "name": "",
          "type": "uint256"
        }
      ],
      "payable": false,
      "stateMutability": "view",
      "type": "function"
    },
    {
      "constant": true,
      "inputs": [],
      "name": "totalReleased",
      "outputs": [
        {
          "name": "",
          "type": "uint256"
        }
      ],
      "payable": false,
      "stateMutability": "view",
      "type": "function"
    },
    {
      "constant": true,
      "inputs": [
        {
          "name": "_owner",
          "type": "address"
        },
        {
          "name": "_operator",
          "type": "address"
        }
      ],
      "name": "isApprovedForAll",
      "outputs": [
        {
          "name": "",
          "type": "bool"
        }
      ],
      "payable": false,
      "stateMutability": "view",
      "type": "function"
    },
    {
      "constant": false,
      "inputs": [
        {
          "name": "rolevalue",
          "type": "uint8"
        },
        {
          "name": "entity",
          "type": "address"
        }
      ],
      "name": "setRole",
      "outputs": [],
      "payable": false,
      "stateMutability": "nonpayable",
      "type": "function"
    },
    {
      "inputs": [
        {
          "name": "_payees",
          "type": "address[]"
        },
        {
          "name": "_shares",
          "type": "uint256[]"
        }
      ],
      "payable": true,
      "stateMutability": "payable",
      "type": "constructor"
    },
    {
      "anonymous": false,
      "inputs": [
        {
          "indexed": false,
          "name": "from",
          "type": "address"
        },
        {
          "indexed": false,
          "name": "to",
          "type": "address"
        },
        {
          "indexed": false,
          "name": "tokenId",
          "type": "uint256"
        }
      ],
      "name": "Transfer",
      "type": "event"
    },
    {
      "anonymous": false,
      "inputs": [
        {
          "indexed": false,
          "name": "owner",
          "type": "address"
        },
        {
          "indexed": false,
          "name": "approved",
          "type": "address"
        },
        {
          "indexed": false,
          "name": "tokenId",
          "type": "uint256"
        }
      ],
      "name": "Approval",
      "type": "event"
    },
    {
      "anonymous": false,
      "inputs": [
        {
          "indexed": true,
          "name": "_owner",
          "type": "address"
        },
        {
          "indexed": true,
          "name": "_operator",
          "type": "address"
        },
        {
          "indexed": false,
          "name": "_approved",
          "type": "bool"
        }
      ],
      "name": "ApprovalForAll",
      "type": "event"
    },
    {
      "constant": false,
      "inputs": [],
      "name": "oracle_call",
      "outputs": [],
      "payable": false,
      "stateMutability": "nonpayable",
      "type": "function"
    }
  ],
  "bytecode": "0x6080604052600060085560006009556040516200255b3803806200255b833981018060405281019080805182019291906020018051820192919050505060006002808111156200004b57fe5b6000803373ffffffffffffffffffffffffffffffffffffffff1673ffffffffffffffffffffffffffffffffffffffff16815260200190815260200160002060006101000a81548160ff02191690836002811115620000a557fe5b021790555081518351141515620000bb57600080fd5b600090505b82518110156200012357620001158382815181101515620000dd57fe5b906020019060200201518383815181101515620000f657fe5b906020019060200201516200012c640100000000026401000000009004565b8080600101915050620000c0565b505050620002c0565b600073ffffffffffffffffffffffffffffffffffffffff168273ffffffffffffffffffffffffffffffffffffffff16141515156200016957600080fd5b6000811115156200017957600080fd5b6000600a60008473ffffffffffffffffffffffffffffffffffffffff1673ffffffffffffffffffffffffffffffffffffffff16815260200190815260200160002054141515620001c857600080fd5b600c8290806001815401808255809150509060018203906000526020600020016000909192909190916101000a81548173ffffffffffffffffffffffffffffffffffffffff021916908373ffffffffffffffffffffffffffffffffffffffff1602179055505080600a60008473ffffffffffffffffffffffffffffffffffffffff1673ffffffffffffffffffffffffffffffffffffffff168152602001908152602001600020819055506200029781600854620002a16401000000000262001a93179091906401000000009004565b6008819055505050565b6000808284019050838110151515620002b657fe5b8091505092915050565b61228b80620002d06000396000f300608060405260043610610133576000357c0100000000000000000000000000000000000000000000000000000000900463ffffffff16806306fdde0314610138578063081812fc146101c8578063095ea7b31461023557806323b872dd14610275578063263f842d146102d55780633a98ef3914610322578063442767331461034d5780634c2f6dd3146103b257806363037b0c146104215780636352211e1461048e5780636d2d7a0d146104fb57806370a082311461058e57806395d89b41146105e55780639852595c14610675578063a22cb465146106cc578063af129dc21461071b578063b6a1130814610746578063c87b56dd1461075d578063cb126ab614610803578063ce7c2ac214610864578063e33b7de3146108bb578063e985e9c5146108e6578063f2e12a3914610961575b600080fd5b34801561014457600080fd5b5061014d6109b1565b6040518080602001828103825283818151815260200191508051906020019080838360005b8381101561018d578082015181840152602081019050610172565b50505050905090810190601f1680156101ba5780820380516001836020036101000a031916815260200191505b509250505060405180910390f35b3480156101d457600080fd5b506101f3600480360381019080803590602001909291905050506109ee565b604051808273ffffffffffffffffffffffffffffffffffffffff1673ffffffffffffffffffffffffffffffffffffffff16815260200191505060405180910390f35b610273600480360381019080803573ffffffffffffffffffffffffffffffffffffffff16906020019092919080359060200190929190505050610a61565b005b6102d3600480360381019080803573ffffffffffffffffffffffffffffffffffffffff169060200190929190803573ffffffffffffffffffffffffffffffffffffffff16906020019092919080359060200190929190505050610cf3565b005b3480156102e157600080fd5b50610320600480360381019080803573ffffffffffffffffffffffffffffffffffffffff16906020019092919080359060200190929190505050611043565b005b34801561032e57600080fd5b5061033761115f565b6040518082815260200191505060405180910390f35b34801561035957600080fd5b5061038e600480360381019080803573ffffffffffffffffffffffffffffffffffffffff169060200190929190505050611165565b6040518082600281111561039e57fe5b60ff16815260200191505060405180910390f35b3480156103be57600080fd5b5061040b600480360381019080803573ffffffffffffffffffffffffffffffffffffffff1690602001909291908035906020019082018035906020019190919293919293905050506111ba565b6040518082815260200191505060405180910390f35b34801561042d57600080fd5b5061044c6004803603810190808035906020019092919050505061126b565b604051808273ffffffffffffffffffffffffffffffffffffffff1673ffffffffffffffffffffffffffffffffffffffff16815260200191505060405180910390f35b34801561049a57600080fd5b506104b9600480360381019080803590602001909291905050506112a9565b604051808273ffffffffffffffffffffffffffffffffffffffff1673ffffffffffffffffffffffffffffffffffffffff16815260200191505060405180910390f35b34801561050757600080fd5b5061058c600480360381019080803573ffffffffffffffffffffffffffffffffffffffff169060200190929190803590602001908201803590602001908080601f0160208091040260200160405190810160405280939291908181526020018383808284378201915050505050509192919290803590602001909291905050506112e6565b005b34801561059a57600080fd5b506105cf600480360381019080803573ffffffffffffffffffffffffffffffffffffffff169060200190929190505050611397565b6040518082815260200191505060405180910390f35b3480156105f157600080fd5b506105fa6113e3565b6040518080602001828103825283818151815260200191508051906020019080838360005b8381101561063a57808201518184015260208101905061061f565b50505050905090810190601f1680156106675780820380516001836020036101000a031916815260200191505b509250505060405180910390f35b34801561068157600080fd5b506106b6600480360381019080803573ffffffffffffffffffffffffffffffffffffffff169060200190929190505050611420565b6040518082815260200191505060405180910390f35b3480156106d857600080fd5b50610719600480360381019080803573ffffffffffffffffffffffffffffffffffffffff169060200190929190803515159060200190929190505050611438565b005b34801561072757600080fd5b5061073061150b565b6040518082815260200191505060405180910390f35b34801561075257600080fd5b5061075b611511565b005b34801561076957600080fd5b50610788600480360381019080803590602001909291905050506115b3565b6040518080602001828103825283818151815260200191508051906020019080838360005b838110156107c85780820151818401526020810190506107ad565b50505050905090810190601f1680156107f55780820380516001836020036101000a031916815260200191505b509250505060405180910390f35b34801561080f57600080fd5b5061084e600480360381019080803573ffffffffffffffffffffffffffffffffffffffff1690602001909291908035906020019092919050505061166b565b6040518082815260200191505060405180910390f35b34801561087057600080fd5b506108a5600480360381019080803573ffffffffffffffffffffffffffffffffffffffff169060200190929190505050611890565b6040518082815260200191505060405180910390f35b3480156108c757600080fd5b506108d06118a8565b6040518082815260200191505060405180910390f35b3480156108f257600080fd5b50610947600480360381019080803573ffffffffffffffffffffffffffffffffffffffff169060200190929190803573ffffffffffffffffffffffffffffffffffffffff1690602001909291905050506118ae565b604051808215151515815260200191505060405180910390f35b34801561096d57600080fd5b506109af600480360381019080803560ff169060200190929190803573ffffffffffffffffffffffffffffffffffffffff169060200190929190505050611942565b005b60606040805190810160405280601181526020017f666c6f776572746f6b656e735f74657374000000000000000000000000000000815250905090565b6000600115156002600084815260200190815260200160002060010160009054906101000a900460ff161515141515610a2657600080fd5b6006600083815260200190815260200160002060009054906101000a900473ffffffffffffffffffffffffffffffffffffffff169050919050565b600115156002600083815260200190815260200160002060010160009054906101000a900460ff161515141515610a9757600080fd5b6004600082815260200190815260200160002060009054906101000a900473ffffffffffffffffffffffffffffffffffffffff1673ffffffffffffffffffffffffffffffffffffffff163373ffffffffffffffffffffffffffffffffffffffff161480610bc4575060011515600760006004600085815260200190815260200160002060009054906101000a900473ffffffffffffffffffffffffffffffffffffffff1673ffffffffffffffffffffffffffffffffffffffff1673ffffffffffffffffffffffffffffffffffffffff16815260200190815260200160002060003373ffffffffffffffffffffffffffffffffffffffff1673ffffffffffffffffffffffffffffffffffffffff16815260200190815260200160002060009054906101000a900460ff161515145b1515610bcf57600080fd5b600073ffffffffffffffffffffffffffffffffffffffff16610bf0826119dd565b73ffffffffffffffffffffffffffffffffffffffff16141580610c405750600073ffffffffffffffffffffffffffffffffffffffff168273ffffffffffffffffffffffffffffffffffffffff1614155b15610cef57610c4f8282611a1a565b7f8c5be1e5ebec7d5bd14f71427d1e84f3dd0314c0f7b2291e5b200ac8c7c3b925338383604051808473ffffffffffffffffffffffffffffffffffffffff1673ffffffffffffffffffffffffffffffffffffffff1681526020018373ffffffffffffffffffffffffffffffffffffffff1673ffffffffffffffffffffffffffffffffffffffff168152602001828152602001935050505060405180910390a15b5050565b600115156002600083815260200190815260200160002060010160009054906101000a900460ff161515141515610d2957600080fd5b3373ffffffffffffffffffffffffffffffffffffffff166006600083815260200190815260200160002060009054906101000a900473ffffffffffffffffffffffffffffffffffffffff1673ffffffffffffffffffffffffffffffffffffffff161480610e56575060011515600760006004600085815260200190815260200160002060009054906101000a900473ffffffffffffffffffffffffffffffffffffffff1673ffffffffffffffffffffffffffffffffffffffff1673ffffffffffffffffffffffffffffffffffffffff16815260200190815260200160002060003373ffffffffffffffffffffffffffffffffffffffff1673ffffffffffffffffffffffffffffffffffffffff16815260200190815260200160002060009054906101000a900460ff161515145b1515610e6157600080fd5b8273ffffffffffffffffffffffffffffffffffffffff166004600083815260200190815260200160002060009054906101000a900473ffffffffffffffffffffffffffffffffffffffff1673ffffffffffffffffffffffffffffffffffffffff16141515610ece57600080fd5b600073ffffffffffffffffffffffffffffffffffffffff168273ffffffffffffffffffffffffffffffffffffffff1614151515610f0a57600080fd5b610f15838383611a70565b7f8c5be1e5ebec7d5bd14f71427d1e84f3dd0314c0f7b2291e5b200ac8c7c3b92583600083604051808473ffffffffffffffffffffffffffffffffffffffff1673ffffffffffffffffffffffffffffffffffffffff1681526020018373ffffffffffffffffffffffffffffffffffffffff168152602001828152602001935050505060405180910390a17fddf252ad1be2c89b69c2b068fc378daa952ba7f163c4a11628f55a4df523b3ef838383604051808473ffffffffffffffffffffffffffffffffffffffff1673ffffffffffffffffffffffffffffffffffffffff1681526020018373ffffffffffffffffffffffffffffffffffffffff1673ffffffffffffffffffffffffffffffffffffffff168152602001828152602001935050505060405180910390a1505050565b600360008373ffffffffffffffffffffffffffffffffffffffff1673ffffffffffffffffffffffffffffffffffffffff1681526020019081526020016000208190806001815401808255809150509060018203906000526020600020016000909192909190915055506001600360008473ffffffffffffffffffffffffffffffffffffffff1673ffffffffffffffffffffffffffffffffffffffff16815260200190815260200160002080549050036005600083815260200190815260200160002081905550816004600083815260200190815260200160002060006101000a81548173ffffffffffffffffffffffffffffffffffffffff021916908373ffffffffffffffffffffffffffffffffffffffff1602179055505050565b60085481565b60008060008373ffffffffffffffffffffffffffffffffffffffff1673ffffffffffffffffffffffffffffffffffffffff16815260200190815260200160002060009054906101000a900460ff169050919050565b60008060028060ff166111cc33611165565b60028111156111d757fe5b60ff161415156111e657600080fd5b6111fb60018054611a9390919063ffffffff16565b91506112078683611043565b6112448686868080601f016020809104026020016040519081016040528093929190818152602001838380828437820191505050505050846112e6565b61125960018054611a9390919063ffffffff16565b60018190555081925050509392505050565b600c8181548110151561127a57fe5b906000526020600020016000915054906101000a900473ffffffffffffffffffffffffffffffffffffffff1681565b60006004600083815260200190815260200160002060009054906101000a900473ffffffffffffffffffffffffffffffffffffffff169050919050565b8160026000838152602001908152602001600020600001908051906020019061131092919061218e565b5060016002600083815260200190815260200160002060010160006101000a81548160ff021916908315150217905550826004600083815260200190815260200160002060006101000a81548173ffffffffffffffffffffffffffffffffffffffff021916908373ffffffffffffffffffffffffffffffffffffffff160217905550505050565b6000600360008373ffffffffffffffffffffffffffffffffffffffff1673ffffffffffffffffffffffffffffffffffffffff168152602001908152602001600020805490509050919050565b60606040805190810160405280600381526020017f5454540000000000000000000000000000000000000000000000000000000000815250905090565b600b6020528060005260406000206000915090505481565b3373ffffffffffffffffffffffffffffffffffffffff168273ffffffffffffffffffffffffffffffffffffffff161415151561147357600080fd5b80600760003373ffffffffffffffffffffffffffffffffffffffff1673ffffffffffffffffffffffffffffffffffffffff16815260200190815260200160002060008473ffffffffffffffffffffffffffffffffffffffff1673ffffffffffffffffffffffffffffffffffffffff16815260200190815260200160002060006101000a81548160ff0219169083151502179055505050565b60015481565b60008060018060ff1661152333611165565b600281111561152e57fe5b60ff1614151561153d57600080fd5b611545611ab1565b5b600c805490508310156115a657600c8381548110151561156257fe5b9060005260206000200160009054906101000a900473ffffffffffffffffffffffffffffffffffffffff16915061159882611c05565b508280600101935050611546565b6115ae611e78565b505050565b6060600260008381526020019081526020016000206000018054600181600116156101000203166002900480601f01602080910402602001604051908101604052809291908181526020018280546001816001161561010002031660029004801561165f5780601f106116345761010080835404028352916020019161165f565b820191906000526020600020905b81548152906001019060200180831161164257829003601f168201915b50505050509050919050565b60008060008473ffffffffffffffffffffffffffffffffffffffff166004600086815260200190815260200160002060009054906101000a900473ffffffffffffffffffffffffffffffffffffffff1673ffffffffffffffffffffffffffffffffffffffff161415156116dd57600080fd5b60056000858152602001908152602001600020549150600360008673ffffffffffffffffffffffffffffffffffffffff1673ffffffffffffffffffffffffffffffffffffffff1681526020019081526020016000206001600360008873ffffffffffffffffffffffffffffffffffffffff1673ffffffffffffffffffffffffffffffffffffffff168152602001908152602001600020805490500381548110151561178457fe5b9060005260206000200154905080600360008773ffffffffffffffffffffffffffffffffffffffff1673ffffffffffffffffffffffffffffffffffffffff168152602001908152602001600020838154811015156117de57fe5b906000526020600020018190555060009050600360008673ffffffffffffffffffffffffffffffffffffffff1673ffffffffffffffffffffffffffffffffffffffff168152602001908152602001600020805480919060019003611842919061220e565b50600360008673ffffffffffffffffffffffffffffffffffffffff1673ffffffffffffffffffffffffffffffffffffffff168152602001908152602001600020805490509250505092915050565b600a6020528060005260406000206000915090505481565b60095481565b6000600760008473ffffffffffffffffffffffffffffffffffffffff1673ffffffffffffffffffffffffffffffffffffffff16815260200190815260200160002060008373ffffffffffffffffffffffffffffffffffffffff1673ffffffffffffffffffffffffffffffffffffffff16815260200190815260200160002060009054906101000a900460ff16905092915050565b60028060ff1661195133611165565b600281111561195c57fe5b60ff1614151561196b57600080fd5b8260ff16600281111561197a57fe5b6000808473ffffffffffffffffffffffffffffffffffffffff1673ffffffffffffffffffffffffffffffffffffffff16815260200190815260200160002060006101000a81548160ff021916908360028111156119d357fe5b0217905550505050565b60006006600083815260200190815260200160002060009054906101000a900473ffffffffffffffffffffffffffffffffffffffff169050919050565b816006600083815260200190815260200160002060006101000a81548173ffffffffffffffffffffffffffffffffffffffff021916908373ffffffffffffffffffffffffffffffffffffffff1602179055505050565b611a7a838261166b565b50611a8481611e8e565b611a8e8282611043565b505050565b6000808284019050838110151515611aa757fe5b8091505092915050565b60005b6065811015611c025760011515611bae600260008481526020019081526020016000206003018054600181600116156101000203166002900480601f016020809104026020016040519081016040528092919081815260200182805460018160011615610100020316600290048015611b6e5780601f10611b4357610100808354040283529160200191611b6e565b820191906000526020600020905b815481529060010190602001808311611b5157829003601f168201915b50505050506040805190810160405280600181526020017f3100000000000000000000000000000000000000000000000000000000000000815250611ee4565b15151415611bf557611bf46004600083815260200190815260200160002060009054906101000a900473ffffffffffffffffffffffffffffffffffffffff166001611fbd565b5b8080600101915050611ab4565b50565b6000806000808492506000600a60008573ffffffffffffffffffffffffffffffffffffffff1673ffffffffffffffffffffffffffffffffffffffff16815260200190815260200160002054111515611c5c57600080fd5b611c886009543073ffffffffffffffffffffffffffffffffffffffff1631611a9390919063ffffffff16565b9150611d41600b60008573ffffffffffffffffffffffffffffffffffffffff1673ffffffffffffffffffffffffffffffffffffffff16815260200190815260200160002054611d33600854611d25600a60008973ffffffffffffffffffffffffffffffffffffffff1673ffffffffffffffffffffffffffffffffffffffff168152602001908152602001600020548761211f90919063ffffffff16565b61215a90919063ffffffff16565b61217590919063ffffffff16565b905060008114151515611d5357600080fd5b803073ffffffffffffffffffffffffffffffffffffffff163110151515611d7957600080fd5b611dcb81600b60008673ffffffffffffffffffffffffffffffffffffffff1673ffffffffffffffffffffffffffffffffffffffff16815260200190815260200160002054611a9390919063ffffffff16565b600b60008573ffffffffffffffffffffffffffffffffffffffff1673ffffffffffffffffffffffffffffffffffffffff16815260200190815260200160002081905550611e2381600954611a9390919063ffffffff16565b6009819055508273ffffffffffffffffffffffffffffffffffffffff166108fc829081150290604051600060405180830381858888f19350505050158015611e6f573d6000803e3d6000fd5b50505050919050565b60006008541015611e8c5760006008819055505b565b60006006600083815260200190815260200160002060006101000a81548173ffffffffffffffffffffffffffffffffffffffff021916908373ffffffffffffffffffffffffffffffffffffffff16021790555050565b6000816040518082805190602001908083835b602083101515611f1c5780518252602082019150602081019050602083039250611ef7565b6001836020036101000a038019825116818451168082178552505050505050905001915050604051809103902060001916836040518082805190602001908083835b602083101515611f835780518252602082019150602081019050602083039250611f5e565b6001836020036101000a03801982511681845116808217855250505050505090500191505060405180910390206000191614905092915050565b600073ffffffffffffffffffffffffffffffffffffffff168273ffffffffffffffffffffffffffffffffffffffff1614151515611ff957600080fd5b60008111151561200857600080fd5b6000600a60008473ffffffffffffffffffffffffffffffffffffffff1673ffffffffffffffffffffffffffffffffffffffff1681526020019081526020016000205414151561205657600080fd5b600c8290806001815401808255809150509060018203906000526020600020016000909192909190916101000a81548173ffffffffffffffffffffffffffffffffffffffff021916908373ffffffffffffffffffffffffffffffffffffffff1602179055505080600a60008473ffffffffffffffffffffffffffffffffffffffff1673ffffffffffffffffffffffffffffffffffffffff1681526020019081526020016000208190555061211581600854611a9390919063ffffffff16565b6008819055505050565b60008060008414156121345760009150612153565b828402905082848281151561214557fe5b0414151561214f57fe5b8091505b5092915050565b600080828481151561216857fe5b0490508091505092915050565b600082821115151561218357fe5b818303905092915050565b828054600181600116156101000203166002900490600052602060002090601f016020900481019282601f106121cf57805160ff19168380011785556121fd565b828001600101855582156121fd579182015b828111156121fc5782518255916020019190600101906121e1565b5b50905061220a919061223a565b5090565b81548183558181111561223557818360005260206000209182019101612234919061223a565b5b505050565b61225c91905b80821115612258576000816000905550600101612240565b5090565b905600a165627a7a7230582094a85e095afe9dbf3f980e58bab7327cf8a70da1a597b12add9f061f5799645b0029",
  "source": "pragma solidity ^0.4.23;\nimport './testreg.sol';\nimport './SafeMath.sol';\n\n/// @dev altered version of Open Zepplin's 'SplitPayment' contract\n\ncontract bloomingPool is testreg {\n\n    using SafeMath for uint256;\n\n    uint256 public totalShares = 0;\n    uint256 public totalReleased = 0;\n\n    mapping(address => uint256) public shares;\n    mapping(address => uint256) public released;\n    address[] public payees;\n\n    constructor(address[] _payees, uint256[] _shares) public payable {\n        require(_payees.length == _shares.length);\n\n        for (uint256 i = 0; i < _payees.length; i++) {\n          addPayee(_payees[i], _shares[i]);\n        }\n    }\n\n    function addPayee(address _payee, uint256 _shares) internal {\n        require(_payee != address(0));\n        require(_shares > 0);\n        require(shares[_payee] == 0);\n\n        payees.push(_payee);\n        shares[_payee] = _shares;\n        totalShares = totalShares.add(_shares);\n    }\n\n\tfunction oracle_call() external check(1) {\n\t\tcheck_blooming();\n\t\tfor (uint i;i<payees.length;i++){\n\t\t\taddress to = payees[i];\n\t\t\tpayout(to);\n\t\t}\n\t\treset_shares();\n\t\t}\n\n\tfunction check_blooming() internal {\n\t\tfor(uint i;i<101;i++) {\n\t\t\tif (compareStrings(TokenId[i].blooming, \"1\") == true) {\n\t\t\t\taddPayee(TokenIdtoadress[i],1);\n\t\t\t}\n\t\t}\n\t}\n\n\tfunction payout(address to) internal returns(bool){\n\t\taddress payee = to;\n\t\trequire(shares[payee] > 0);\n\n        uint256 totalReceived = address(this).balance.add(totalReleased);\n        uint256 payment = totalReceived.mul(shares[payee]).div(totalShares).sub(released[payee]);\n\n        require(payment != 0);\n        require(address(this).balance >= payment);\n\n        released[payee] = released[payee].add(payment);\n        totalReleased = totalReleased.add(payment);\n\n        payee.transfer(payment);\n\t}\n\n\tfunction reset_shares() internal {\n\t\tif (totalShares < 0){\n\t\t\ttotalShares = 0;\n\t\t}\n\t}\n\n\tfunction compareStrings (string a, string b) internal returns(bool){\n        return keccak256(a) == keccak256(b);\n    }\n\n}\n",
  "sourcePath": "/Users/mfahampshire/terra0/source/ERC721/contracts/bloomingPool.sol",
  "compiler": {
    "name": "solc",
    "version": "0.4.23+commit.124ca40d.Emscripten.clang"
  },
  "schemaVersion": "2.0.0",
  "updatedAt": "2018-05-13T10:21:33.374Z"
}