{
  "contractName": "bloomingPool",
  "abi": [
    {
      "constant": false,
      "inputs": [
        {
          "name": "_tokenId",
          "type": "uint256"
        },
        {
          "name": "new_uri",
          "type": "string"
        }
      ],
      "name": "updatetoken",
      "outputs": [],
      "payable": false,
      "stateMutability": "nonpayable",
      "type": "function"
    },
    {
      "constant": true,
      "inputs": [
        {
          "name": "_tokenId",
          "type": "uint256"
        }
      ],
      "name": "getApproved",
      "outputs": [
        {
          "name": "",
          "type": "address"
        }
      ],
      "payable": false,
      "stateMutability": "view",
      "type": "function"
    },
    {
      "constant": false,
      "inputs": [
        {
          "name": "_to",
          "type": "address"
        },
        {
          "name": "_tokenId",
          "type": "uint256"
        }
      ],
      "name": "approve",
      "outputs": [],
      "payable": false,
      "stateMutability": "nonpayable",
      "type": "function"
    },
    {
      "constant": false,
      "inputs": [
        {
          "name": "_from",
          "type": "address"
        },
        {
          "name": "_to",
          "type": "address"
        },
        {
          "name": "_tokenId",
          "type": "uint256"
        }
      ],
      "name": "transferFrom",
      "outputs": [],
      "payable": false,
      "stateMutability": "nonpayable",
      "type": "function"
    },
    {
      "constant": true,
      "inputs": [],
      "name": "totalShares",
      "outputs": [
        {
          "name": "",
          "type": "uint256"
        }
      ],
      "payable": false,
      "stateMutability": "view",
      "type": "function"
    },
    {
      "constant": true,
      "inputs": [
        {
          "name": "_spender",
          "type": "address"
        },
        {
          "name": "_tokenId",
          "type": "uint256"
        }
      ],
      "name": "isApprovedOrOwner",
      "outputs": [
        {
          "name": "",
          "type": "bool"
        }
      ],
      "payable": false,
      "stateMutability": "view",
      "type": "function"
    },
    {
      "constant": true,
      "inputs": [
        {
          "name": "entity",
          "type": "address"
        }
      ],
      "name": "getRole",
      "outputs": [
        {
          "name": "",
          "type": "uint8"
        }
      ],
      "payable": false,
      "stateMutability": "view",
      "type": "function"
    },
    {
      "constant": false,
      "inputs": [
        {
          "name": "_to",
          "type": "address"
        },
        {
          "name": "_tokenId",
          "type": "uint256"
        }
      ],
      "name": "_mint",
      "outputs": [],
      "payable": false,
      "stateMutability": "nonpayable",
      "type": "function"
    },
    {
      "constant": true,
      "inputs": [
        {
          "name": "_tokenId",
          "type": "uint256"
        }
      ],
      "name": "exists",
      "outputs": [
        {
          "name": "",
          "type": "bool"
        }
      ],
      "payable": false,
      "stateMutability": "view",
      "type": "function"
    },
    {
      "constant": false,
      "inputs": [
        {
          "name": "_owner",
          "type": "address"
        },
        {
          "name": "_tokenId",
          "type": "uint256"
        }
      ],
      "name": "_burn",
      "outputs": [],
      "payable": false,
      "stateMutability": "nonpayable",
      "type": "function"
    },
    {
      "constant": true,
      "inputs": [],
      "name": "freeze",
      "outputs": [
        {
          "name": "",
          "type": "bool"
        }
      ],
      "payable": false,
      "stateMutability": "view",
      "type": "function"
    },
    {
      "constant": true,
      "inputs": [
        {
          "name": "_tokenId",
          "type": "uint256"
        }
      ],
      "name": "ownerOf",
      "outputs": [
        {
          "name": "",
          "type": "address"
        }
      ],
      "payable": false,
      "stateMutability": "view",
      "type": "function"
    },
    {
      "constant": true,
      "inputs": [
        {
          "name": "_owner",
          "type": "address"
        }
      ],
      "name": "balanceOf",
      "outputs": [
        {
          "name": "",
          "type": "uint256"
        }
      ],
      "payable": false,
      "stateMutability": "view",
      "type": "function"
    },
    {
      "constant": false,
      "inputs": [
        {
          "name": "_to",
          "type": "address"
        },
        {
          "name": "_approved",
          "type": "bool"
        }
      ],
      "name": "setApprovalForAll",
      "outputs": [],
      "payable": false,
      "stateMutability": "nonpayable",
      "type": "function"
    },
    {
      "constant": true,
      "inputs": [],
      "name": "numTokensTotal",
      "outputs": [
        {
          "name": "",
          "type": "uint256"
        }
      ],
      "payable": false,
      "stateMutability": "view",
      "type": "function"
    },
    {
      "constant": true,
      "inputs": [
        {
          "name": "",
          "type": "address"
        }
      ],
      "name": "shares",
      "outputs": [
        {
          "name": "",
          "type": "uint256"
        }
      ],
      "payable": false,
      "stateMutability": "view",
      "type": "function"
    },
    {
      "constant": true,
      "inputs": [],
      "name": "totalReleased",
      "outputs": [
        {
          "name": "",
          "type": "uint256"
        }
      ],
      "payable": false,
      "stateMutability": "view",
      "type": "function"
    },
    {
      "constant": true,
      "inputs": [
        {
          "name": "_owner",
          "type": "address"
        },
        {
          "name": "_operator",
          "type": "address"
        }
      ],
      "name": "isApprovedForAll",
      "outputs": [
        {
          "name": "",
          "type": "bool"
        }
      ],
      "payable": false,
      "stateMutability": "view",
      "type": "function"
    },
    {
      "constant": false,
      "inputs": [
        {
          "name": "rolevalue",
          "type": "uint8"
        },
        {
          "name": "entity",
          "type": "address"
        }
      ],
      "name": "setRole",
      "outputs": [],
      "payable": false,
      "stateMutability": "nonpayable",
      "type": "function"
    },
    {
      "constant": false,
      "inputs": [
        {
          "name": "_to",
          "type": "address"
        },
        {
          "name": "_tokenId",
          "type": "uint256"
        },
        {
          "name": "new_uri",
          "type": "string"
        }
      ],
      "name": "_mint_with_uri",
      "outputs": [],
      "payable": false,
      "stateMutability": "nonpayable",
      "type": "function"
    },
    {
      "inputs": [],
      "payable": false,
      "stateMutability": "nonpayable",
      "type": "constructor"
    },
    {
      "payable": true,
      "stateMutability": "payable",
      "type": "fallback"
    },
    {
      "anonymous": false,
      "inputs": [
        {
          "indexed": false,
          "name": "_tokenId",
          "type": "uint256"
        },
        {
          "indexed": false,
          "name": "new_uri",
          "type": "string"
        }
      ],
      "name": "UpdateToken",
      "type": "event"
    },
    {
      "anonymous": false,
      "inputs": [
        {
          "indexed": true,
          "name": "_from",
          "type": "address"
        },
        {
          "indexed": true,
          "name": "_to",
          "type": "address"
        },
        {
          "indexed": false,
          "name": "_tokenId",
          "type": "uint256"
        }
      ],
      "name": "Transfer",
      "type": "event"
    },
    {
      "anonymous": false,
      "inputs": [
        {
          "indexed": true,
          "name": "_owner",
          "type": "address"
        },
        {
          "indexed": true,
          "name": "_approved",
          "type": "address"
        },
        {
          "indexed": false,
          "name": "_tokenId",
          "type": "uint256"
        }
      ],
      "name": "Approval",
      "type": "event"
    },
    {
      "anonymous": false,
      "inputs": [
        {
          "indexed": true,
          "name": "_owner",
          "type": "address"
        },
        {
          "indexed": true,
          "name": "_operator",
          "type": "address"
        },
        {
          "indexed": false,
          "name": "_approved",
          "type": "bool"
        }
      ],
      "name": "ApprovalForAll",
      "type": "event"
    },
    {
      "constant": false,
      "inputs": [
        {
          "name": "unique_id",
          "type": "uint256"
        }
      ],
      "name": "oracle_call",
      "outputs": [],
      "payable": false,
      "stateMutability": "nonpayable",
      "type": "function"
    },
    {
      "constant": true,
      "inputs": [],
      "name": "get_shares",
      "outputs": [
        {
          "name": "individual_shares",
          "type": "uint256"
        }
      ],
      "payable": false,
      "stateMutability": "view",
      "type": "function"
    },
    {
      "constant": false,
      "inputs": [
        {
          "name": "_freeze",
          "type": "bool"
        }
      ],
      "name": "freeze_pool",
      "outputs": [],
      "payable": false,
      "stateMutability": "nonpayable",
      "type": "function"
    },
    {
      "constant": false,
      "inputs": [],
      "name": "claim",
      "outputs": [],
      "payable": false,
      "stateMutability": "nonpayable",
      "type": "function"
    },
    {
      "constant": false,
      "inputs": [
        {
          "name": "amount",
          "type": "uint256"
        }
      ],
      "name": "emergency_withdraw",
      "outputs": [],
      "payable": false,
      "stateMutability": "nonpayable",
      "type": "function"
    }
  ],
  "bytecode": "0x60806040526000600755600060085534801561001a57600080fd5b5060028081111561002757fe5b6000803373ffffffffffffffffffffffffffffffffffffffff1673ffffffffffffffffffffffffffffffffffffffff16815260200190815260200160002060006101000a81548160ff0219169083600281111561008057fe5b02179055506000600960006101000a81548160ff021916908315150217905550611e02806100af6000396000f300608060405260043610610149576000357c0100000000000000000000000000000000000000000000000000000000900463ffffffff16806303ad4be31461014b578063081812fc14610190578063095ea7b3146101fd57806312be78d11461024a57806323b872dd146102795780633a98ef39146102e6578063430c20811461031157806344276733146103765780634e6ec247146103db5780634e71d92d146104285780634f558e791461043f5780636161eb181461048457806362a5af3b146104d15780636352211e1461050057806370a082311461056d578063a22cb465146105c4578063af129dc214610613578063ce7c2ac21461063e578063e33b7de314610695578063e985e9c5146106c0578063ec46bf8f1461073b578063f2e12a3914610768578063f3f70674146107b8578063f4a8a699146107e5578063f8bdc9dd1461084a575b005b34801561015757600080fd5b5061018e60048036038101908080359060200190929190803590602001908201803590602001919091929391929390505050610875565b005b34801561019c57600080fd5b506101bb60048036038101908080359060200190929190505050610923565b604051808273ffffffffffffffffffffffffffffffffffffffff1673ffffffffffffffffffffffffffffffffffffffff16815260200191505060405180910390f35b34801561020957600080fd5b50610248600480360381019080803573ffffffffffffffffffffffffffffffffffffffff16906020019092919080359060200190929190505050610960565b005b34801561025657600080fd5b50610277600480360381019080803515159060200190929190505050610b34565b005b34801561028557600080fd5b506102e4600480360381019080803573ffffffffffffffffffffffffffffffffffffffff169060200190929190803573ffffffffffffffffffffffffffffffffffffffff16906020019092919080359060200190929190505050610b7b565b005b3480156102f257600080fd5b506102fb610c92565b6040518082815260200191505060405180910390f35b34801561031d57600080fd5b5061035c600480360381019080803573ffffffffffffffffffffffffffffffffffffffff16906020019092919080359060200190929190505050610c98565b604051808215151515815260200191505060405180910390f35b34801561038257600080fd5b506103b7600480360381019080803573ffffffffffffffffffffffffffffffffffffffff169060200190929190505050610d2d565b604051808260028111156103c757fe5b60ff16815260200191505060405180910390f35b3480156103e757600080fd5b50610426600480360381019080803573ffffffffffffffffffffffffffffffffffffffff16906020019092919080359060200190929190505050610d82565b005b34801561043457600080fd5b5061043d610e77565b005b34801561044b57600080fd5b5061046a60048036038101908080359060200190929190505050610e83565b604051808215151515815260200191505060405180910390f35b34801561049057600080fd5b506104cf600480360381019080803573ffffffffffffffffffffffffffffffffffffffff16906020019092919080359060200190929190505050610ef5565b005b3480156104dd57600080fd5b506104e6610fb8565b604051808215151515815260200191505060405180910390f35b34801561050c57600080fd5b5061052b60048036038101908080359060200190929190505050610fcb565b604051808273ffffffffffffffffffffffffffffffffffffffff1673ffffffffffffffffffffffffffffffffffffffff16815260200191505060405180910390f35b34801561057957600080fd5b506105ae600480360381019080803573ffffffffffffffffffffffffffffffffffffffff16906020019092919050505061100d565b6040518082815260200191505060405180910390f35b3480156105d057600080fd5b50610611600480360381019080803573ffffffffffffffffffffffffffffffffffffffff169060200190929190803515159060200190929190505050611091565b005b34801561061f57600080fd5b506106286111cd565b6040518082815260200191505060405180910390f35b34801561064a57600080fd5b5061067f600480360381019080803573ffffffffffffffffffffffffffffffffffffffff1690602001909291905050506111d3565b6040518082815260200191505060405180910390f35b3480156106a157600080fd5b506106aa6111eb565b6040518082815260200191505060405180910390f35b3480156106cc57600080fd5b50610721600480360381019080803573ffffffffffffffffffffffffffffffffffffffff169060200190929190803573ffffffffffffffffffffffffffffffffffffffff1690602001909291905050506111f1565b604051808215151515815260200191505060405180910390f35b34801561074757600080fd5b5061076660048036038101908080359060200190929190505050611285565b005b34801561077457600080fd5b506107b6600480360381019080803560ff169060200190929190803573ffffffffffffffffffffffffffffffffffffffff16906020019092919050505061131f565b005b3480156107c457600080fd5b506107e3600480360381019080803590602001909291905050506113ba565b005b3480156107f157600080fd5b50610848600480360381019080803573ffffffffffffffffffffffffffffffffffffffff169060200190929190803590602001909291908035906020019082018035906020019190919293919293905050506113f2565b005b34801561085657600080fd5b5061085f61150f565b6040518082815260200191505060405180910390f35b60018060ff1661088433610d2d565b600281111561088f57fe5b60ff1614151561089e57600080fd5b82826006600087815260200190815260200160002060000191906108c3929190611d31565b507f53560fd2a0eb35afd8d535363033618f52ccbfc857a7bf616eb195a0ed022ef484848460405180848152602001806020018281038252848482818152602001925080828437820191505094505050505060405180910390a150505050565b60006003600083815260200190815260200160002060009054906101000a900473ffffffffffffffffffffffffffffffffffffffff169050919050565b60006002600083815260200190815260200160002060009054906101000a900473ffffffffffffffffffffffffffffffffffffffff169050826003600084815260200190815260200160002060006101000a81548173ffffffffffffffffffffffffffffffffffffffff021916908373ffffffffffffffffffffffffffffffffffffffff1602179055506109f382610fcb565b73ffffffffffffffffffffffffffffffffffffffff168373ffffffffffffffffffffffffffffffffffffffff1614151515610a2d57600080fd5b8073ffffffffffffffffffffffffffffffffffffffff163373ffffffffffffffffffffffffffffffffffffffff161480610a6d5750610a6c81336111f1565b5b1515610a7857600080fd5b826003600084815260200190815260200160002060006101000a81548173ffffffffffffffffffffffffffffffffffffffff021916908373ffffffffffffffffffffffffffffffffffffffff1602179055508273ffffffffffffffffffffffffffffffffffffffff168173ffffffffffffffffffffffffffffffffffffffff167f8c5be1e5ebec7d5bd14f71427d1e84f3dd0314c0f7b2291e5b200ac8c7c3b925846040518082815260200191505060405180910390a3505050565b60028060ff16610b4333610d2d565b6002811115610b4e57fe5b60ff16141515610b5d57600080fd5b81600960006101000a81548160ff0219169083151502179055505050565b80610b863382610c98565b1515610b9157600080fd5b600073ffffffffffffffffffffffffffffffffffffffff168473ffffffffffffffffffffffffffffffffffffffff1614151515610bcd57600080fd5b600073ffffffffffffffffffffffffffffffffffffffff168373ffffffffffffffffffffffffffffffffffffffff1614151515610c0957600080fd5b610c138483611556565b610c1d84836116bf565b610c2783836117ee565b8273ffffffffffffffffffffffffffffffffffffffff168473ffffffffffffffffffffffffffffffffffffffff167fddf252ad1be2c89b69c2b068fc378daa952ba7f163c4a11628f55a4df523b3ef846040518082815260200191505060405180910390a350505050565b60075481565b600080610ca483610fcb565b90508073ffffffffffffffffffffffffffffffffffffffff168473ffffffffffffffffffffffffffffffffffffffff161480610d1357508373ffffffffffffffffffffffffffffffffffffffff16610cfb84610923565b73ffffffffffffffffffffffffffffffffffffffff16145b80610d245750610d2381856111f1565b5b91505092915050565b60008060008373ffffffffffffffffffffffffffffffffffffffff1673ffffffffffffffffffffffffffffffffffffffff16815260200190815260200160002060009054906101000a900460ff169050919050565b60028060ff16610d9133610d2d565b6002811115610d9c57fe5b60ff16141515610dab57600080fd5b600073ffffffffffffffffffffffffffffffffffffffff168373ffffffffffffffffffffffffffffffffffffffff1614151515610de757600080fd5b610df183836117ee565b610e066001805461194890919063ffffffff16565b6001819055508273ffffffffffffffffffffffffffffffffffffffff16600073ffffffffffffffffffffffffffffffffffffffff167fddf252ad1be2c89b69c2b068fc378daa952ba7f163c4a11628f55a4df523b3ef846040518082815260200191505060405180910390a3505050565b610e8033611966565b50565b6000806002600084815260200190815260200160002060009054906101000a900473ffffffffffffffffffffffffffffffffffffffff169050600073ffffffffffffffffffffffffffffffffffffffff168173ffffffffffffffffffffffffffffffffffffffff161415915050919050565b60028060ff16610f0433610d2d565b6002811115610f0f57fe5b60ff16141515610f1e57600080fd5b610f288383611556565b610f3283836116bf565b610f4760018054611b5290919063ffffffff16565b600181905550600073ffffffffffffffffffffffffffffffffffffffff168373ffffffffffffffffffffffffffffffffffffffff167fddf252ad1be2c89b69c2b068fc378daa952ba7f163c4a11628f55a4df523b3ef846040518082815260200191505060405180910390a3505050565b600960009054906101000a900460ff1681565b6000806002600084815260200190815260200160002060009054906101000a900473ffffffffffffffffffffffffffffffffffffffff16905080915050919050565b60008073ffffffffffffffffffffffffffffffffffffffff168273ffffffffffffffffffffffffffffffffffffffff161415151561104a57600080fd5b600460008373ffffffffffffffffffffffffffffffffffffffff1673ffffffffffffffffffffffffffffffffffffffff168152602001908152602001600020549050919050565b3373ffffffffffffffffffffffffffffffffffffffff168273ffffffffffffffffffffffffffffffffffffffff16141515156110cc57600080fd5b80600560003373ffffffffffffffffffffffffffffffffffffffff1673ffffffffffffffffffffffffffffffffffffffff16815260200190815260200160002060008473ffffffffffffffffffffffffffffffffffffffff1673ffffffffffffffffffffffffffffffffffffffff16815260200190815260200160002060006101000a81548160ff0219169083151502179055508173ffffffffffffffffffffffffffffffffffffffff163373ffffffffffffffffffffffffffffffffffffffff167f17307eab39ab6107e8899845ad3d59bd9653f200f220920489ca2b5937696c3183604051808215151515815260200191505060405180910390a35050565b60015481565b600a6020528060005260406000206000915090505481565b60085481565b6000600560008473ffffffffffffffffffffffffffffffffffffffff1673ffffffffffffffffffffffffffffffffffffffff16815260200190815260200160002060008373ffffffffffffffffffffffffffffffffffffffff1673ffffffffffffffffffffffffffffffffffffffff16815260200190815260200160002060009054906101000a900460ff16905092915050565b60028060ff1661129433610d2d565b600281111561129f57fe5b60ff161415156112ae57600080fd5b3073ffffffffffffffffffffffffffffffffffffffff163182111515156112d457600080fd5b3373ffffffffffffffffffffffffffffffffffffffff166108fc839081150290604051600060405180830381858888f1935050505015801561131a573d6000803e3d6000fd5b505050565b60028060ff1661132e33610d2d565b600281111561133957fe5b60ff1614151561134857600080fd5b8260ff16600281111561135757fe5b6000808473ffffffffffffffffffffffffffffffffffffffff1673ffffffffffffffffffffffffffffffffffffffff16815260200190815260200160002060006101000a81548160ff021916908360028111156113b057fe5b0217905550505050565b60018060ff166113c933610d2d565b60028111156113d457fe5b60ff161415156113e357600080fd5b6113ee600183611b6b565b5050565b60028060ff1661140133610d2d565b600281111561140c57fe5b60ff1614151561141b57600080fd5b600073ffffffffffffffffffffffffffffffffffffffff168573ffffffffffffffffffffffffffffffffffffffff161415151561145757600080fd5b61146185856117ee565b6114766001805461194890919063ffffffff16565b60018190555082826006600087815260200190815260200160002060000191906114a1929190611d31565b508473ffffffffffffffffffffffffffffffffffffffff16600073ffffffffffffffffffffffffffffffffffffffff167fddf252ad1be2c89b69c2b068fc378daa952ba7f163c4a11628f55a4df523b3ef866040518082815260200191505060405180910390a35050505050565b6000600a60003373ffffffffffffffffffffffffffffffffffffffff1673ffffffffffffffffffffffffffffffffffffffff16815260200190815260200160002054905090565b8173ffffffffffffffffffffffffffffffffffffffff1661157682610fcb565b73ffffffffffffffffffffffffffffffffffffffff1614151561159857600080fd5b600073ffffffffffffffffffffffffffffffffffffffff166003600083815260200190815260200160002060009054906101000a900473ffffffffffffffffffffffffffffffffffffffff1673ffffffffffffffffffffffffffffffffffffffff161415156116bb5760006003600083815260200190815260200160002060006101000a81548173ffffffffffffffffffffffffffffffffffffffff021916908373ffffffffffffffffffffffffffffffffffffffff160217905550600073ffffffffffffffffffffffffffffffffffffffff168273ffffffffffffffffffffffffffffffffffffffff167f8c5be1e5ebec7d5bd14f71427d1e84f3dd0314c0f7b2291e5b200ac8c7c3b925836040518082815260200191505060405180910390a35b5050565b8173ffffffffffffffffffffffffffffffffffffffff166116df82610fcb565b73ffffffffffffffffffffffffffffffffffffffff1614151561170157600080fd5b6117546001600460008573ffffffffffffffffffffffffffffffffffffffff1673ffffffffffffffffffffffffffffffffffffffff16815260200190815260200160002054611b5290919063ffffffff16565b600460008473ffffffffffffffffffffffffffffffffffffffff1673ffffffffffffffffffffffffffffffffffffffff1681526020019081526020016000208190555060006002600083815260200190815260200160002060006101000a81548173ffffffffffffffffffffffffffffffffffffffff021916908373ffffffffffffffffffffffffffffffffffffffff1602179055505050565b600073ffffffffffffffffffffffffffffffffffffffff166002600083815260200190815260200160002060009054906101000a900473ffffffffffffffffffffffffffffffffffffffff1673ffffffffffffffffffffffffffffffffffffffff1614151561185c57600080fd5b816002600083815260200190815260200160002060006101000a81548173ffffffffffffffffffffffffffffffffffffffff021916908373ffffffffffffffffffffffffffffffffffffffff1602179055506119016001600460008573ffffffffffffffffffffffffffffffffffffffff1673ffffffffffffffffffffffffffffffffffffffff1681526020019081526020016000205461194890919063ffffffff16565b600460008473ffffffffffffffffffffffffffffffffffffffff1673ffffffffffffffffffffffffffffffffffffffff168152602001908152602001600020819055505050565b600080828401905083811015151561195c57fe5b8091505092915050565b60008060008060001515600960009054906101000a900460ff16151514151561198e57600080fd5b8492506000600a60008573ffffffffffffffffffffffffffffffffffffffff1673ffffffffffffffffffffffffffffffffffffffff168152602001908152602001600020541115156119df57600080fd5b3073ffffffffffffffffffffffffffffffffffffffff16319150611a5f600754611a51600a60008773ffffffffffffffffffffffffffffffffffffffff1673ffffffffffffffffffffffffffffffffffffffff1681526020019081526020016000205485611c8590919063ffffffff16565b611cc090919063ffffffff16565b905060008114151515611a7157600080fd5b803073ffffffffffffffffffffffffffffffffffffffff163110151515611a9757600080fd5b611aac8160085461194890919063ffffffff16565b6008819055508273ffffffffffffffffffffffffffffffffffffffff166108fc829081150290604051600060405180830381858888f19350505050158015611af8573d6000803e3d6000fd5b50611b41600a60008573ffffffffffffffffffffffffffffffffffffffff1673ffffffffffffffffffffffffffffffffffffffff16815260200190815260200160002054611cdb565b611b4a83611ce9565b505050919050565b6000828211151515611b6057fe5b818303905092915050565b611bf082600a60006002600086815260200190815260200160002060009054906101000a900473ffffffffffffffffffffffffffffffffffffffff1673ffffffffffffffffffffffffffffffffffffffff1673ffffffffffffffffffffffffffffffffffffffff1681526020019081526020016000205461194890919063ffffffff16565b600a60006002600085815260200190815260200160002060009054906101000a900473ffffffffffffffffffffffffffffffffffffffff1673ffffffffffffffffffffffffffffffffffffffff1673ffffffffffffffffffffffffffffffffffffffff16815260200190815260200160002081905550611c7b8260075461194890919063ffffffff16565b6007819055505050565b6000806000841415611c9a5760009150611cb9565b8284029050828482811515611cab57fe5b04141515611cb557fe5b8091505b5092915050565b6000808284811515611cce57fe5b0490508091505092915050565b806007540360078190555050565b6000600a60008373ffffffffffffffffffffffffffffffffffffffff1673ffffffffffffffffffffffffffffffffffffffff1681526020019081526020016000208190555050565b828054600181600116156101000203166002900490600052602060002090601f016020900481019282601f10611d7257803560ff1916838001178555611da0565b82800160010185558215611da0579182015b82811115611d9f578235825591602001919060010190611d84565b5b509050611dad9190611db1565b5090565b611dd391905b80821115611dcf576000816000905550600101611db7565b5090565b905600a165627a7a72305820987bd319b1a7e6926468763a7132428acd370f4d934c0c5d4cbefa435d3cb8690029",
  "source": "pragma solidity ^0.4.23;\nimport \"./update.sol\";\nimport \"./SafeMath.sol\";\n\n/// @dev altered version of Open Zepplin's 'SplitPayment' contract\n\ncontract bloomingPool is update {\n\n    using SafeMath for uint256;\n\n    uint256 public totalShares = 0;\n    uint256 public totalReleased = 0;\n    bool public freeze;\n\n    mapping(address => uint256) public shares;\n\n    constructor() public {\n        freeze = false;\n    }\n\n    function() public payable { }\n\n\n    function calculate_total_shares(uint256 _shares,uint256 unique_id )internal{\n        shares[tokenOwner[unique_id]] = shares[tokenOwner[unique_id]].add(_shares);\n        totalShares = totalShares.add(_shares);\n    }\n\n    function oracle_call(uint256 unique_id) external check(1){\n        calculate_total_shares(1,unique_id);\n    }\n\n    function get_shares() external view returns(uint256 individual_shares){\n        return shares[msg.sender];\n    }\n\n    function freeze_pool(bool _freeze) external check(2){\n        freeze = _freeze;\n    }\n\n    function reset_individual_shares(address payee)internal {\n        shares[payee] = 0;\n    }\n\n    function substract_individual_shares(uint256 _shares)internal {\n        totalShares = totalShares - _shares;\n    }\n\n\n    function claim()public{\n        payout(msg.sender);\n    }\n\n    function payout(address to) internal returns(bool){\n        require(freeze == false);\n        address payee = to;\n        require(shares[payee] > 0);\n\n        uint256 volume = address(this).balance;\n        uint256 payment = volume.mul(shares[payee]).div(totalShares);\n\n        require(payment != 0);\n        require(address(this).balance >= payment);\n\n        totalReleased = totalReleased.add(payment);\n        payee.transfer(payment);\n        substract_individual_shares(shares[payee]);\n        reset_individual_shares(payee);\n    }\n\n    function emergency_withdraw(uint amount) external check(2) {\n        require(amount <= this.balance);\n        msg.sender.transfer(amount);\n    }\n\n}\n",
  "sourcePath": "/home/mx/Dev/null/source/ERC721/contracts/bloomingPool.sol",
  "compiler": {
    "name": "solc",
    "version": "0.4.24+commit.e67f0147.Emscripten.clang"
  },
  "schemaVersion": "2.0.1",
  "updatedAt": "2018-07-15T11:48:44.109Z"
}