{
  "contractName": "bloomingPool",
  "abi": [
    {
      "constant": false,
      "inputs": [
        {
          "name": "_tokenId",
          "type": "uint256"
        },
        {
          "name": "state",
          "type": "string"
        }
      ],
      "name": "updatetoken",
      "outputs": [],
      "payable": false,
      "stateMutability": "nonpayable",
      "type": "function"
    },
    {
      "constant": true,
      "inputs": [
        {
          "name": "_tokenId",
          "type": "uint256"
        }
      ],
      "name": "getApproved",
      "outputs": [
        {
          "name": "",
          "type": "address"
        }
      ],
      "payable": false,
      "stateMutability": "view",
      "type": "function"
    },
    {
      "constant": false,
      "inputs": [
        {
          "name": "_to",
          "type": "address"
        },
        {
          "name": "_tokenId",
          "type": "uint256"
        }
      ],
      "name": "approve",
      "outputs": [],
      "payable": false,
      "stateMutability": "nonpayable",
      "type": "function"
    },
    {
      "constant": false,
      "inputs": [
        {
          "name": "_from",
          "type": "address"
        },
        {
          "name": "_to",
          "type": "address"
        },
        {
          "name": "_tokenId",
          "type": "uint256"
        }
      ],
      "name": "transferFrom",
      "outputs": [],
      "payable": false,
      "stateMutability": "nonpayable",
      "type": "function"
    },
    {
      "constant": true,
      "inputs": [],
      "name": "totalShares",
      "outputs": [
        {
          "name": "",
          "type": "uint256"
        }
      ],
      "payable": false,
      "stateMutability": "view",
      "type": "function"
    },
    {
      "constant": true,
      "inputs": [
        {
          "name": "_spender",
          "type": "address"
        },
        {
          "name": "_tokenId",
          "type": "uint256"
        }
      ],
      "name": "isApprovedOrOwner",
      "outputs": [
        {
          "name": "",
          "type": "bool"
        }
      ],
      "payable": false,
      "stateMutability": "view",
      "type": "function"
    },
    {
      "constant": true,
      "inputs": [
        {
          "name": "entity",
          "type": "address"
        }
      ],
      "name": "getRole",
      "outputs": [
        {
          "name": "",
          "type": "uint8"
        }
      ],
      "payable": false,
      "stateMutability": "view",
      "type": "function"
    },
    {
      "constant": false,
      "inputs": [
        {
          "name": "_to",
          "type": "address"
        },
        {
          "name": "_tokenId",
          "type": "uint256"
        }
      ],
      "name": "_mint",
      "outputs": [],
      "payable": false,
      "stateMutability": "nonpayable",
      "type": "function"
    },
    {
      "constant": true,
      "inputs": [
        {
          "name": "_tokenId",
          "type": "uint256"
        }
      ],
      "name": "exists",
      "outputs": [
        {
          "name": "",
          "type": "bool"
        }
      ],
      "payable": false,
      "stateMutability": "view",
      "type": "function"
    },
    {
      "constant": false,
      "inputs": [
        {
          "name": "_owner",
          "type": "address"
        },
        {
          "name": "_tokenId",
          "type": "uint256"
        }
      ],
      "name": "_burn",
      "outputs": [],
      "payable": false,
      "stateMutability": "nonpayable",
      "type": "function"
    },
    {
      "constant": true,
      "inputs": [
        {
          "name": "",
          "type": "uint256"
        }
      ],
      "name": "payees",
      "outputs": [
        {
          "name": "",
          "type": "address"
        }
      ],
      "payable": false,
      "stateMutability": "view",
      "type": "function"
    },
    {
      "constant": true,
      "inputs": [
        {
          "name": "_tokenId",
          "type": "uint256"
        }
      ],
      "name": "ownerOf",
      "outputs": [
        {
          "name": "",
          "type": "address"
        }
      ],
      "payable": false,
      "stateMutability": "view",
      "type": "function"
    },
    {
      "constant": true,
      "inputs": [
        {
          "name": "_owner",
          "type": "address"
        }
      ],
      "name": "balanceOf",
      "outputs": [
        {
          "name": "",
          "type": "uint256"
        }
      ],
      "payable": false,
      "stateMutability": "view",
      "type": "function"
    },
    {
      "constant": true,
      "inputs": [
        {
          "name": "",
          "type": "address"
        }
      ],
      "name": "released",
      "outputs": [
        {
          "name": "",
          "type": "uint256"
        }
      ],
      "payable": false,
      "stateMutability": "view",
      "type": "function"
    },
    {
      "constant": false,
      "inputs": [
        {
          "name": "_to",
          "type": "address"
        },
        {
          "name": "_approved",
          "type": "bool"
        }
      ],
      "name": "setApprovalForAll",
      "outputs": [],
      "payable": false,
      "stateMutability": "nonpayable",
      "type": "function"
    },
    {
      "constant": true,
      "inputs": [],
      "name": "numTokensTotal",
      "outputs": [
        {
          "name": "",
          "type": "uint256"
        }
      ],
      "payable": false,
      "stateMutability": "view",
      "type": "function"
    },
    {
      "constant": true,
      "inputs": [
        {
          "name": "",
          "type": "address"
        }
      ],
      "name": "shares",
      "outputs": [
        {
          "name": "",
          "type": "uint256"
        }
      ],
      "payable": false,
      "stateMutability": "view",
      "type": "function"
    },
    {
      "constant": true,
      "inputs": [],
      "name": "totalReleased",
      "outputs": [
        {
          "name": "",
          "type": "uint256"
        }
      ],
      "payable": false,
      "stateMutability": "view",
      "type": "function"
    },
    {
      "constant": true,
      "inputs": [
        {
          "name": "_owner",
          "type": "address"
        },
        {
          "name": "_operator",
          "type": "address"
        }
      ],
      "name": "isApprovedForAll",
      "outputs": [
        {
          "name": "",
          "type": "bool"
        }
      ],
      "payable": false,
      "stateMutability": "view",
      "type": "function"
    },
    {
      "constant": false,
      "inputs": [
        {
          "name": "rolevalue",
          "type": "uint8"
        },
        {
          "name": "entity",
          "type": "address"
        }
      ],
      "name": "setRole",
      "outputs": [],
      "payable": false,
      "stateMutability": "nonpayable",
      "type": "function"
    },
    {
      "inputs": [],
      "payable": false,
      "stateMutability": "nonpayable",
      "type": "constructor"
    },
    {
      "payable": true,
      "stateMutability": "payable",
      "type": "fallback"
    },
    {
      "anonymous": false,
      "inputs": [
        {
          "indexed": false,
          "name": "_tokenId",
          "type": "uint256"
        },
        {
          "indexed": false,
          "name": "state",
          "type": "string"
        }
      ],
      "name": "UpdateToken",
      "type": "event"
    },
    {
      "anonymous": false,
      "inputs": [
        {
          "indexed": true,
          "name": "_from",
          "type": "address"
        },
        {
          "indexed": true,
          "name": "_to",
          "type": "address"
        },
        {
          "indexed": false,
          "name": "_tokenId",
          "type": "uint256"
        }
      ],
      "name": "Transfer",
      "type": "event"
    },
    {
      "anonymous": false,
      "inputs": [
        {
          "indexed": true,
          "name": "_owner",
          "type": "address"
        },
        {
          "indexed": true,
          "name": "_approved",
          "type": "address"
        },
        {
          "indexed": false,
          "name": "_tokenId",
          "type": "uint256"
        }
      ],
      "name": "Approval",
      "type": "event"
    },
    {
      "anonymous": false,
      "inputs": [
        {
          "indexed": true,
          "name": "_owner",
          "type": "address"
        },
        {
          "indexed": true,
          "name": "_operator",
          "type": "address"
        },
        {
          "indexed": false,
          "name": "_approved",
          "type": "bool"
        }
      ],
      "name": "ApprovalForAll",
      "type": "event"
    },
    {
      "constant": false,
      "inputs": [],
      "name": "oracle_call",
      "outputs": [],
      "payable": false,
      "stateMutability": "nonpayable",
      "type": "function"
    }
  ],
  "bytecode": "0x60806040526000600755600060085534801561001a57600080fd5b5060028081111561002757fe5b6000803373ffffffffffffffffffffffffffffffffffffffff1673ffffffffffffffffffffffffffffffffffffffff16815260200190815260200160002060006101000a81548160ff0219169083600281111561008057fe5b02179055506122a2806100946000396000f30060806040526004361061011d576000357c0100000000000000000000000000000000000000000000000000000000900463ffffffff16806303ad4be31461011f578063081812fc14610164578063095ea7b3146101d157806323b872dd1461021e5780633a98ef391461028b578063430c2081146102b6578063442767331461031b5780634e6ec247146103805780634f558e79146103cd5780636161eb181461041257806363037b0c1461045f5780636352211e146104cc57806370a08231146105395780639852595c14610590578063a22cb465146105e7578063af129dc214610636578063b6a1130814610661578063ce7c2ac214610678578063e33b7de3146106cf578063e985e9c5146106fa578063f2e12a3914610775575b005b34801561012b57600080fd5b50610162600480360381019080803590602001909291908035906020019082018035906020019190919293919293905050506107c5565b005b34801561017057600080fd5b5061018f60048036038101908080359060200190929190505050610a19565b604051808273ffffffffffffffffffffffffffffffffffffffff1673ffffffffffffffffffffffffffffffffffffffff16815260200191505060405180910390f35b3480156101dd57600080fd5b5061021c600480360381019080803573ffffffffffffffffffffffffffffffffffffffff16906020019092919080359060200190929190505050610a56565b005b34801561022a57600080fd5b50610289600480360381019080803573ffffffffffffffffffffffffffffffffffffffff169060200190929190803573ffffffffffffffffffffffffffffffffffffffff16906020019092919080359060200190929190505050610c2a565b005b34801561029757600080fd5b506102a0610d41565b6040518082815260200191505060405180910390f35b3480156102c257600080fd5b50610301600480360381019080803573ffffffffffffffffffffffffffffffffffffffff16906020019092919080359060200190929190505050610d47565b604051808215151515815260200191505060405180910390f35b34801561032757600080fd5b5061035c600480360381019080803573ffffffffffffffffffffffffffffffffffffffff169060200190929190505050610ddc565b6040518082600281111561036c57fe5b60ff16815260200191505060405180910390f35b34801561038c57600080fd5b506103cb600480360381019080803573ffffffffffffffffffffffffffffffffffffffff16906020019092919080359060200190929190505050610e31565b005b3480156103d957600080fd5b506103f860048036038101908080359060200190929190505050610f26565b604051808215151515815260200191505060405180910390f35b34801561041e57600080fd5b5061045d600480360381019080803573ffffffffffffffffffffffffffffffffffffffff16906020019092919080359060200190929190505050610f98565b005b34801561046b57600080fd5b5061048a6004803603810190808035906020019092919050505061105b565b604051808273ffffffffffffffffffffffffffffffffffffffff1673ffffffffffffffffffffffffffffffffffffffff16815260200191505060405180910390f35b3480156104d857600080fd5b506104f760048036038101908080359060200190929190505050611099565b604051808273ffffffffffffffffffffffffffffffffffffffff1673ffffffffffffffffffffffffffffffffffffffff16815260200191505060405180910390f35b34801561054557600080fd5b5061057a600480360381019080803573ffffffffffffffffffffffffffffffffffffffff1690602001909291905050506110db565b6040518082815260200191505060405180910390f35b34801561059c57600080fd5b506105d1600480360381019080803573ffffffffffffffffffffffffffffffffffffffff16906020019092919050505061115f565b6040518082815260200191505060405180910390f35b3480156105f357600080fd5b50610634600480360381019080803573ffffffffffffffffffffffffffffffffffffffff169060200190929190803515159060200190929190505050611177565b005b34801561064257600080fd5b5061064b6112b3565b6040518082815260200191505060405180910390f35b34801561066d57600080fd5b506106766112b9565b005b34801561068457600080fd5b506106b9600480360381019080803573ffffffffffffffffffffffffffffffffffffffff16906020019092919050505061135f565b6040518082815260200191505060405180910390f35b3480156106db57600080fd5b506106e4611377565b6040518082815260200191505060405180910390f35b34801561070657600080fd5b5061075b600480360381019080803573ffffffffffffffffffffffffffffffffffffffff169060200190929190803573ffffffffffffffffffffffffffffffffffffffff16906020019092919050505061137d565b604051808215151515815260200191505060405180910390f35b34801561078157600080fd5b506107c3600480360381019080803560ff169060200190929190803573ffffffffffffffffffffffffffffffffffffffff169060200190929190505050611411565b005b6107cd6121b7565b60018060ff166107dc33610ddc565b60028111156107e757fe5b60ff161415156107f657600080fd5b61083184848080601f0160208091040260200160405190810160405280939291908181526020018383808284378201915050505050506114ac565b915061088b6108866108776040805190810160405280600181526020017f2e000000000000000000000000000000000000000000000000000000000000008152506114ac565b846114da90919063ffffffff16565b6114f4565b6006600087815260200190815260200160002060020190805190602001906108b49291906121d1565b5061090d6109086108f96040805190810160405280600181526020017f2e000000000000000000000000000000000000000000000000000000000000008152506114ac565b846114da90919063ffffffff16565b6114f4565b6006600087815260200190815260200160002060000190805190602001906109369291906121d1565b5061098f61098a61097b6040805190810160405280600181526020017f2e000000000000000000000000000000000000000000000000000000000000008152506114ac565b846114da90919063ffffffff16565b6114f4565b6006600087815260200190815260200160002060010190805190602001906109b89291906121d1565b507f53560fd2a0eb35afd8d535363033618f52ccbfc857a7bf616eb195a0ed022ef485858560405180848152602001806020018281038252848482818152602001925080828437820191505094505050505060405180910390a15050505050565b60006003600083815260200190815260200160002060009054906101000a900473ffffffffffffffffffffffffffffffffffffffff169050919050565b60006002600083815260200190815260200160002060009054906101000a900473ffffffffffffffffffffffffffffffffffffffff169050826003600084815260200190815260200160002060006101000a81548173ffffffffffffffffffffffffffffffffffffffff021916908373ffffffffffffffffffffffffffffffffffffffff160217905550610ae982611099565b73ffffffffffffffffffffffffffffffffffffffff168373ffffffffffffffffffffffffffffffffffffffff1614151515610b2357600080fd5b8073ffffffffffffffffffffffffffffffffffffffff163373ffffffffffffffffffffffffffffffffffffffff161480610b635750610b62813361137d565b5b1515610b6e57600080fd5b826003600084815260200190815260200160002060006101000a81548173ffffffffffffffffffffffffffffffffffffffff021916908373ffffffffffffffffffffffffffffffffffffffff1602179055508273ffffffffffffffffffffffffffffffffffffffff168173ffffffffffffffffffffffffffffffffffffffff167f8c5be1e5ebec7d5bd14f71427d1e84f3dd0314c0f7b2291e5b200ac8c7c3b925846040518082815260200191505060405180910390a3505050565b80610c353382610d47565b1515610c4057600080fd5b600073ffffffffffffffffffffffffffffffffffffffff168473ffffffffffffffffffffffffffffffffffffffff1614151515610c7c57600080fd5b600073ffffffffffffffffffffffffffffffffffffffff168373ffffffffffffffffffffffffffffffffffffffff1614151515610cb857600080fd5b610cc28483611556565b610ccc84836116bf565b610cd683836117ee565b8273ffffffffffffffffffffffffffffffffffffffff168473ffffffffffffffffffffffffffffffffffffffff167fddf252ad1be2c89b69c2b068fc378daa952ba7f163c4a11628f55a4df523b3ef846040518082815260200191505060405180910390a350505050565b60075481565b600080610d5383611099565b90508073ffffffffffffffffffffffffffffffffffffffff168473ffffffffffffffffffffffffffffffffffffffff161480610dc257508373ffffffffffffffffffffffffffffffffffffffff16610daa84610a19565b73ffffffffffffffffffffffffffffffffffffffff16145b80610dd35750610dd2818561137d565b5b91505092915050565b60008060008373ffffffffffffffffffffffffffffffffffffffff1673ffffffffffffffffffffffffffffffffffffffff16815260200190815260200160002060009054906101000a900460ff169050919050565b60028060ff16610e4033610ddc565b6002811115610e4b57fe5b60ff16141515610e5a57600080fd5b600073ffffffffffffffffffffffffffffffffffffffff168373ffffffffffffffffffffffffffffffffffffffff1614151515610e9657600080fd5b610ea083836117ee565b610eb56001805461194890919063ffffffff16565b6001819055508273ffffffffffffffffffffffffffffffffffffffff16600073ffffffffffffffffffffffffffffffffffffffff167fddf252ad1be2c89b69c2b068fc378daa952ba7f163c4a11628f55a4df523b3ef846040518082815260200191505060405180910390a3505050565b6000806002600084815260200190815260200160002060009054906101000a900473ffffffffffffffffffffffffffffffffffffffff169050600073ffffffffffffffffffffffffffffffffffffffff168173ffffffffffffffffffffffffffffffffffffffff161415915050919050565b60028060ff16610fa733610ddc565b6002811115610fb257fe5b60ff16141515610fc157600080fd5b610fcb8383611556565b610fd583836116bf565b610fea6001805461196690919063ffffffff16565b600181905550600073ffffffffffffffffffffffffffffffffffffffff168373ffffffffffffffffffffffffffffffffffffffff167fddf252ad1be2c89b69c2b068fc378daa952ba7f163c4a11628f55a4df523b3ef846040518082815260200191505060405180910390a3505050565b600b8181548110151561106a57fe5b906000526020600020016000915054906101000a900473ffffffffffffffffffffffffffffffffffffffff1681565b6000806002600084815260200190815260200160002060009054906101000a900473ffffffffffffffffffffffffffffffffffffffff16905080915050919050565b60008073ffffffffffffffffffffffffffffffffffffffff168273ffffffffffffffffffffffffffffffffffffffff161415151561111857600080fd5b600460008373ffffffffffffffffffffffffffffffffffffffff1673ffffffffffffffffffffffffffffffffffffffff168152602001908152602001600020549050919050565b600a6020528060005260406000206000915090505481565b3373ffffffffffffffffffffffffffffffffffffffff168273ffffffffffffffffffffffffffffffffffffffff16141515156111b257600080fd5b80600560003373ffffffffffffffffffffffffffffffffffffffff1673ffffffffffffffffffffffffffffffffffffffff16815260200190815260200160002060008473ffffffffffffffffffffffffffffffffffffffff1673ffffffffffffffffffffffffffffffffffffffff16815260200190815260200160002060006101000a81548160ff0219169083151502179055508173ffffffffffffffffffffffffffffffffffffffff163373ffffffffffffffffffffffffffffffffffffffff167f17307eab39ab6107e8899845ad3d59bd9653f200f220920489ca2b5937696c3183604051808215151515815260200191505060405180910390a35050565b60015481565b60008060018060ff166112cb33610ddc565b60028111156112d657fe5b60ff161415156112e557600080fd5b6112ed61197f565b600092505b600b8054905083101561135257600b8381548110151561130e57fe5b9060005260206000200160009054906101000a900473ffffffffffffffffffffffffffffffffffffffff16915061134482611ad3565b5082806001019350506112f2565b61135a611d46565b505050565b60096020528060005260406000206000915090505481565b60085481565b6000600560008473ffffffffffffffffffffffffffffffffffffffff1673ffffffffffffffffffffffffffffffffffffffff16815260200190815260200160002060008373ffffffffffffffffffffffffffffffffffffffff1673ffffffffffffffffffffffffffffffffffffffff16815260200190815260200160002060009054906101000a900460ff16905092915050565b60028060ff1661142033610ddc565b600281111561142b57fe5b60ff1614151561143a57600080fd5b8260ff16600281111561144957fe5b6000808473ffffffffffffffffffffffffffffffffffffffff1673ffffffffffffffffffffffffffffffffffffffff16815260200190815260200160002060006101000a81548160ff021916908360028111156114a257fe5b0217905550505050565b6114b46121b7565b600060208301905060408051908101604052808451815260200182815250915050919050565b6114e26121b7565b6114ed838383611d5c565b5092915050565b606080600083600001516040519080825280601f01601f1916602001820160405280156115305781602001602082028038833980820191505090505b50915060208201905061154c8185602001518660000151611dfa565b8192505050919050565b8173ffffffffffffffffffffffffffffffffffffffff1661157682611099565b73ffffffffffffffffffffffffffffffffffffffff1614151561159857600080fd5b600073ffffffffffffffffffffffffffffffffffffffff166003600083815260200190815260200160002060009054906101000a900473ffffffffffffffffffffffffffffffffffffffff1673ffffffffffffffffffffffffffffffffffffffff161415156116bb5760006003600083815260200190815260200160002060006101000a81548173ffffffffffffffffffffffffffffffffffffffff021916908373ffffffffffffffffffffffffffffffffffffffff160217905550600073ffffffffffffffffffffffffffffffffffffffff168273ffffffffffffffffffffffffffffffffffffffff167f8c5be1e5ebec7d5bd14f71427d1e84f3dd0314c0f7b2291e5b200ac8c7c3b925836040518082815260200191505060405180910390a35b5050565b8173ffffffffffffffffffffffffffffffffffffffff166116df82611099565b73ffffffffffffffffffffffffffffffffffffffff1614151561170157600080fd5b6117546001600460008573ffffffffffffffffffffffffffffffffffffffff1673ffffffffffffffffffffffffffffffffffffffff1681526020019081526020016000205461196690919063ffffffff16565b600460008473ffffffffffffffffffffffffffffffffffffffff1673ffffffffffffffffffffffffffffffffffffffff1681526020019081526020016000208190555060006002600083815260200190815260200160002060006101000a81548173ffffffffffffffffffffffffffffffffffffffff021916908373ffffffffffffffffffffffffffffffffffffffff1602179055505050565b600073ffffffffffffffffffffffffffffffffffffffff166002600083815260200190815260200160002060009054906101000a900473ffffffffffffffffffffffffffffffffffffffff1673ffffffffffffffffffffffffffffffffffffffff1614151561185c57600080fd5b816002600083815260200190815260200160002060006101000a81548173ffffffffffffffffffffffffffffffffffffffff021916908373ffffffffffffffffffffffffffffffffffffffff1602179055506119016001600460008573ffffffffffffffffffffffffffffffffffffffff1673ffffffffffffffffffffffffffffffffffffffff1681526020019081526020016000205461194890919063ffffffff16565b600460008473ffffffffffffffffffffffffffffffffffffffff1673ffffffffffffffffffffffffffffffffffffffff168152602001908152602001600020819055505050565b600080828401905083811015151561195c57fe5b8091505092915050565b600082821115151561197457fe5b818303905092915050565b60005b6065811015611ad05760011515611a7c600660008481526020019081526020016000206001018054600181600116156101000203166002900480601f016020809104026020016040519081016040528092919081815260200182805460018160011615610100020316600290048015611a3c5780601f10611a1157610100808354040283529160200191611a3c565b820191906000526020600020905b815481529060010190602001808311611a1f57829003601f168201915b50505050506040805190810160405280600181526020017f3100000000000000000000000000000000000000000000000000000000000000815250611e45565b15151415611ac357611ac26002600083815260200190815260200160002060009054906101000a900473ffffffffffffffffffffffffffffffffffffffff166001611f1e565b5b8080600101915050611982565b50565b6000806000808492506000600960008573ffffffffffffffffffffffffffffffffffffffff1673ffffffffffffffffffffffffffffffffffffffff16815260200190815260200160002054111515611b2a57600080fd5b611b566008543073ffffffffffffffffffffffffffffffffffffffff163161194890919063ffffffff16565b9150611c0f600a60008573ffffffffffffffffffffffffffffffffffffffff1673ffffffffffffffffffffffffffffffffffffffff16815260200190815260200160002054611c01600754611bf3600960008973ffffffffffffffffffffffffffffffffffffffff1673ffffffffffffffffffffffffffffffffffffffff168152602001908152602001600020548761207b90919063ffffffff16565b6120b690919063ffffffff16565b61196690919063ffffffff16565b905060008114151515611c2157600080fd5b803073ffffffffffffffffffffffffffffffffffffffff163110151515611c4757600080fd5b611c9981600a60008673ffffffffffffffffffffffffffffffffffffffff1673ffffffffffffffffffffffffffffffffffffffff1681526020019081526020016000205461194890919063ffffffff16565b600a60008573ffffffffffffffffffffffffffffffffffffffff1673ffffffffffffffffffffffffffffffffffffffff16815260200190815260200160002081905550611cf18160085461194890919063ffffffff16565b6008819055508273ffffffffffffffffffffffffffffffffffffffff166108fc829081150290604051600060405180830381858888f19350505050158015611d3d573d6000803e3d6000fd5b50505050919050565b60006007541015611d5a5760006007819055505b565b611d646121b7565b6000611d8285600001518660200151866000015187602001516120d1565b90508460200151836020018181525050846020015181038360000181815250508460000151856020015101811415611dc4576000856000018181525050611def565b8360000151836000015101856000018181510391508181525050836000015181018560200181815250505b829150509392505050565b60005b602082101515611e225782518452602084019350602083019250602082039150611dfd565b6001826020036101000a0390508019835116818551168181178652505050505050565b6000816040518082805190602001908083835b602083101515611e7d5780518252602082019150602081019050602083039250611e58565b6001836020036101000a038019825116818451168082178552505050505050905001915050604051809103902060001916836040518082805190602001908083835b602083101515611ee45780518252602082019150602081019050602083039250611ebf565b6001836020036101000a03801982511681845116808217855250505050505090500191505060405180910390206000191614905092915050565b600073ffffffffffffffffffffffffffffffffffffffff168273ffffffffffffffffffffffffffffffffffffffff1614151561207757600081111515611f6357600080fd5b6000600960008473ffffffffffffffffffffffffffffffffffffffff1673ffffffffffffffffffffffffffffffffffffffff16815260200190815260200160002054141515611fb157600080fd5b600b8290806001815401808255809150509060018203906000526020600020016000909192909190916101000a81548173ffffffffffffffffffffffffffffffffffffffff021916908373ffffffffffffffffffffffffffffffffffffffff1602179055505080600960008473ffffffffffffffffffffffffffffffffffffffff1673ffffffffffffffffffffffffffffffffffffffff168152602001908152602001600020819055506120708160075461194890919063ffffffff16565b6007819055505b5050565b600080600084141561209057600091506120af565b82840290508284828115156120a157fe5b041415156120ab57fe5b8091505b5092915050565b60008082848115156120c457fe5b0490508091505092915050565b60008060008060008060008060008b97508c8b1115156121a15760208b11151561215b5760018b60200360080260020a03196001029550858a511694508a8d8d010393508588511692505b84600019168360001916141515612153578388101515612140578c8c0198506121a7565b878060010198505085885116925061211c565b8798506121a7565b8a8a209150600096505b8a8d03871115156121a0578a8820905080600019168260001916141561218d578798506121a7565b6001880197508680600101975050612165565b5b8c8c0198505b5050505050505050949350505050565b604080519081016040528060008152602001600081525090565b828054600181600116156101000203166002900490600052602060002090601f016020900481019282601f1061221257805160ff1916838001178555612240565b82800160010185558215612240579182015b8281111561223f578251825591602001919060010190612224565b5b50905061224d9190612251565b5090565b61227391905b8082111561226f576000816000905550600101612257565b5090565b905600a165627a7a7230582065b68c7ae0539058438900ce60eb26c3593c73290e73921f16fc31bc97fd9a6d0029",
  "source": "pragma solidity ^0.4.23;\nimport './update.sol';\nimport './SafeMath.sol';\n\n/// @dev altered version of Open Zepplin's 'SplitPayment' contract\n\ncontract bloomingPool is update {\n\n    using SafeMath for uint256;\n\n    uint256 public totalShares = 0;\n    uint256 public totalReleased = 0;\n\n    mapping(address => uint256) public shares;\n    mapping(address => uint256) public released;\n    address[] public payees;\n\n\tconstructor() public {}\n\n\tfunction() public payable { } // fallback function for payment acceptance\n\n    function addPayee(address _payee, uint256 _shares) internal {\n\t\tif (_payee != address(0)) {\n\t\t\trequire(_shares > 0);\n\t        require(shares[_payee] == 0);\n\n\t        payees.push(_payee);\n\t        shares[_payee] = _shares;\n\t        totalShares = totalShares.add(_shares);\n\t\t}\n    }\n\n\tfunction oracle_call() external check(1){\n\t\tcheck_blooming();\n\t\tfor (uint i=0;i<payees.length;i++){\n\t\t\taddress to = payees[i];\n\t\t\tpayout(to);\n\t\t}\n\t\treset_shares();\n\t\t}\n\n\tfunction check_blooming() internal {\n\t\tfor(uint i;i<101;i++) {\n\t\t\tif (compareStrings(TokenId[i].blooming, \"1\") == true) {\n\t\t\t\taddPayee(tokenOwner[i],1);\n\t\t\t}\n\t\t}\n\t}\n\n\tfunction payout(address to) internal returns(bool){\n\t\taddress payee = to;\n\t\trequire(shares[payee] > 0);\n\n        uint256 totalReceived = address(this).balance.add(totalReleased);\n        uint256 payment = totalReceived.mul(shares[payee]).div(totalShares).sub(released[payee]);\n\n        require(payment != 0);\n        require(address(this).balance >= payment);\n\n        released[payee] = released[payee].add(payment);\n        totalReleased = totalReleased.add(payment);\n\n        payee.transfer(payment);\n\t}\n\n\tfunction reset_shares() internal {\n\t\tif (totalShares < 0){\n\t\t\ttotalShares = 0;\n\t\t}\n\t}\n\n\tfunction compareStrings (string a, string b) internal returns(bool){\n        return keccak256(a) == keccak256(b);\n    }\n\n}\n",
  "sourcePath": "/Users/mfahampshire/terra0/source/ERC721/contracts/bloomingPool.sol",
  "compiler": {
    "name": "solc",
    "version": "0.4.23+commit.124ca40d.Emscripten.clang"
  },
  "schemaVersion": "2.0.0",
  "updatedAt": "2018-06-07T10:21:37.043Z"
}