{
  "contractName": "bloomingPool",
  "abi": [
    {
      "constant": true,
      "inputs": [
        {
          "name": "_tokenId",
          "type": "uint256"
        }
      ],
      "name": "getApproved",
      "outputs": [
        {
          "name": "",
          "type": "address"
        }
      ],
      "payable": false,
      "stateMutability": "view",
      "type": "function"
    },
    {
      "constant": false,
      "inputs": [
        {
          "name": "_to",
          "type": "address"
        },
        {
          "name": "_tokenId",
          "type": "uint256"
        }
      ],
      "name": "approve",
      "outputs": [],
      "payable": false,
      "stateMutability": "nonpayable",
      "type": "function"
    },
    {
      "constant": false,
      "inputs": [
        {
          "name": "_from",
          "type": "address"
        },
        {
          "name": "_to",
          "type": "address"
        },
        {
          "name": "_tokenId",
          "type": "uint256"
        }
      ],
      "name": "transferFrom",
      "outputs": [],
      "payable": false,
      "stateMutability": "nonpayable",
      "type": "function"
    },
    {
      "constant": true,
      "inputs": [],
      "name": "totalShares",
      "outputs": [
        {
          "name": "",
          "type": "uint256"
        }
      ],
      "payable": false,
      "stateMutability": "view",
      "type": "function"
    },
    {
      "constant": true,
      "inputs": [
        {
          "name": "entity",
          "type": "address"
        }
      ],
      "name": "getRole",
      "outputs": [
        {
          "name": "",
          "type": "uint8"
        }
      ],
      "payable": false,
      "stateMutability": "view",
      "type": "function"
    },
    {
      "constant": false,
      "inputs": [
        {
          "name": "_to",
          "type": "address"
        },
        {
          "name": "_tokenId",
          "type": "uint256"
        }
      ],
      "name": "_mint",
      "outputs": [],
      "payable": false,
      "stateMutability": "nonpayable",
      "type": "function"
    },
    {
      "constant": true,
      "inputs": [
        {
          "name": "_tokenId",
          "type": "uint256"
        }
      ],
      "name": "exists",
      "outputs": [
        {
          "name": "",
          "type": "bool"
        }
      ],
      "payable": false,
      "stateMutability": "view",
      "type": "function"
    },
    {
      "constant": false,
      "inputs": [
        {
          "name": "_owner",
          "type": "address"
        },
        {
          "name": "_tokenId",
          "type": "uint256"
        }
      ],
      "name": "_burn",
      "outputs": [],
      "payable": false,
      "stateMutability": "nonpayable",
      "type": "function"
    },
    {
      "constant": true,
      "inputs": [
        {
          "name": "",
          "type": "uint256"
        }
      ],
      "name": "payees",
      "outputs": [
        {
          "name": "",
          "type": "address"
        }
      ],
      "payable": false,
      "stateMutability": "view",
      "type": "function"
    },
    {
      "constant": true,
      "inputs": [
        {
          "name": "_tokenId",
          "type": "uint256"
        }
      ],
      "name": "ownerOf",
      "outputs": [
        {
          "name": "",
          "type": "address"
        }
      ],
      "payable": false,
      "stateMutability": "view",
      "type": "function"
    },
    {
      "constant": true,
      "inputs": [
        {
          "name": "_owner",
          "type": "address"
        }
      ],
      "name": "balanceOf",
      "outputs": [
        {
          "name": "",
          "type": "uint256"
        }
      ],
      "payable": false,
      "stateMutability": "view",
      "type": "function"
    },
    {
      "constant": true,
      "inputs": [
        {
          "name": "",
          "type": "address"
        }
      ],
      "name": "released",
      "outputs": [
        {
          "name": "",
          "type": "uint256"
        }
      ],
      "payable": false,
      "stateMutability": "view",
      "type": "function"
    },
    {
      "constant": false,
      "inputs": [
        {
          "name": "_to",
          "type": "address"
        },
        {
          "name": "_approved",
          "type": "bool"
        }
      ],
      "name": "setApprovalForAll",
      "outputs": [],
      "payable": false,
      "stateMutability": "nonpayable",
      "type": "function"
    },
    {
      "constant": true,
      "inputs": [],
      "name": "numTokensTotal",
      "outputs": [
        {
          "name": "",
          "type": "uint256"
        }
      ],
      "payable": false,
      "stateMutability": "view",
      "type": "function"
    },
    {
      "constant": true,
      "inputs": [
        {
          "name": "",
          "type": "address"
        }
      ],
      "name": "shares",
      "outputs": [
        {
          "name": "",
          "type": "uint256"
        }
      ],
      "payable": false,
      "stateMutability": "view",
      "type": "function"
    },
    {
      "constant": true,
      "inputs": [],
      "name": "totalReleased",
      "outputs": [
        {
          "name": "",
          "type": "uint256"
        }
      ],
      "payable": false,
      "stateMutability": "view",
      "type": "function"
    },
    {
      "constant": true,
      "inputs": [
        {
          "name": "_owner",
          "type": "address"
        },
        {
          "name": "_operator",
          "type": "address"
        }
      ],
      "name": "isApprovedForAll",
      "outputs": [
        {
          "name": "",
          "type": "bool"
        }
      ],
      "payable": false,
      "stateMutability": "view",
      "type": "function"
    },
    {
      "constant": false,
      "inputs": [
        {
          "name": "rolevalue",
          "type": "uint8"
        },
        {
          "name": "entity",
          "type": "address"
        }
      ],
      "name": "setRole",
      "outputs": [],
      "payable": false,
      "stateMutability": "nonpayable",
      "type": "function"
    },
    {
      "inputs": [
        {
          "name": "_payees",
          "type": "address[]"
        },
        {
          "name": "_shares",
          "type": "uint256[]"
        }
      ],
      "payable": true,
      "stateMutability": "payable",
      "type": "constructor"
    },
    {
      "anonymous": false,
      "inputs": [
        {
          "indexed": true,
          "name": "_from",
          "type": "address"
        },
        {
          "indexed": true,
          "name": "_to",
          "type": "address"
        },
        {
          "indexed": false,
          "name": "_tokenId",
          "type": "uint256"
        }
      ],
      "name": "Transfer",
      "type": "event"
    },
    {
      "anonymous": false,
      "inputs": [
        {
          "indexed": true,
          "name": "_owner",
          "type": "address"
        },
        {
          "indexed": true,
          "name": "_approved",
          "type": "address"
        },
        {
          "indexed": false,
          "name": "_tokenId",
          "type": "uint256"
        }
      ],
      "name": "Approval",
      "type": "event"
    },
    {
      "anonymous": false,
      "inputs": [
        {
          "indexed": true,
          "name": "_owner",
          "type": "address"
        },
        {
          "indexed": true,
          "name": "_operator",
          "type": "address"
        },
        {
          "indexed": false,
          "name": "_approved",
          "type": "bool"
        }
      ],
      "name": "ApprovalForAll",
      "type": "event"
    },
    {
      "constant": false,
      "inputs": [],
      "name": "oracle_call",
      "outputs": [],
      "payable": false,
      "stateMutability": "nonpayable",
      "type": "function"
    }
  ],
  "bytecode": "0x60806040526000600755600060085560405162001f5c38038062001f5c833981018060405281019080805182019291906020018051820192919050505060006002808111156200004b57fe5b6000803373ffffffffffffffffffffffffffffffffffffffff1673ffffffffffffffffffffffffffffffffffffffff16815260200190815260200160002060006101000a81548160ff02191690836002811115620000a557fe5b021790555081518351141515620000bb57600080fd5b600090505b82518110156200012357620001158382815181101515620000dd57fe5b906020019060200201518383815181101515620000f657fe5b906020019060200201516200012c640100000000026401000000009004565b8080600101915050620000c0565b505050620002c0565b600073ffffffffffffffffffffffffffffffffffffffff168273ffffffffffffffffffffffffffffffffffffffff16141515156200016957600080fd5b6000811115156200017957600080fd5b6000600960008473ffffffffffffffffffffffffffffffffffffffff1673ffffffffffffffffffffffffffffffffffffffff16815260200190815260200160002054141515620001c857600080fd5b600b8290806001815401808255809150509060018203906000526020600020016000909192909190916101000a81548173ffffffffffffffffffffffffffffffffffffffff021916908373ffffffffffffffffffffffffffffffffffffffff1602179055505080600960008473ffffffffffffffffffffffffffffffffffffffff1673ffffffffffffffffffffffffffffffffffffffff168152602001908152602001600020819055506200029781600754620002a164010000000002620015bb179091906401000000009004565b6007819055505050565b6000808284019050838110151515620002b657fe5b8091505092915050565b611c8c80620002d06000396000f300608060405260043610610107576000357c0100000000000000000000000000000000000000000000000000000000900463ffffffff168063081812fc1461010c578063095ea7b31461017957806323b872dd146101c65780633a98ef3914610233578063442767331461025e5780634e6ec247146102c35780634f558e79146103105780636161eb181461035557806363037b0c146103a25780636352211e1461040f57806370a082311461047c5780639852595c146104d3578063a22cb4651461052a578063af129dc214610579578063b6a11308146105a4578063ce7c2ac2146105bb578063e33b7de314610612578063e985e9c51461063d578063f2e12a39146106b8575b600080fd5b34801561011857600080fd5b5061013760048036038101908080359060200190929190505050610708565b604051808273ffffffffffffffffffffffffffffffffffffffff1673ffffffffffffffffffffffffffffffffffffffff16815260200191505060405180910390f35b34801561018557600080fd5b506101c4600480360381019080803573ffffffffffffffffffffffffffffffffffffffff16906020019092919080359060200190929190505050610745565b005b3480156101d257600080fd5b50610231600480360381019080803573ffffffffffffffffffffffffffffffffffffffff169060200190929190803573ffffffffffffffffffffffffffffffffffffffff1690602001909291908035906020019092919050505061090b565b005b34801561023f57600080fd5b50610248610a22565b6040518082815260200191505060405180910390f35b34801561026a57600080fd5b5061029f600480360381019080803573ffffffffffffffffffffffffffffffffffffffff169060200190929190505050610a28565b604051808260028111156102af57fe5b60ff16815260200191505060405180910390f35b3480156102cf57600080fd5b5061030e600480360381019080803573ffffffffffffffffffffffffffffffffffffffff16906020019092919080359060200190929190505050610a7d565b005b34801561031c57600080fd5b5061033b60048036038101908080359060200190929190505050610b72565b604051808215151515815260200191505060405180910390f35b34801561036157600080fd5b506103a0600480360381019080803573ffffffffffffffffffffffffffffffffffffffff16906020019092919080359060200190929190505050610be4565b005b3480156103ae57600080fd5b506103cd60048036038101908080359060200190929190505050610ca7565b604051808273ffffffffffffffffffffffffffffffffffffffff1673ffffffffffffffffffffffffffffffffffffffff16815260200191505060405180910390f35b34801561041b57600080fd5b5061043a60048036038101908080359060200190929190505050610ce5565b604051808273ffffffffffffffffffffffffffffffffffffffff1673ffffffffffffffffffffffffffffffffffffffff16815260200191505060405180910390f35b34801561048857600080fd5b506104bd600480360381019080803573ffffffffffffffffffffffffffffffffffffffff169060200190929190505050610d63565b6040518082815260200191505060405180910390f35b3480156104df57600080fd5b50610514600480360381019080803573ffffffffffffffffffffffffffffffffffffffff169060200190929190505050610de7565b6040518082815260200191505060405180910390f35b34801561053657600080fd5b50610577600480360381019080803573ffffffffffffffffffffffffffffffffffffffff169060200190929190803515159060200190929190505050610dff565b005b34801561058557600080fd5b5061058e610f3b565b6040518082815260200191505060405180910390f35b3480156105b057600080fd5b506105b9610f41565b005b3480156105c757600080fd5b506105fc600480360381019080803573ffffffffffffffffffffffffffffffffffffffff169060200190929190505050610fe7565b6040518082815260200191505060405180910390f35b34801561061e57600080fd5b50610627610fff565b6040518082815260200191505060405180910390f35b34801561064957600080fd5b5061069e600480360381019080803573ffffffffffffffffffffffffffffffffffffffff169060200190929190803573ffffffffffffffffffffffffffffffffffffffff169060200190929190505050611005565b604051808215151515815260200191505060405180910390f35b3480156106c457600080fd5b50610706600480360381019080803560ff169060200190929190803573ffffffffffffffffffffffffffffffffffffffff169060200190929190505050611099565b005b60006003600083815260200190815260200160002060009054906101000a900473ffffffffffffffffffffffffffffffffffffffff169050919050565b600061075082610ce5565b90508073ffffffffffffffffffffffffffffffffffffffff168373ffffffffffffffffffffffffffffffffffffffff161415151561078d57600080fd5b8073ffffffffffffffffffffffffffffffffffffffff163373ffffffffffffffffffffffffffffffffffffffff1614806107cd57506107cc8133611005565b5b15156107d857600080fd5b600073ffffffffffffffffffffffffffffffffffffffff166107f983610708565b73ffffffffffffffffffffffffffffffffffffffff161415806108495750600073ffffffffffffffffffffffffffffffffffffffff168373ffffffffffffffffffffffffffffffffffffffff1614155b1561090657826003600084815260200190815260200160002060006101000a81548173ffffffffffffffffffffffffffffffffffffffff021916908373ffffffffffffffffffffffffffffffffffffffff1602179055508273ffffffffffffffffffffffffffffffffffffffff168173ffffffffffffffffffffffffffffffffffffffff167f8c5be1e5ebec7d5bd14f71427d1e84f3dd0314c0f7b2291e5b200ac8c7c3b925846040518082815260200191505060405180910390a35b505050565b806109163382611134565b151561092157600080fd5b600073ffffffffffffffffffffffffffffffffffffffff168473ffffffffffffffffffffffffffffffffffffffff161415151561095d57600080fd5b600073ffffffffffffffffffffffffffffffffffffffff168373ffffffffffffffffffffffffffffffffffffffff161415151561099957600080fd5b6109a384836111c9565b6109ad8483611332565b6109b78383611461565b8273ffffffffffffffffffffffffffffffffffffffff168473ffffffffffffffffffffffffffffffffffffffff167fddf252ad1be2c89b69c2b068fc378daa952ba7f163c4a11628f55a4df523b3ef846040518082815260200191505060405180910390a350505050565b60075481565b60008060008373ffffffffffffffffffffffffffffffffffffffff1673ffffffffffffffffffffffffffffffffffffffff16815260200190815260200160002060009054906101000a900460ff169050919050565b60028060ff16610a8c33610a28565b6002811115610a9757fe5b60ff16141515610aa657600080fd5b600073ffffffffffffffffffffffffffffffffffffffff168373ffffffffffffffffffffffffffffffffffffffff1614151515610ae257600080fd5b610aec8383611461565b610b01600180546115bb90919063ffffffff16565b6001819055508273ffffffffffffffffffffffffffffffffffffffff16600073ffffffffffffffffffffffffffffffffffffffff167fddf252ad1be2c89b69c2b068fc378daa952ba7f163c4a11628f55a4df523b3ef846040518082815260200191505060405180910390a3505050565b6000806002600084815260200190815260200160002060009054906101000a900473ffffffffffffffffffffffffffffffffffffffff169050600073ffffffffffffffffffffffffffffffffffffffff168173ffffffffffffffffffffffffffffffffffffffff161415915050919050565b60028060ff16610bf333610a28565b6002811115610bfe57fe5b60ff16141515610c0d57600080fd5b610c1783836111c9565b610c218383611332565b610c36600180546115d990919063ffffffff16565b600181905550600073ffffffffffffffffffffffffffffffffffffffff168373ffffffffffffffffffffffffffffffffffffffff167fddf252ad1be2c89b69c2b068fc378daa952ba7f163c4a11628f55a4df523b3ef846040518082815260200191505060405180910390a3505050565b600b81815481101515610cb657fe5b906000526020600020016000915054906101000a900473ffffffffffffffffffffffffffffffffffffffff1681565b6000806002600084815260200190815260200160002060009054906101000a900473ffffffffffffffffffffffffffffffffffffffff169050600073ffffffffffffffffffffffffffffffffffffffff168173ffffffffffffffffffffffffffffffffffffffff1614151515610d5a57600080fd5b80915050919050565b60008073ffffffffffffffffffffffffffffffffffffffff168273ffffffffffffffffffffffffffffffffffffffff1614151515610da057600080fd5b600460008373ffffffffffffffffffffffffffffffffffffffff1673ffffffffffffffffffffffffffffffffffffffff168152602001908152602001600020549050919050565b600a6020528060005260406000206000915090505481565b3373ffffffffffffffffffffffffffffffffffffffff168273ffffffffffffffffffffffffffffffffffffffff1614151515610e3a57600080fd5b80600560003373ffffffffffffffffffffffffffffffffffffffff1673ffffffffffffffffffffffffffffffffffffffff16815260200190815260200160002060008473ffffffffffffffffffffffffffffffffffffffff1673ffffffffffffffffffffffffffffffffffffffff16815260200190815260200160002060006101000a81548160ff0219169083151502179055508173ffffffffffffffffffffffffffffffffffffffff163373ffffffffffffffffffffffffffffffffffffffff167f17307eab39ab6107e8899845ad3d59bd9653f200f220920489ca2b5937696c3183604051808215151515815260200191505060405180910390a35050565b60015481565b60008060018060ff16610f5333610a28565b6002811115610f5e57fe5b60ff16141515610f6d57600080fd5b610f756115f2565b600092505b600b80549050831015610fda57600b83815481101515610f9657fe5b9060005260206000200160009054906101000a900473ffffffffffffffffffffffffffffffffffffffff169150610fcc82611746565b508280600101935050610f7a565b610fe26119b9565b505050565b60096020528060005260406000206000915090505481565b60085481565b6000600560008473ffffffffffffffffffffffffffffffffffffffff1673ffffffffffffffffffffffffffffffffffffffff16815260200190815260200160002060008373ffffffffffffffffffffffffffffffffffffffff1673ffffffffffffffffffffffffffffffffffffffff16815260200190815260200160002060009054906101000a900460ff16905092915050565b60028060ff166110a833610a28565b60028111156110b357fe5b60ff161415156110c257600080fd5b8260ff1660028111156110d157fe5b6000808473ffffffffffffffffffffffffffffffffffffffff1673ffffffffffffffffffffffffffffffffffffffff16815260200190815260200160002060006101000a81548160ff0219169083600281111561112a57fe5b0217905550505050565b60008061114083610ce5565b90508073ffffffffffffffffffffffffffffffffffffffff168473ffffffffffffffffffffffffffffffffffffffff1614806111af57508373ffffffffffffffffffffffffffffffffffffffff1661119784610708565b73ffffffffffffffffffffffffffffffffffffffff16145b806111c057506111bf8185611005565b5b91505092915050565b8173ffffffffffffffffffffffffffffffffffffffff166111e982610ce5565b73ffffffffffffffffffffffffffffffffffffffff1614151561120b57600080fd5b600073ffffffffffffffffffffffffffffffffffffffff166003600083815260200190815260200160002060009054906101000a900473ffffffffffffffffffffffffffffffffffffffff1673ffffffffffffffffffffffffffffffffffffffff1614151561132e5760006003600083815260200190815260200160002060006101000a81548173ffffffffffffffffffffffffffffffffffffffff021916908373ffffffffffffffffffffffffffffffffffffffff160217905550600073ffffffffffffffffffffffffffffffffffffffff168273ffffffffffffffffffffffffffffffffffffffff167f8c5be1e5ebec7d5bd14f71427d1e84f3dd0314c0f7b2291e5b200ac8c7c3b925836040518082815260200191505060405180910390a35b5050565b8173ffffffffffffffffffffffffffffffffffffffff1661135282610ce5565b73ffffffffffffffffffffffffffffffffffffffff1614151561137457600080fd5b6113c76001600460008573ffffffffffffffffffffffffffffffffffffffff1673ffffffffffffffffffffffffffffffffffffffff168152602001908152602001600020546115d990919063ffffffff16565b600460008473ffffffffffffffffffffffffffffffffffffffff1673ffffffffffffffffffffffffffffffffffffffff1681526020019081526020016000208190555060006002600083815260200190815260200160002060006101000a81548173ffffffffffffffffffffffffffffffffffffffff021916908373ffffffffffffffffffffffffffffffffffffffff1602179055505050565b600073ffffffffffffffffffffffffffffffffffffffff166002600083815260200190815260200160002060009054906101000a900473ffffffffffffffffffffffffffffffffffffffff1673ffffffffffffffffffffffffffffffffffffffff161415156114cf57600080fd5b816002600083815260200190815260200160002060006101000a81548173ffffffffffffffffffffffffffffffffffffffff021916908373ffffffffffffffffffffffffffffffffffffffff1602179055506115746001600460008573ffffffffffffffffffffffffffffffffffffffff1673ffffffffffffffffffffffffffffffffffffffff168152602001908152602001600020546115bb90919063ffffffff16565b600460008473ffffffffffffffffffffffffffffffffffffffff1673ffffffffffffffffffffffffffffffffffffffff168152602001908152602001600020819055505050565b60008082840190508381101515156115cf57fe5b8091505092915050565b60008282111515156115e757fe5b818303905092915050565b60005b606581101561174357600115156116ef600660008481526020019081526020016000206001018054600181600116156101000203166002900480601f0160208091040260200160405190810160405280929190818152602001828054600181600116156101000203166002900480156116af5780601f10611684576101008083540402835291602001916116af565b820191906000526020600020905b81548152906001019060200180831161169257829003601f168201915b50505050506040805190810160405280600181526020017f31000000000000000000000000000000000000000000000000000000000000008152506119cf565b15151415611736576117356002600083815260200190815260200160002060009054906101000a900473ffffffffffffffffffffffffffffffffffffffff166001611aa8565b5b80806001019150506115f5565b50565b6000806000808492506000600960008573ffffffffffffffffffffffffffffffffffffffff1673ffffffffffffffffffffffffffffffffffffffff1681526020019081526020016000205411151561179d57600080fd5b6117c96008543073ffffffffffffffffffffffffffffffffffffffff16316115bb90919063ffffffff16565b9150611882600a60008573ffffffffffffffffffffffffffffffffffffffff1673ffffffffffffffffffffffffffffffffffffffff16815260200190815260200160002054611874600754611866600960008973ffffffffffffffffffffffffffffffffffffffff1673ffffffffffffffffffffffffffffffffffffffff1681526020019081526020016000205487611c0a90919063ffffffff16565b611c4590919063ffffffff16565b6115d990919063ffffffff16565b90506000811415151561189457600080fd5b803073ffffffffffffffffffffffffffffffffffffffff1631101515156118ba57600080fd5b61190c81600a60008673ffffffffffffffffffffffffffffffffffffffff1673ffffffffffffffffffffffffffffffffffffffff168152602001908152602001600020546115bb90919063ffffffff16565b600a60008573ffffffffffffffffffffffffffffffffffffffff1673ffffffffffffffffffffffffffffffffffffffff16815260200190815260200160002081905550611964816008546115bb90919063ffffffff16565b6008819055508273ffffffffffffffffffffffffffffffffffffffff166108fc829081150290604051600060405180830381858888f193505050501580156119b0573d6000803e3d6000fd5b50505050919050565b600060075410156119cd5760006007819055505b565b6000816040518082805190602001908083835b602083101515611a0757805182526020820191506020810190506020830392506119e2565b6001836020036101000a038019825116818451168082178552505050505050905001915050604051809103902060001916836040518082805190602001908083835b602083101515611a6e5780518252602082019150602081019050602083039250611a49565b6001836020036101000a03801982511681845116808217855250505050505090500191505060405180910390206000191614905092915050565b600073ffffffffffffffffffffffffffffffffffffffff168273ffffffffffffffffffffffffffffffffffffffff1614151515611ae457600080fd5b600081111515611af357600080fd5b6000600960008473ffffffffffffffffffffffffffffffffffffffff1673ffffffffffffffffffffffffffffffffffffffff16815260200190815260200160002054141515611b4157600080fd5b600b8290806001815401808255809150509060018203906000526020600020016000909192909190916101000a81548173ffffffffffffffffffffffffffffffffffffffff021916908373ffffffffffffffffffffffffffffffffffffffff1602179055505080600960008473ffffffffffffffffffffffffffffffffffffffff1673ffffffffffffffffffffffffffffffffffffffff16815260200190815260200160002081905550611c00816007546115bb90919063ffffffff16565b6007819055505050565b6000806000841415611c1f5760009150611c3e565b8284029050828482811515611c3057fe5b04141515611c3a57fe5b8091505b5092915050565b6000808284811515611c5357fe5b04905080915050929150505600a165627a7a72305820f9c5cd44614b7a9eb78e18a3567f37c3f189eb71891eeb644f7178e3942325270029",
  "source": "pragma solidity ^0.4.23;\nimport './testreg.sol';\nimport './SafeMath.sol';\n\n/// @dev altered version of Open Zepplin's 'SplitPayment' contract\n\ncontract bloomingPool is testreg {\n\n    using SafeMath for uint256;\n\n    uint256 public totalShares = 0;\n    uint256 public totalReleased = 0;\n\n    mapping(address => uint256) public shares;\n    mapping(address => uint256) public released;\n    address[] public payees;\n\n    constructor(address[] _payees, uint256[] _shares) public payable {\n        require(_payees.length == _shares.length);\n\n        for (uint256 i = 0; i < _payees.length; i++) {\n          addPayee(_payees[i], _shares[i]);\n        }\n    }\n\n    function addPayee(address _payee, uint256 _shares) internal {\n        require(_payee != address(0));\n        require(_shares > 0);\n        require(shares[_payee] == 0);\n\n        payees.push(_payee);\n        shares[_payee] = _shares;\n        totalShares = totalShares.add(_shares);\n    }\n\n\tfunction oracle_call() external check(1) {\n\t\tcheck_blooming();\n\t\tfor (uint i=0;i<payees.length;i++){\n\t\t\taddress to = payees[i];\n\t\t\tpayout(to);\n\t\t}\n\t\treset_shares();\n\t\t}\n\n\tfunction check_blooming() internal {\n\t\tfor(uint i;i<101;i++) {\n\t\t\tif (compareStrings(TokenId[i].blooming, \"1\") == true) {\n\t\t\t\taddPayee(tokenOwner[i],1);\n\t\t\t}\n\t\t}\n\t}\n\n\tfunction payout(address to) internal returns(bool){\n\t\taddress payee = to;\n\t\trequire(shares[payee] > 0);\n\n        uint256 totalReceived = address(this).balance.add(totalReleased);\n        uint256 payment = totalReceived.mul(shares[payee]).div(totalShares).sub(released[payee]);\n\n        require(payment != 0);\n        require(address(this).balance >= payment);\n\n        released[payee] = released[payee].add(payment);\n        totalReleased = totalReleased.add(payment);\n\n        payee.transfer(payment);\n\t}\n\n\tfunction reset_shares() internal {\n\t\tif (totalShares < 0){\n\t\t\ttotalShares = 0;\n\t\t}\n\t}\n\n\tfunction compareStrings (string a, string b) internal returns(bool){\n        return keccak256(a) == keccak256(b);\n    }\n\n}\n",
  "sourcePath": "/Users/mfahampshire/terra0/source/ERC721/contracts/bloomingPool.sol",
  "compiler": {
    "name": "solc",
    "version": "0.4.23+commit.124ca40d.Emscripten.clang"
  },
  "schemaVersion": "2.0.0",
  "updatedAt": "2018-05-14T15:54:59.720Z"
}