{
  "contractName": "buyable",
  "abi": [
    {
      "constant": false,
      "inputs": [
        {
          "name": "_tokenId",
          "type": "uint256"
        },
        {
          "name": "state",
          "type": "string"
        }
      ],
      "name": "updatetoken",
      "outputs": [],
      "payable": false,
      "stateMutability": "nonpayable",
      "type": "function"
    },
    {
      "constant": true,
      "inputs": [
        {
          "name": "_tokenId",
          "type": "uint256"
        }
      ],
      "name": "getApproved",
      "outputs": [
        {
          "name": "",
          "type": "address"
        }
      ],
      "payable": false,
      "stateMutability": "view",
      "type": "function"
    },
    {
      "constant": false,
      "inputs": [
        {
          "name": "_to",
          "type": "address"
        },
        {
          "name": "_tokenId",
          "type": "uint256"
        }
      ],
      "name": "approve",
      "outputs": [],
      "payable": false,
      "stateMutability": "nonpayable",
      "type": "function"
    },
    {
      "constant": false,
      "inputs": [
        {
          "name": "_from",
          "type": "address"
        },
        {
          "name": "_to",
          "type": "address"
        },
        {
          "name": "_tokenId",
          "type": "uint256"
        }
      ],
      "name": "transferFrom",
      "outputs": [],
      "payable": false,
      "stateMutability": "nonpayable",
      "type": "function"
    },
    {
      "constant": true,
      "inputs": [
        {
          "name": "entity",
          "type": "address"
        }
      ],
      "name": "getRole",
      "outputs": [
        {
          "name": "",
          "type": "uint8"
        }
      ],
      "payable": false,
      "stateMutability": "view",
      "type": "function"
    },
    {
      "constant": false,
      "inputs": [
        {
          "name": "_to",
          "type": "address"
        },
        {
          "name": "_tokenId",
          "type": "uint256"
        }
      ],
      "name": "_mint",
      "outputs": [],
      "payable": false,
      "stateMutability": "nonpayable",
      "type": "function"
    },
    {
      "constant": true,
      "inputs": [
        {
          "name": "_tokenId",
          "type": "uint256"
        }
      ],
      "name": "exists",
      "outputs": [
        {
          "name": "",
          "type": "bool"
        }
      ],
      "payable": false,
      "stateMutability": "view",
      "type": "function"
    },
    {
      "constant": false,
      "inputs": [
        {
          "name": "_owner",
          "type": "address"
        },
        {
          "name": "_tokenId",
          "type": "uint256"
        }
      ],
      "name": "_burn",
      "outputs": [],
      "payable": false,
      "stateMutability": "nonpayable",
      "type": "function"
    },
    {
      "constant": true,
      "inputs": [
        {
          "name": "_tokenId",
          "type": "uint256"
        }
      ],
      "name": "ownerOf",
      "outputs": [
        {
          "name": "",
          "type": "address"
        }
      ],
      "payable": false,
      "stateMutability": "view",
      "type": "function"
    },
    {
      "constant": true,
      "inputs": [
        {
          "name": "_owner",
          "type": "address"
        }
      ],
      "name": "balanceOf",
      "outputs": [
        {
          "name": "",
          "type": "uint256"
        }
      ],
      "payable": false,
      "stateMutability": "view",
      "type": "function"
    },
    {
      "constant": false,
      "inputs": [
        {
          "name": "_to",
          "type": "address"
        },
        {
          "name": "_approved",
          "type": "bool"
        }
      ],
      "name": "setApprovalForAll",
      "outputs": [],
      "payable": false,
      "stateMutability": "nonpayable",
      "type": "function"
    },
    {
      "constant": true,
      "inputs": [],
      "name": "numTokensTotal",
      "outputs": [
        {
          "name": "",
          "type": "uint256"
        }
      ],
      "payable": false,
      "stateMutability": "view",
      "type": "function"
    },
    {
      "constant": true,
      "inputs": [
        {
          "name": "_owner",
          "type": "address"
        },
        {
          "name": "_operator",
          "type": "address"
        }
      ],
      "name": "isApprovedForAll",
      "outputs": [
        {
          "name": "",
          "type": "bool"
        }
      ],
      "payable": false,
      "stateMutability": "view",
      "type": "function"
    },
    {
      "constant": false,
      "inputs": [
        {
          "name": "rolevalue",
          "type": "uint8"
        },
        {
          "name": "entity",
          "type": "address"
        }
      ],
      "name": "setRole",
      "outputs": [],
      "payable": false,
      "stateMutability": "nonpayable",
      "type": "function"
    },
    {
      "inputs": [
        {
          "name": "_infrastructure_address",
          "type": "address"
        },
        {
          "name": "_blooming_address",
          "type": "address"
        }
      ],
      "payable": false,
      "stateMutability": "nonpayable",
      "type": "constructor"
    },
    {
      "anonymous": false,
      "inputs": [
        {
          "indexed": false,
          "name": "tokenId",
          "type": "uint256"
        },
        {
          "indexed": false,
          "name": "Price",
          "type": "uint256"
        }
      ],
      "name": "Set_price_and_sell",
      "type": "event"
    },
    {
      "anonymous": false,
      "inputs": [
        {
          "indexed": false,
          "name": "tokenId",
          "type": "uint256"
        }
      ],
      "name": "Stop_sell",
      "type": "event"
    },
    {
      "anonymous": false,
      "inputs": [
        {
          "indexed": false,
          "name": "_tokenId",
          "type": "uint256"
        },
        {
          "indexed": false,
          "name": "state",
          "type": "string"
        }
      ],
      "name": "UpdateToken",
      "type": "event"
    },
    {
      "anonymous": false,
      "inputs": [
        {
          "indexed": true,
          "name": "_from",
          "type": "address"
        },
        {
          "indexed": true,
          "name": "_to",
          "type": "address"
        },
        {
          "indexed": false,
          "name": "_tokenId",
          "type": "uint256"
        }
      ],
      "name": "Transfer",
      "type": "event"
    },
    {
      "anonymous": false,
      "inputs": [
        {
          "indexed": true,
          "name": "_owner",
          "type": "address"
        },
        {
          "indexed": true,
          "name": "_approved",
          "type": "address"
        },
        {
          "indexed": false,
          "name": "_tokenId",
          "type": "uint256"
        }
      ],
      "name": "Approval",
      "type": "event"
    },
    {
      "anonymous": false,
      "inputs": [
        {
          "indexed": true,
          "name": "_owner",
          "type": "address"
        },
        {
          "indexed": true,
          "name": "_operator",
          "type": "address"
        },
        {
          "indexed": false,
          "name": "_approved",
          "type": "bool"
        }
      ],
      "name": "ApprovalForAll",
      "type": "event"
    },
    {
      "constant": false,
      "inputs": [
        {
          "name": "UniqueID",
          "type": "uint256"
        },
        {
          "name": "Price",
          "type": "uint256"
        }
      ],
      "name": "set_price_and_sell",
      "outputs": [],
      "payable": true,
      "stateMutability": "payable",
      "type": "function"
    },
    {
      "constant": false,
      "inputs": [
        {
          "name": "UniqueID",
          "type": "uint256"
        }
      ],
      "name": "stop_sell",
      "outputs": [],
      "payable": true,
      "stateMutability": "payable",
      "type": "function"
    },
    {
      "constant": false,
      "inputs": [
        {
          "name": "UniqueID",
          "type": "uint256"
        }
      ],
      "name": "buy",
      "outputs": [],
      "payable": true,
      "stateMutability": "payable",
      "type": "function"
    },
    {
      "constant": true,
      "inputs": [
        {
          "name": "_tokenId",
          "type": "uint256"
        }
      ],
      "name": "get_token_data",
      "outputs": [
        {
          "name": "_health",
          "type": "string"
        },
        {
          "name": "_height",
          "type": "string"
        },
        {
          "name": "_blooming",
          "type": "string"
        },
        {
          "name": "_price",
          "type": "uint256"
        },
        {
          "name": "_buyable",
          "type": "bool"
        }
      ],
      "payable": false,
      "stateMutability": "view",
      "type": "function"
    },
    {
      "constant": true,
      "inputs": [
        {
          "name": "_tokenId",
          "type": "uint256"
        }
      ],
      "name": "get_token_data_buyable",
      "outputs": [
        {
          "name": "_buyable",
          "type": "bool"
        }
      ],
      "payable": false,
      "stateMutability": "view",
      "type": "function"
    },
    {
      "constant": true,
      "inputs": [],
      "name": "get_all_sellable_token",
      "outputs": [
        {
          "name": "list_of_available",
          "type": "bytes1[101]"
        }
      ],
      "payable": false,
      "stateMutability": "view",
      "type": "function"
    }
  ],
  "bytecode": "0x6080604052600260095534801561001557600080fd5b5060405160408061238c833981018060405281019080805190602001909291908051906020019092919050505060028081111561004e57fe5b6000803373ffffffffffffffffffffffffffffffffffffffff1673ffffffffffffffffffffffffffffffffffffffff16815260200190815260200160002060006101000a81548160ff021916908360028111156100a757fe5b021790555081600760006101000a81548173ffffffffffffffffffffffffffffffffffffffff021916908373ffffffffffffffffffffffffffffffffffffffff16021790555080600860006101000a81548173ffffffffffffffffffffffffffffffffffffffff021916908373ffffffffffffffffffffffffffffffffffffffff160217905550505061224d8061013f6000396000f300608060405260043610610112576000357c0100000000000000000000000000000000000000000000000000000000900463ffffffff16806303ad4be314610117578063081812fc1461015c578063095ea7b3146101c957806323b872dd1461021657806344276733146102835780634e6ec247146102e85780634f558e7914610335578063609a54b01461037a5780636161eb18146103cd5780636352211e1461041a5780636effb5791461048757806370a08231146104a75780637c968f5d146104fe578063a22cb46514610543578063a726be9a14610592578063af129dc214610722578063d96a094a1461074d578063e985e9c51461076d578063f2e12a39146107e8578063f7b42d0814610838575b600080fd5b34801561012357600080fd5b5061015a60048036038101908080359060200190929190803590602001908201803590602001919091929391929390505050610862565b005b34801561016857600080fd5b5061018760048036038101908080359060200190929190505050610ab6565b604051808273ffffffffffffffffffffffffffffffffffffffff1673ffffffffffffffffffffffffffffffffffffffff16815260200191505060405180910390f35b3480156101d557600080fd5b50610214600480360381019080803573ffffffffffffffffffffffffffffffffffffffff16906020019092919080359060200190929190505050610af3565b005b34801561022257600080fd5b50610281600480360381019080803573ffffffffffffffffffffffffffffffffffffffff169060200190929190803573ffffffffffffffffffffffffffffffffffffffff16906020019092919080359060200190929190505050610cb9565b005b34801561028f57600080fd5b506102c4600480360381019080803573ffffffffffffffffffffffffffffffffffffffff169060200190929190505050610dd0565b604051808260028111156102d457fe5b60ff16815260200191505060405180910390f35b3480156102f457600080fd5b50610333600480360381019080803573ffffffffffffffffffffffffffffffffffffffff16906020019092919080359060200190929190505050610e25565b005b34801561034157600080fd5b5061036060048036038101908080359060200190929190505050610f1a565b604051808215151515815260200191505060405180910390f35b34801561038657600080fd5b5061038f610f8c565b6040518082606560200280838360005b838110156103ba57808201518184015260208101905061039f565b5050505090500191505060405180910390f35b3480156103d957600080fd5b50610418600480360381019080803573ffffffffffffffffffffffffffffffffffffffff16906020019092919080359060200190929190505050611125565b005b34801561042657600080fd5b50610445600480360381019080803590602001909291905050506111e8565b604051808273ffffffffffffffffffffffffffffffffffffffff1673ffffffffffffffffffffffffffffffffffffffff16815260200191505060405180910390f35b6104a560048036038101908080359060200190929190505050611266565b005b3480156104b357600080fd5b506104e8600480360381019080803573ffffffffffffffffffffffffffffffffffffffff16906020019092919050505061134a565b6040518082815260200191505060405180910390f35b34801561050a57600080fd5b50610529600480360381019080803590602001909291905050506113ce565b604051808215151515815260200191505060405180910390f35b34801561054f57600080fd5b50610590600480360381019080803573ffffffffffffffffffffffffffffffffffffffff169060200190929190803515159060200190929190505050611442565b005b34801561059e57600080fd5b506105bd6004803603810190808035906020019092919050505061157e565b6040518080602001806020018060200186815260200185151515158152602001848103845289818151815260200191508051906020019080838360005b838110156106155780820151818401526020810190506105fa565b50505050905090810190601f1680156106425780820380516001836020036101000a031916815260200191505b50848103835288818151815260200191508051906020019080838360005b8381101561067b578082015181840152602081019050610660565b50505050905090810190601f1680156106a85780820380516001836020036101000a031916815260200191505b50848103825287818151815260200191508051906020019080838360005b838110156106e15780820151818401526020810190506106c6565b50505050905090810190601f16801561070e5780820380516001836020036101000a031916815260200191505b509850505050505050505060405180910390f35b34801561072e57600080fd5b50610737611826565b6040518082815260200191505060405180910390f35b61076b6004803603810190808035906020019092919050505061182c565b005b34801561077957600080fd5b506107ce600480360381019080803573ffffffffffffffffffffffffffffffffffffffff169060200190929190803573ffffffffffffffffffffffffffffffffffffffff169060200190929190505050611873565b604051808215151515815260200191505060405180910390f35b3480156107f457600080fd5b50610836600480360381019080803560ff169060200190929190803573ffffffffffffffffffffffffffffffffffffffff169060200190929190505050611907565b005b61086060048036038101908080359060200190929190803590602001909291905050506119a2565b005b61086a61213e565b60018060ff1661087933610dd0565b600281111561088457fe5b60ff1614151561089357600080fd5b6108ce84848080601f016020809104026020016040519081016040528093929190818152602001838380828437820191505050505050611a07565b91506109286109236109146040805190810160405280600181526020017f2e00000000000000000000000000000000000000000000000000000000000000815250611a07565b84611a3590919063ffffffff16565b611a4f565b600660008781526020019081526020016000206002019080519060200190610951929190612158565b506109aa6109a56109966040805190810160405280600181526020017f2e00000000000000000000000000000000000000000000000000000000000000815250611a07565b84611a3590919063ffffffff16565b611a4f565b6006600087815260200190815260200160002060000190805190602001906109d3929190612158565b50610a2c610a27610a186040805190810160405280600181526020017f2e00000000000000000000000000000000000000000000000000000000000000815250611a07565b84611a3590919063ffffffff16565b611a4f565b600660008781526020019081526020016000206001019080519060200190610a55929190612158565b507f53560fd2a0eb35afd8d535363033618f52ccbfc857a7bf616eb195a0ed022ef485858560405180848152602001806020018281038252848482818152602001925080828437820191505094505050505060405180910390a15050505050565b60006003600083815260200190815260200160002060009054906101000a900473ffffffffffffffffffffffffffffffffffffffff169050919050565b6000610afe826111e8565b90508073ffffffffffffffffffffffffffffffffffffffff168373ffffffffffffffffffffffffffffffffffffffff1614151515610b3b57600080fd5b8073ffffffffffffffffffffffffffffffffffffffff163373ffffffffffffffffffffffffffffffffffffffff161480610b7b5750610b7a8133611873565b5b1515610b8657600080fd5b600073ffffffffffffffffffffffffffffffffffffffff16610ba783610ab6565b73ffffffffffffffffffffffffffffffffffffffff16141580610bf75750600073ffffffffffffffffffffffffffffffffffffffff168373ffffffffffffffffffffffffffffffffffffffff1614155b15610cb457826003600084815260200190815260200160002060006101000a81548173ffffffffffffffffffffffffffffffffffffffff021916908373ffffffffffffffffffffffffffffffffffffffff1602179055508273ffffffffffffffffffffffffffffffffffffffff168173ffffffffffffffffffffffffffffffffffffffff167f8c5be1e5ebec7d5bd14f71427d1e84f3dd0314c0f7b2291e5b200ac8c7c3b925846040518082815260200191505060405180910390a35b505050565b80610cc43382611ab1565b1515610ccf57600080fd5b600073ffffffffffffffffffffffffffffffffffffffff168473ffffffffffffffffffffffffffffffffffffffff1614151515610d0b57600080fd5b600073ffffffffffffffffffffffffffffffffffffffff168373ffffffffffffffffffffffffffffffffffffffff1614151515610d4757600080fd5b610d518483611b46565b610d5b8483611caf565b610d658383611dde565b8273ffffffffffffffffffffffffffffffffffffffff168473ffffffffffffffffffffffffffffffffffffffff167fddf252ad1be2c89b69c2b068fc378daa952ba7f163c4a11628f55a4df523b3ef846040518082815260200191505060405180910390a350505050565b60008060008373ffffffffffffffffffffffffffffffffffffffff1673ffffffffffffffffffffffffffffffffffffffff16815260200190815260200160002060009054906101000a900460ff169050919050565b60028060ff16610e3433610dd0565b6002811115610e3f57fe5b60ff16141515610e4e57600080fd5b600073ffffffffffffffffffffffffffffffffffffffff168373ffffffffffffffffffffffffffffffffffffffff1614151515610e8a57600080fd5b610e948383611dde565b610ea960018054611f3890919063ffffffff16565b6001819055508273ffffffffffffffffffffffffffffffffffffffff16600073ffffffffffffffffffffffffffffffffffffffff167fddf252ad1be2c89b69c2b068fc378daa952ba7f163c4a11628f55a4df523b3ef846040518082815260200191505060405180910390a3505050565b6000806002600084815260200190815260200160002060009054906101000a900473ffffffffffffffffffffffffffffffffffffffff169050600073ffffffffffffffffffffffffffffffffffffffff168173ffffffffffffffffffffffffffffffffffffffff161415915050919050565b610f946121d8565b60008090505b606581101561112157600073ffffffffffffffffffffffffffffffffffffffff166002600083815260200190815260200160002060009054906101000a900473ffffffffffffffffffffffffffffffffffffffff1673ffffffffffffffffffffffffffffffffffffffff161415156110925760017f010000000000000000000000000000000000000000000000000000000000000002828260658110151561103e57fe5b60200201907effffffffffffffffffffffffffffffffffffffffffffffffffffffffffffff191690817effffffffffffffffffffffffffffffffffffffffffffffffffffffffffffff191681525050611114565b60007f01000000000000000000000000000000000000000000000000000000000000000282826065811015156110c457fe5b60200201907effffffffffffffffffffffffffffffffffffffffffffffffffffffffffffff191690817effffffffffffffffffffffffffffffffffffffffffffffffffffffffffffff1916815250505b8080600101915050610f9a565b5090565b60028060ff1661113433610dd0565b600281111561113f57fe5b60ff1614151561114e57600080fd5b6111588383611b46565b6111628383611caf565b61117760018054611f5690919063ffffffff16565b600181905550600073ffffffffffffffffffffffffffffffffffffffff168373ffffffffffffffffffffffffffffffffffffffff167fddf252ad1be2c89b69c2b068fc378daa952ba7f163c4a11628f55a4df523b3ef846040518082815260200191505060405180910390a3505050565b6000806002600084815260200190815260200160002060009054906101000a900473ffffffffffffffffffffffffffffffffffffffff169050600073ffffffffffffffffffffffffffffffffffffffff168173ffffffffffffffffffffffffffffffffffffffff161415151561125d57600080fd5b80915050919050565b3373ffffffffffffffffffffffffffffffffffffffff166002600083815260200190815260200160002060009054906101000a900473ffffffffffffffffffffffffffffffffffffffff1673ffffffffffffffffffffffffffffffffffffffff161415156112d357600080fd5b6113106002600083815260200190815260200160002060009054906101000a900473ffffffffffffffffffffffffffffffffffffffff1682611b46565b7fb7e9f6b2d2458040a4050b0b4a3e57e203d8738815821083545a426fdf73fc9a816040518082815260200191505060405180910390a150565b60008073ffffffffffffffffffffffffffffffffffffffff168273ffffffffffffffffffffffffffffffffffffffff161415151561138757600080fd5b600460008373ffffffffffffffffffffffffffffffffffffffff1673ffffffffffffffffffffffffffffffffffffffff168152602001908152602001600020549050919050565b60008073ffffffffffffffffffffffffffffffffffffffff166002600084815260200190815260200160002060009054906101000a900473ffffffffffffffffffffffffffffffffffffffff1673ffffffffffffffffffffffffffffffffffffffff1614151561143d57600190505b919050565b3373ffffffffffffffffffffffffffffffffffffffff168273ffffffffffffffffffffffffffffffffffffffff161415151561147d57600080fd5b80600560003373ffffffffffffffffffffffffffffffffffffffff1673ffffffffffffffffffffffffffffffffffffffff16815260200190815260200160002060008473ffffffffffffffffffffffffffffffffffffffff1673ffffffffffffffffffffffffffffffffffffffff16815260200190815260200160002060006101000a81548160ff0219169083151502179055508173ffffffffffffffffffffffffffffffffffffffff163373ffffffffffffffffffffffffffffffffffffffff167f17307eab39ab6107e8899845ad3d59bd9653f200f220920489ca2b5937696c3183604051808215151515815260200191505060405180910390a35050565b6060806060600080600660008781526020019081526020016000206000018054600181600116156101000203166002900480601f0160208091040260200160405190810160405280929190818152602001828054600181600116156101000203166002900480156116305780601f1061160557610100808354040283529160200191611630565b820191906000526020600020905b81548152906001019060200180831161161357829003601f168201915b50505050509450600660008781526020019081526020016000206002018054600181600116156101000203166002900480601f0160208091040260200160405190810160405280929190818152602001828054600181600116156101000203166002900480156116e15780601f106116b6576101008083540402835291602001916116e1565b820191906000526020600020905b8154815290600101906020018083116116c457829003601f168201915b50505050509350600660008781526020019081526020016000206001018054600181600116156101000203166002900480601f0160208091040260200160405190810160405280929190818152602001828054600181600116156101000203166002900480156117925780601f1061176757610100808354040283529160200191611792565b820191906000526020600020905b81548152906001019060200180831161177557829003601f168201915b50505050509250600a6000878152602001908152602001600020549150600073ffffffffffffffffffffffffffffffffffffffff166002600088815260200190815260200160002060009054906101000a900473ffffffffffffffffffffffffffffffffffffffff1673ffffffffffffffffffffffffffffffffffffffff1614151561181d57600190505b91939590929450565b60015481565b600033905061186f6002600084815260200190815260200160002060009054906101000a900473ffffffffffffffffffffffffffffffffffffffff168284610cb9565b5050565b6000600560008473ffffffffffffffffffffffffffffffffffffffff1673ffffffffffffffffffffffffffffffffffffffff16815260200190815260200160002060008373ffffffffffffffffffffffffffffffffffffffff1673ffffffffffffffffffffffffffffffffffffffff16815260200190815260200160002060009054906101000a900460ff16905092915050565b60028060ff1661191633610dd0565b600281111561192157fe5b60ff1614151561193057600080fd5b8260ff16600281111561193f57fe5b6000808473ffffffffffffffffffffffffffffffffffffffff1673ffffffffffffffffffffffffffffffffffffffff16815260200190815260200160002060006101000a81548160ff0219169083600281111561199857fe5b0217905550505050565b80600a6000848152602001908152602001600020819055506119c43083610af3565b7fec3759d55f609c6666198ab6e098bbe8937fead3e8aa740c199b7ba1110642188282604051808381526020018281526020019250505060405180910390a15050565b611a0f61213e565b600060208301905060408051908101604052808451815260200182815250915050919050565b611a3d61213e565b611a48838383611f6f565b5092915050565b606080600083600001516040519080825280601f01601f191660200182016040528015611a8b5781602001602082028038833980820191505090505b509150602082019050611aa7818560200151866000015161200d565b8192505050919050565b600080611abd836111e8565b90508073ffffffffffffffffffffffffffffffffffffffff168473ffffffffffffffffffffffffffffffffffffffff161480611b2c57508373ffffffffffffffffffffffffffffffffffffffff16611b1484610ab6565b73ffffffffffffffffffffffffffffffffffffffff16145b80611b3d5750611b3c8185611873565b5b91505092915050565b8173ffffffffffffffffffffffffffffffffffffffff16611b66826111e8565b73ffffffffffffffffffffffffffffffffffffffff16141515611b8857600080fd5b600073ffffffffffffffffffffffffffffffffffffffff166003600083815260200190815260200160002060009054906101000a900473ffffffffffffffffffffffffffffffffffffffff1673ffffffffffffffffffffffffffffffffffffffff16141515611cab5760006003600083815260200190815260200160002060006101000a81548173ffffffffffffffffffffffffffffffffffffffff021916908373ffffffffffffffffffffffffffffffffffffffff160217905550600073ffffffffffffffffffffffffffffffffffffffff168273ffffffffffffffffffffffffffffffffffffffff167f8c5be1e5ebec7d5bd14f71427d1e84f3dd0314c0f7b2291e5b200ac8c7c3b925836040518082815260200191505060405180910390a35b5050565b8173ffffffffffffffffffffffffffffffffffffffff16611ccf826111e8565b73ffffffffffffffffffffffffffffffffffffffff16141515611cf157600080fd5b611d446001600460008573ffffffffffffffffffffffffffffffffffffffff1673ffffffffffffffffffffffffffffffffffffffff16815260200190815260200160002054611f5690919063ffffffff16565b600460008473ffffffffffffffffffffffffffffffffffffffff1673ffffffffffffffffffffffffffffffffffffffff1681526020019081526020016000208190555060006002600083815260200190815260200160002060006101000a81548173ffffffffffffffffffffffffffffffffffffffff021916908373ffffffffffffffffffffffffffffffffffffffff1602179055505050565b600073ffffffffffffffffffffffffffffffffffffffff166002600083815260200190815260200160002060009054906101000a900473ffffffffffffffffffffffffffffffffffffffff1673ffffffffffffffffffffffffffffffffffffffff16141515611e4c57600080fd5b816002600083815260200190815260200160002060006101000a81548173ffffffffffffffffffffffffffffffffffffffff021916908373ffffffffffffffffffffffffffffffffffffffff160217905550611ef16001600460008573ffffffffffffffffffffffffffffffffffffffff1673ffffffffffffffffffffffffffffffffffffffff16815260200190815260200160002054611f3890919063ffffffff16565b600460008473ffffffffffffffffffffffffffffffffffffffff1673ffffffffffffffffffffffffffffffffffffffff168152602001908152602001600020819055505050565b6000808284019050838110151515611f4c57fe5b8091505092915050565b6000828211151515611f6457fe5b818303905092915050565b611f7761213e565b6000611f958560000151866020015186600001518760200151612058565b90508460200151836020018181525050846020015181038360000181815250508460000151856020015101811415611fd7576000856000018181525050612002565b8360000151836000015101856000018181510391508181525050836000015181018560200181815250505b829150509392505050565b60005b6020821015156120355782518452602084019350602083019250602082039150612010565b6001826020036101000a0390508019835116818551168181178652505050505050565b60008060008060008060008060008b97508c8b1115156121285760208b1115156120e25760018b60200360080260020a03196001029550858a511694508a8d8d010393508588511692505b846000191683600019161415156120da5783881015156120c7578c8c01985061212e565b87806001019850508588511692506120a3565b87985061212e565b8a8a209150600096505b8a8d0387111515612127578a882090508060001916826000191614156121145787985061212e565b60018801975086806001019750506120ec565b5b8c8c0198505b5050505050505050949350505050565b604080519081016040528060008152602001600081525090565b828054600181600116156101000203166002900490600052602060002090601f016020900481019282601f1061219957805160ff19168380011785556121c7565b828001600101855582156121c7579182015b828111156121c65782518255916020019190600101906121ab565b5b5090506121d491906121fc565b5090565b610ca060405190810160405280606590602082028038833980820191505090505090565b61221e91905b8082111561221a576000816000905550600101612202565b5090565b905600a165627a7a72305820b6ab2536b3f62a5640d396a92dca28143fe240a3e95477f6057dac20ce3ec62a0029",
  "source": "pragma solidity ^0.4.23;\nimport './update.sol';\n\ncontract buyable is update {\n\n\taddress INFRASTRUCTURE_POOL_ADDRESS;\n\taddress BLOOMING_POOL_ADDRESS;\n    uint blooming_fee = 2;\n    mapping (uint256 => uint256) TokenIdtoprice;\n\n    event Set_price_and_sell(uint256 tokenId, uint256 Price);\n    event Stop_sell(uint256 tokenId);\n\n    constructor(address _infrastructure_address, address _blooming_address){\n        INFRASTRUCTURE_POOL_ADDRESS = _infrastructure_address;\n        BLOOMING_POOL_ADDRESS = _blooming_address;\n    }\n\n    function set_price_and_sell(uint256 UniqueID,uint256 Price) external payable{\n    TokenIdtoprice[UniqueID] = Price;\n    approve(address(this), UniqueID);\n    emit Set_price_and_sell(UniqueID, Price);\n    }\n\n    function stop_sell(uint256 UniqueID) external payable{\n    require(tokenOwner[UniqueID] == msg.sender );\n    clearApproval(tokenOwner[UniqueID],UniqueID);\n    emit Stop_sell(UniqueID);\n    }\n\nfunction buy(uint256 UniqueID)external payable{\n\t\t    address _to =  msg.sender;\n// \t\t    uint _total = msg.value;\n// \t\t\tif (_total !=TokenIdtoprice[UniqueID]){\n// \t\t\t\trevert();\n// \t\t\t} else {\n// \t\t\t\tuint _blooming = (_total / 20);\n// \t\t\t    uint _infrastructure = (_blooming / 20);\n// \t\t\t\tuint _amount_for_seller = msg.value.sub(_blooming + _infrastructure);\n// \t\t\t\taddress _seller = tokenOwner[UniqueID];\n// \t\t\t\t_seller.transfer(_amount_for_seller);\n\t\t\t    transferFrom(tokenOwner[UniqueID], _to, UniqueID);\n\t\t\t //   BLOOMING_POOL_ADDRESS.transfer(_blooming);\n\t\t\t //   INFRASTRUCTURE_POOL_ADDRESS.transfer(_infrastructure);\n\n\t    }\n\n    function get_token_data(uint256 _tokenId) external view returns(string _health,string _height, string _blooming,uint256 _price, bool _buyable ){\n    _health =  TokenId[_tokenId].health;\n    _height = TokenId[_tokenId].height;\n    _blooming = TokenId[_tokenId].blooming;\n    _price = TokenIdtoprice[_tokenId];\n        if (tokenOwner[_tokenId] != address(0)){\n            _buyable = true;\n        }\n    }\n\n    function get_token_data_buyable(uint256 _tokenId) external view returns(bool _buyable ){\n    if (tokenOwner[_tokenId] != address(0)){\n        _buyable = true;\n        }\n    }\n\n    function get_all_sellable_token()external view returns(bytes1[101] list_of_available){\n    uint i;\n    for(i=0;i<101;i++) {\n          if (tokenOwner[i] != address(0)){\n            list_of_available[i] = 0x01;\n          }else{\n            list_of_available[i] = 0x00;\n          }\n        }\n    }\n\n}\n",
  "sourcePath": "/Users/mfahampshire/terra0/source/ERC721/contracts/buyable.sol",
  "compiler": {
    "name": "solc",
    "version": "0.4.23+commit.124ca40d.Emscripten.clang"
  },
  "schemaVersion": "2.0.0",
  "updatedAt": "2018-05-14T14:19:48.150Z"
}