{
  "contractName": "buyable",
  "abi": [
    {
      "constant": false,
      "inputs": [
        {
          "name": "_tokenId",
          "type": "uint256"
        },
        {
          "name": "new_uri",
          "type": "string"
        }
      ],
      "name": "updatetoken",
      "outputs": [],
      "payable": false,
      "stateMutability": "nonpayable",
      "type": "function"
    },
    {
      "constant": true,
      "inputs": [
        {
          "name": "_tokenId",
          "type": "uint256"
        }
      ],
      "name": "getApproved",
      "outputs": [
        {
          "name": "",
          "type": "address"
        }
      ],
      "payable": false,
      "stateMutability": "view",
      "type": "function"
    },
    {
      "constant": false,
      "inputs": [
        {
          "name": "_to",
          "type": "address"
        },
        {
          "name": "_tokenId",
          "type": "uint256"
        }
      ],
      "name": "approve",
      "outputs": [],
      "payable": false,
      "stateMutability": "nonpayable",
      "type": "function"
    },
    {
      "constant": false,
      "inputs": [
        {
          "name": "_from",
          "type": "address"
        },
        {
          "name": "_to",
          "type": "address"
        },
        {
          "name": "_tokenId",
          "type": "uint256"
        }
      ],
      "name": "transferFrom",
      "outputs": [],
      "payable": false,
      "stateMutability": "nonpayable",
      "type": "function"
    },
    {
      "constant": true,
      "inputs": [],
      "name": "totalShares",
      "outputs": [
        {
          "name": "",
          "type": "uint256"
        }
      ],
      "payable": false,
      "stateMutability": "view",
      "type": "function"
    },
    {
      "constant": true,
      "inputs": [
        {
          "name": "_spender",
          "type": "address"
        },
        {
          "name": "_tokenId",
          "type": "uint256"
        }
      ],
      "name": "isApprovedOrOwner",
      "outputs": [
        {
          "name": "",
          "type": "bool"
        }
      ],
      "payable": false,
      "stateMutability": "view",
      "type": "function"
    },
    {
      "constant": true,
      "inputs": [
        {
          "name": "entity",
          "type": "address"
        }
      ],
      "name": "getRole",
      "outputs": [
        {
          "name": "",
          "type": "uint8"
        }
      ],
      "payable": false,
      "stateMutability": "view",
      "type": "function"
    },
    {
      "constant": false,
      "inputs": [
        {
          "name": "_to",
          "type": "address"
        },
        {
          "name": "_tokenId",
          "type": "uint256"
        }
      ],
      "name": "_mint",
      "outputs": [],
      "payable": false,
      "stateMutability": "nonpayable",
      "type": "function"
    },
    {
      "constant": false,
      "inputs": [],
      "name": "claim",
      "outputs": [],
      "payable": false,
      "stateMutability": "nonpayable",
      "type": "function"
    },
    {
      "constant": true,
      "inputs": [
        {
          "name": "_tokenId",
          "type": "uint256"
        }
      ],
      "name": "exists",
      "outputs": [
        {
          "name": "",
          "type": "bool"
        }
      ],
      "payable": false,
      "stateMutability": "view",
      "type": "function"
    },
    {
      "constant": false,
      "inputs": [
        {
          "name": "_owner",
          "type": "address"
        },
        {
          "name": "_tokenId",
          "type": "uint256"
        }
      ],
      "name": "_burn",
      "outputs": [],
      "payable": false,
      "stateMutability": "nonpayable",
      "type": "function"
    },
    {
      "constant": true,
      "inputs": [
        {
          "name": "_tokenId",
          "type": "uint256"
        }
      ],
      "name": "ownerOf",
      "outputs": [
        {
          "name": "",
          "type": "address"
        }
      ],
      "payable": false,
      "stateMutability": "view",
      "type": "function"
    },
    {
      "constant": true,
      "inputs": [
        {
          "name": "_owner",
          "type": "address"
        }
      ],
      "name": "balanceOf",
      "outputs": [
        {
          "name": "",
          "type": "uint256"
        }
      ],
      "payable": false,
      "stateMutability": "view",
      "type": "function"
    },
    {
      "constant": false,
      "inputs": [
        {
          "name": "_to",
          "type": "address"
        },
        {
          "name": "_approved",
          "type": "bool"
        }
      ],
      "name": "setApprovalForAll",
      "outputs": [],
      "payable": false,
      "stateMutability": "nonpayable",
      "type": "function"
    },
    {
      "constant": true,
      "inputs": [],
      "name": "numTokensTotal",
      "outputs": [
        {
          "name": "",
          "type": "uint256"
        }
      ],
      "payable": false,
      "stateMutability": "view",
      "type": "function"
    },
    {
      "constant": true,
      "inputs": [
        {
          "name": "",
          "type": "address"
        }
      ],
      "name": "shares",
      "outputs": [
        {
          "name": "",
          "type": "uint256"
        }
      ],
      "payable": false,
      "stateMutability": "view",
      "type": "function"
    },
    {
      "constant": true,
      "inputs": [],
      "name": "totalReleased",
      "outputs": [
        {
          "name": "",
          "type": "uint256"
        }
      ],
      "payable": false,
      "stateMutability": "view",
      "type": "function"
    },
    {
      "constant": true,
      "inputs": [
        {
          "name": "_owner",
          "type": "address"
        },
        {
          "name": "_operator",
          "type": "address"
        }
      ],
      "name": "isApprovedForAll",
      "outputs": [
        {
          "name": "",
          "type": "bool"
        }
      ],
      "payable": false,
      "stateMutability": "view",
      "type": "function"
    },
    {
      "constant": false,
      "inputs": [
        {
          "name": "rolevalue",
          "type": "uint8"
        },
        {
          "name": "entity",
          "type": "address"
        }
      ],
      "name": "setRole",
      "outputs": [],
      "payable": false,
      "stateMutability": "nonpayable",
      "type": "function"
    },
    {
      "constant": false,
      "inputs": [
        {
          "name": "unique_id",
          "type": "uint256"
        }
      ],
      "name": "oracle_call",
      "outputs": [],
      "payable": false,
      "stateMutability": "nonpayable",
      "type": "function"
    },
    {
      "constant": false,
      "inputs": [
        {
          "name": "_to",
          "type": "address"
        },
        {
          "name": "_tokenId",
          "type": "uint256"
        },
        {
          "name": "new_uri",
          "type": "string"
        }
      ],
      "name": "_mint_with_uri",
      "outputs": [],
      "payable": false,
      "stateMutability": "nonpayable",
      "type": "function"
    },
    {
      "constant": true,
      "inputs": [],
      "name": "get_shares",
      "outputs": [
        {
          "name": "individual_shares",
          "type": "uint256"
        }
      ],
      "payable": false,
      "stateMutability": "view",
      "type": "function"
    },
    {
      "inputs": [],
      "payable": false,
      "stateMutability": "nonpayable",
      "type": "constructor"
    },
    {
      "payable": true,
      "stateMutability": "payable",
      "type": "fallback"
    },
    {
      "anonymous": false,
      "inputs": [
        {
          "indexed": false,
          "name": "tokenId",
          "type": "uint256"
        },
        {
          "indexed": false,
          "name": "Price",
          "type": "uint256"
        }
      ],
      "name": "Set_price_and_sell",
      "type": "event"
    },
    {
      "anonymous": false,
      "inputs": [
        {
          "indexed": false,
          "name": "tokenId",
          "type": "uint256"
        }
      ],
      "name": "Stop_sell",
      "type": "event"
    },
    {
      "anonymous": false,
      "inputs": [
        {
          "indexed": false,
          "name": "_tokenId",
          "type": "uint256"
        },
        {
          "indexed": false,
          "name": "new_uri",
          "type": "string"
        }
      ],
      "name": "UpdateToken",
      "type": "event"
    },
    {
      "anonymous": false,
      "inputs": [
        {
          "indexed": true,
          "name": "_from",
          "type": "address"
        },
        {
          "indexed": true,
          "name": "_to",
          "type": "address"
        },
        {
          "indexed": false,
          "name": "_tokenId",
          "type": "uint256"
        }
      ],
      "name": "Transfer",
      "type": "event"
    },
    {
      "anonymous": false,
      "inputs": [
        {
          "indexed": true,
          "name": "_owner",
          "type": "address"
        },
        {
          "indexed": true,
          "name": "_approved",
          "type": "address"
        },
        {
          "indexed": false,
          "name": "_tokenId",
          "type": "uint256"
        }
      ],
      "name": "Approval",
      "type": "event"
    },
    {
      "anonymous": false,
      "inputs": [
        {
          "indexed": true,
          "name": "_owner",
          "type": "address"
        },
        {
          "indexed": true,
          "name": "_operator",
          "type": "address"
        },
        {
          "indexed": false,
          "name": "_approved",
          "type": "bool"
        }
      ],
      "name": "ApprovalForAll",
      "type": "event"
    },
    {
      "constant": false,
      "inputs": [
        {
          "name": "_infrastructure_address",
          "type": "address"
        }
      ],
      "name": "initialisation",
      "outputs": [],
      "payable": false,
      "stateMutability": "nonpayable",
      "type": "function"
    },
    {
      "constant": false,
      "inputs": [
        {
          "name": "UniqueID",
          "type": "uint256"
        },
        {
          "name": "Price",
          "type": "uint256"
        }
      ],
      "name": "set_price_and_sell",
      "outputs": [],
      "payable": false,
      "stateMutability": "nonpayable",
      "type": "function"
    },
    {
      "constant": false,
      "inputs": [
        {
          "name": "UniqueID",
          "type": "uint256"
        }
      ],
      "name": "stop_sell",
      "outputs": [],
      "payable": true,
      "stateMutability": "payable",
      "type": "function"
    },
    {
      "constant": false,
      "inputs": [
        {
          "name": "UniqueID",
          "type": "uint256"
        }
      ],
      "name": "buy",
      "outputs": [],
      "payable": true,
      "stateMutability": "payable",
      "type": "function"
    },
    {
      "constant": true,
      "inputs": [
        {
          "name": "_tokenId",
          "type": "uint256"
        }
      ],
      "name": "get_token_data",
      "outputs": [
        {
          "name": "_price",
          "type": "uint256"
        },
        {
          "name": "_setprice",
          "type": "uint256"
        },
        {
          "name": "_buyable",
          "type": "bool"
        }
      ],
      "payable": false,
      "stateMutability": "view",
      "type": "function"
    },
    {
      "constant": true,
      "inputs": [
        {
          "name": "_tokenId",
          "type": "uint256"
        }
      ],
      "name": "get_token_data_buyable",
      "outputs": [
        {
          "name": "_buyable",
          "type": "bool"
        }
      ],
      "payable": false,
      "stateMutability": "view",
      "type": "function"
    },
    {
      "constant": true,
      "inputs": [],
      "name": "get_all_sellable_token",
      "outputs": [
        {
          "name": "list_of_available",
          "type": "bool[101]"
        }
      ],
      "payable": false,
      "stateMutability": "view",
      "type": "function"
    },
    {
      "constant": true,
      "inputs": [],
      "name": "get_my_tokens",
      "outputs": [
        {
          "name": "list_of_my_tokens",
          "type": "bool[101]"
        }
      ],
      "payable": false,
      "stateMutability": "view",
      "type": "function"
    }
  ],
  "bytecode": "0x60806040526000600755600060085534801561001a57600080fd5b5060028081111561002757fe5b6000803373ffffffffffffffffffffffffffffffffffffffff1673ffffffffffffffffffffffffffffffffffffffff16815260200190815260200160002060006101000a81548160ff0219169083600281111561008057fe5b0217905550612653806100946000396000f300608060405260043610610180576000357c0100000000000000000000000000000000000000000000000000000000900463ffffffff16806303ad4be314610182578063081812fc146101c7578063095ea7b31461023457806323b872dd146102815780633a98ef39146102ee578063430c208114610319578063442767331461037e578063454ca9fd146103e35780634e6ec247146104365780634e71d92d146104835780634f558e791461049a578063609a54b0146104df5780636161eb18146105325780636352211e1461057f5780636effb579146105ec57806370a082311461060c5780637c968f5d14610663578063a22cb465146106a8578063a726be9a146106f7578063af129dc21461074a578063ce7c2ac214610775578063d96a094a146107cc578063e33b7de3146107ec578063e985e9c514610817578063ebd2ca4414610892578063f2e12a39146108d5578063f3f7067414610925578063f4a8a69914610952578063f7b42d08146109b7578063f8bdc9dd146109ee575b005b34801561018e57600080fd5b506101c560048036038101908080359060200190929190803590602001908201803590602001919091929391929390505050610a19565b005b3480156101d357600080fd5b506101f260048036038101908080359060200190929190505050610ac7565b604051808273ffffffffffffffffffffffffffffffffffffffff1673ffffffffffffffffffffffffffffffffffffffff16815260200191505060405180910390f35b34801561024057600080fd5b5061027f600480360381019080803573ffffffffffffffffffffffffffffffffffffffff16906020019092919080359060200190929190505050610b04565b005b34801561028d57600080fd5b506102ec600480360381019080803573ffffffffffffffffffffffffffffffffffffffff169060200190929190803573ffffffffffffffffffffffffffffffffffffffff16906020019092919080359060200190929190505050610cd8565b005b3480156102fa57600080fd5b50610303610def565b6040518082815260200191505060405180910390f35b34801561032557600080fd5b50610364600480360381019080803573ffffffffffffffffffffffffffffffffffffffff16906020019092919080359060200190929190505050610df5565b604051808215151515815260200191505060405180910390f35b34801561038a57600080fd5b506103bf600480360381019080803573ffffffffffffffffffffffffffffffffffffffff169060200190929190505050610e8a565b604051808260028111156103cf57fe5b60ff16815260200191505060405180910390f35b3480156103ef57600080fd5b506103f8610edf565b6040518082606560200280838360005b83811015610423578082015181840152602081019050610408565b5050505090500191505060405180910390f35b34801561044257600080fd5b50610481600480360381019080803573ffffffffffffffffffffffffffffffffffffffff16906020019092919080359060200190929190505050610fb8565b005b34801561048f57600080fd5b506104986110ad565b005b3480156104a657600080fd5b506104c5600480360381019080803590602001909291905050506110b9565b604051808215151515815260200191505060405180910390f35b3480156104eb57600080fd5b506104f461112b565b6040518082606560200280838360005b8381101561051f578082015181840152602081019050610504565b5050505090500191505060405180910390f35b34801561053e57600080fd5b5061057d600480360381019080803573ffffffffffffffffffffffffffffffffffffffff16906020019092919080359060200190929190505050611200565b005b34801561058b57600080fd5b506105aa600480360381019080803590602001909291905050506112c3565b604051808273ffffffffffffffffffffffffffffffffffffffff1673ffffffffffffffffffffffffffffffffffffffff16815260200191505060405180910390f35b61060a60048036038101908080359060200190929190505050611305565b005b34801561061857600080fd5b5061064d600480360381019080803573ffffffffffffffffffffffffffffffffffffffff1690602001909291905050506113e9565b6040518082815260200191505060405180910390f35b34801561066f57600080fd5b5061068e6004803603810190808035906020019092919050505061146d565b604051808215151515815260200191505060405180910390f35b3480156106b457600080fd5b506106f5600480360381019080803573ffffffffffffffffffffffffffffffffffffffff1690602001909291908035151590602001909291905050506114e1565b005b34801561070357600080fd5b506107226004803603810190808035906020019092919050505061161d565b6040518084815260200183815260200182151515158152602001935050505060405180910390f35b34801561075657600080fd5b5061075f6116c3565b6040518082815260200191505060405180910390f35b34801561078157600080fd5b506107b6600480360381019080803573ffffffffffffffffffffffffffffffffffffffff1690602001909291905050506116c9565b6040518082815260200191505060405180910390f35b6107ea600480360381019080803590602001909291905050506116e1565b005b3480156107f857600080fd5b50610801611a01565b6040518082815260200191505060405180910390f35b34801561082357600080fd5b50610878600480360381019080803573ffffffffffffffffffffffffffffffffffffffff169060200190929190803573ffffffffffffffffffffffffffffffffffffffff169060200190929190505050611a07565b604051808215151515815260200191505060405180910390f35b34801561089e57600080fd5b506108d3600480360381019080803573ffffffffffffffffffffffffffffffffffffffff169060200190929190505050611a9b565b005b3480156108e157600080fd5b50610923600480360381019080803560ff169060200190929190803573ffffffffffffffffffffffffffffffffffffffff169060200190929190505050611b09565b005b34801561093157600080fd5b5061095060048036038101908080359060200190929190505050611ba4565b005b34801561095e57600080fd5b506109b5600480360381019080803573ffffffffffffffffffffffffffffffffffffffff16906020019092919080359060200190929190803590602001908201803590602001919091929391929390505050611bdc565b005b3480156109c357600080fd5b506109ec6004803603810190808035906020019092919080359060200190929190505050611cf9565b005b3480156109fa57600080fd5b50610a03611d5e565b6040518082815260200191505060405180910390f35b60018060ff16610a2833610e8a565b6002811115610a3357fe5b60ff16141515610a4257600080fd5b8282600660008781526020019081526020016000206000019190610a6792919061255e565b507f53560fd2a0eb35afd8d535363033618f52ccbfc857a7bf616eb195a0ed022ef484848460405180848152602001806020018281038252848482818152602001925080828437820191505094505050505060405180910390a150505050565b60006003600083815260200190815260200160002060009054906101000a900473ffffffffffffffffffffffffffffffffffffffff169050919050565b60006002600083815260200190815260200160002060009054906101000a900473ffffffffffffffffffffffffffffffffffffffff169050826003600084815260200190815260200160002060006101000a81548173ffffffffffffffffffffffffffffffffffffffff021916908373ffffffffffffffffffffffffffffffffffffffff160217905550610b97826112c3565b73ffffffffffffffffffffffffffffffffffffffff168373ffffffffffffffffffffffffffffffffffffffff1614151515610bd157600080fd5b8073ffffffffffffffffffffffffffffffffffffffff163373ffffffffffffffffffffffffffffffffffffffff161480610c115750610c108133611a07565b5b1515610c1c57600080fd5b826003600084815260200190815260200160002060006101000a81548173ffffffffffffffffffffffffffffffffffffffff021916908373ffffffffffffffffffffffffffffffffffffffff1602179055508273ffffffffffffffffffffffffffffffffffffffff168173ffffffffffffffffffffffffffffffffffffffff167f8c5be1e5ebec7d5bd14f71427d1e84f3dd0314c0f7b2291e5b200ac8c7c3b925846040518082815260200191505060405180910390a3505050565b80610ce33382610df5565b1515610cee57600080fd5b600073ffffffffffffffffffffffffffffffffffffffff168473ffffffffffffffffffffffffffffffffffffffff1614151515610d2a57600080fd5b600073ffffffffffffffffffffffffffffffffffffffff168373ffffffffffffffffffffffffffffffffffffffff1614151515610d6657600080fd5b610d708483611da5565b610d7a8483611f0e565b610d84838361203d565b8273ffffffffffffffffffffffffffffffffffffffff168473ffffffffffffffffffffffffffffffffffffffff167fddf252ad1be2c89b69c2b068fc378daa952ba7f163c4a11628f55a4df523b3ef846040518082815260200191505060405180910390a350505050565b60075481565b600080610e01836112c3565b90508073ffffffffffffffffffffffffffffffffffffffff168473ffffffffffffffffffffffffffffffffffffffff161480610e7057508373ffffffffffffffffffffffffffffffffffffffff16610e5884610ac7565b73ffffffffffffffffffffffffffffffffffffffff16145b80610e815750610e808185611a07565b5b91505092915050565b60008060008373ffffffffffffffffffffffffffffffffffffffff1673ffffffffffffffffffffffffffffffffffffffff16815260200190815260200160002060009054906101000a900460ff169050919050565b610ee76125de565b600080339050600091505b6065821015610fb3578073ffffffffffffffffffffffffffffffffffffffff166002600084815260200190815260200160002060009054906101000a900473ffffffffffffffffffffffffffffffffffffffff1673ffffffffffffffffffffffffffffffffffffffff161415610f865760018383606581101515610f7257fe5b602002019015159081151581525050610fa6565b60008383606581101515610f9657fe5b6020020190151590811515815250505b8180600101925050610ef2565b505090565b60028060ff16610fc733610e8a565b6002811115610fd257fe5b60ff16141515610fe157600080fd5b600073ffffffffffffffffffffffffffffffffffffffff168373ffffffffffffffffffffffffffffffffffffffff161415151561101d57600080fd5b611027838361203d565b61103c6001805461219790919063ffffffff16565b6001819055508273ffffffffffffffffffffffffffffffffffffffff16600073ffffffffffffffffffffffffffffffffffffffff167fddf252ad1be2c89b69c2b068fc378daa952ba7f163c4a11628f55a4df523b3ef846040518082815260200191505060405180910390a3505050565b6110b6336121b5565b50565b6000806002600084815260200190815260200160002060009054906101000a900473ffffffffffffffffffffffffffffffffffffffff169050600073ffffffffffffffffffffffffffffffffffffffff168173ffffffffffffffffffffffffffffffffffffffff161415915050919050565b6111336125de565b60008090505b60658110156111fc57600073ffffffffffffffffffffffffffffffffffffffff166003600083815260200190815260200160002060009054906101000a900473ffffffffffffffffffffffffffffffffffffffff1673ffffffffffffffffffffffffffffffffffffffff161415156111cf57600182826065811015156111bb57fe5b6020020190151590811515815250506111ef565b600082826065811015156111df57fe5b6020020190151590811515815250505b8080600101915050611139565b5090565b60028060ff1661120f33610e8a565b600281111561121a57fe5b60ff1614151561122957600080fd5b6112338383611da5565b61123d8383611f0e565b6112526001805461237f90919063ffffffff16565b600181905550600073ffffffffffffffffffffffffffffffffffffffff168373ffffffffffffffffffffffffffffffffffffffff167fddf252ad1be2c89b69c2b068fc378daa952ba7f163c4a11628f55a4df523b3ef846040518082815260200191505060405180910390a3505050565b6000806002600084815260200190815260200160002060009054906101000a900473ffffffffffffffffffffffffffffffffffffffff16905080915050919050565b3373ffffffffffffffffffffffffffffffffffffffff166002600083815260200190815260200160002060009054906101000a900473ffffffffffffffffffffffffffffffffffffffff1673ffffffffffffffffffffffffffffffffffffffff1614151561137257600080fd5b6113af6002600083815260200190815260200160002060009054906101000a900473ffffffffffffffffffffffffffffffffffffffff1682611da5565b7fb7e9f6b2d2458040a4050b0b4a3e57e203d8738815821083545a426fdf73fc9a816040518082815260200191505060405180910390a150565b60008073ffffffffffffffffffffffffffffffffffffffff168273ffffffffffffffffffffffffffffffffffffffff161415151561142657600080fd5b600460008373ffffffffffffffffffffffffffffffffffffffff1673ffffffffffffffffffffffffffffffffffffffff168152602001908152602001600020549050919050565b60008073ffffffffffffffffffffffffffffffffffffffff166003600084815260200190815260200160002060009054906101000a900473ffffffffffffffffffffffffffffffffffffffff1673ffffffffffffffffffffffffffffffffffffffff161415156114dc57600190505b919050565b3373ffffffffffffffffffffffffffffffffffffffff168273ffffffffffffffffffffffffffffffffffffffff161415151561151c57600080fd5b80600560003373ffffffffffffffffffffffffffffffffffffffff1673ffffffffffffffffffffffffffffffffffffffff16815260200190815260200160002060008473ffffffffffffffffffffffffffffffffffffffff1673ffffffffffffffffffffffffffffffffffffffff16815260200190815260200160002060006101000a81548160ff0219169083151502179055508173ffffffffffffffffffffffffffffffffffffffff163373ffffffffffffffffffffffffffffffffffffffff167f17307eab39ab6107e8899845ad3d59bd9653f200f220920489ca2b5937696c3183604051808215151515815260200191505060405180910390a35050565b6000806000600c6000858152602001908152602001600020549250600b6000858152602001908152602001600020549150600073ffffffffffffffffffffffffffffffffffffffff166003600086815260200190815260200160002060009054906101000a900473ffffffffffffffffffffffffffffffffffffffff1673ffffffffffffffffffffffffffffffffffffffff161415156116bc57600190505b9193909250565b60015481565b60096020528060005260406000206000915090505481565b600080600080600033945034600b60008881526020019081526020016000205414151561170d57600080fd5b34600c60008881526020019081526020016000208190555061173960143461239890919063ffffffff16565b935061174f60143461239890919063ffffffff16565b9250611764838561219790919063ffffffff16565b9150611779823461237f90919063ffffffff16565b90506002600087815260200190815260200160002060009054906101000a900473ffffffffffffffffffffffffffffffffffffffff1673ffffffffffffffffffffffffffffffffffffffff166201869f82604051600060405180830381858888f1935050505015156117ea57600080fd5b3073ffffffffffffffffffffffffffffffffffffffff166323b872dd6002600089815260200190815260200160002060009054906101000a900473ffffffffffffffffffffffffffffffffffffffff1687896040518463ffffffff167c0100000000000000000000000000000000000000000000000000000000028152600401808473ffffffffffffffffffffffffffffffffffffffff1673ffffffffffffffffffffffffffffffffffffffff1681526020018373ffffffffffffffffffffffffffffffffffffffff1673ffffffffffffffffffffffffffffffffffffffff1681526020018281526020019350505050600060405180830381600087803b1580156118f457600080fd5b505af1158015611908573d6000803e3d6000fd5b50505050600a60009054906101000a900473ffffffffffffffffffffffffffffffffffffffff1673ffffffffffffffffffffffffffffffffffffffff166201869f84604051600060405180830381858888f1935050505015156119f9576040517f08c379a00000000000000000000000000000000000000000000000000000000081526004018080602001828103825260258152602001807f7472616e7366657220746f20696e667261737472756374757265506f6f6c206681526020017f61696c656400000000000000000000000000000000000000000000000000000081525060400191505060405180910390fd5b505050505050565b60085481565b6000600560008473ffffffffffffffffffffffffffffffffffffffff1673ffffffffffffffffffffffffffffffffffffffff16815260200190815260200160002060008373ffffffffffffffffffffffffffffffffffffffff1673ffffffffffffffffffffffffffffffffffffffff16815260200190815260200160002060009054906101000a900460ff16905092915050565b60028060ff16611aaa33610e8a565b6002811115611ab557fe5b60ff16141515611ac457600080fd5b81600a60006101000a81548173ffffffffffffffffffffffffffffffffffffffff021916908373ffffffffffffffffffffffffffffffffffffffff1602179055505050565b60028060ff16611b1833610e8a565b6002811115611b2357fe5b60ff16141515611b3257600080fd5b8260ff166002811115611b4157fe5b6000808473ffffffffffffffffffffffffffffffffffffffff1673ffffffffffffffffffffffffffffffffffffffff16815260200190815260200160002060006101000a81548160ff02191690836002811115611b9a57fe5b0217905550505050565b60018060ff16611bb333610e8a565b6002811115611bbe57fe5b60ff16141515611bcd57600080fd5b611bd86001836123b3565b5050565b60028060ff16611beb33610e8a565b6002811115611bf657fe5b60ff16141515611c0557600080fd5b600073ffffffffffffffffffffffffffffffffffffffff168573ffffffffffffffffffffffffffffffffffffffff1614151515611c4157600080fd5b611c4b858561203d565b611c606001805461219790919063ffffffff16565b6001819055508282600660008781526020019081526020016000206000019190611c8b92919061255e565b508473ffffffffffffffffffffffffffffffffffffffff16600073ffffffffffffffffffffffffffffffffffffffff167fddf252ad1be2c89b69c2b068fc378daa952ba7f163c4a11628f55a4df523b3ef866040518082815260200191505060405180910390a35050505050565b611d033083610b04565b80600b6000848152602001908152602001600020819055507fec3759d55f609c6666198ab6e098bbe8937fead3e8aa740c199b7ba1110642188282604051808381526020018281526020019250505060405180910390a15050565b6000600960003373ffffffffffffffffffffffffffffffffffffffff1673ffffffffffffffffffffffffffffffffffffffff16815260200190815260200160002054905090565b8173ffffffffffffffffffffffffffffffffffffffff16611dc5826112c3565b73ffffffffffffffffffffffffffffffffffffffff16141515611de757600080fd5b600073ffffffffffffffffffffffffffffffffffffffff166003600083815260200190815260200160002060009054906101000a900473ffffffffffffffffffffffffffffffffffffffff1673ffffffffffffffffffffffffffffffffffffffff16141515611f0a5760006003600083815260200190815260200160002060006101000a81548173ffffffffffffffffffffffffffffffffffffffff021916908373ffffffffffffffffffffffffffffffffffffffff160217905550600073ffffffffffffffffffffffffffffffffffffffff168273ffffffffffffffffffffffffffffffffffffffff167f8c5be1e5ebec7d5bd14f71427d1e84f3dd0314c0f7b2291e5b200ac8c7c3b925836040518082815260200191505060405180910390a35b5050565b8173ffffffffffffffffffffffffffffffffffffffff16611f2e826112c3565b73ffffffffffffffffffffffffffffffffffffffff16141515611f5057600080fd5b611fa36001600460008573ffffffffffffffffffffffffffffffffffffffff1673ffffffffffffffffffffffffffffffffffffffff1681526020019081526020016000205461237f90919063ffffffff16565b600460008473ffffffffffffffffffffffffffffffffffffffff1673ffffffffffffffffffffffffffffffffffffffff1681526020019081526020016000208190555060006002600083815260200190815260200160002060006101000a81548173ffffffffffffffffffffffffffffffffffffffff021916908373ffffffffffffffffffffffffffffffffffffffff1602179055505050565b600073ffffffffffffffffffffffffffffffffffffffff166002600083815260200190815260200160002060009054906101000a900473ffffffffffffffffffffffffffffffffffffffff1673ffffffffffffffffffffffffffffffffffffffff161415156120ab57600080fd5b816002600083815260200190815260200160002060006101000a81548173ffffffffffffffffffffffffffffffffffffffff021916908373ffffffffffffffffffffffffffffffffffffffff1602179055506121506001600460008573ffffffffffffffffffffffffffffffffffffffff1673ffffffffffffffffffffffffffffffffffffffff1681526020019081526020016000205461219790919063ffffffff16565b600460008473ffffffffffffffffffffffffffffffffffffffff1673ffffffffffffffffffffffffffffffffffffffff168152602001908152602001600020819055505050565b60008082840190508381101515156121ab57fe5b8091505092915050565b6000806000808492506000600960008573ffffffffffffffffffffffffffffffffffffffff1673ffffffffffffffffffffffffffffffffffffffff1681526020019081526020016000205411151561220c57600080fd5b3073ffffffffffffffffffffffffffffffffffffffff1631915061228c60075461227e600960008773ffffffffffffffffffffffffffffffffffffffff1673ffffffffffffffffffffffffffffffffffffffff16815260200190815260200160002054856124cd90919063ffffffff16565b61239890919063ffffffff16565b90506000811415151561229e57600080fd5b803073ffffffffffffffffffffffffffffffffffffffff1631101515156122c457600080fd5b6122d98160085461219790919063ffffffff16565b6008819055508273ffffffffffffffffffffffffffffffffffffffff166108fc829081150290604051600060405180830381858888f19350505050158015612325573d6000803e3d6000fd5b5061236e600960008573ffffffffffffffffffffffffffffffffffffffff1673ffffffffffffffffffffffffffffffffffffffff16815260200190815260200160002054612508565b61237783612516565b505050919050565b600082821115151561238d57fe5b818303905092915050565b60008082848115156123a657fe5b0490508091505092915050565b61243882600960006002600086815260200190815260200160002060009054906101000a900473ffffffffffffffffffffffffffffffffffffffff1673ffffffffffffffffffffffffffffffffffffffff1673ffffffffffffffffffffffffffffffffffffffff1681526020019081526020016000205461219790919063ffffffff16565b600960006002600085815260200190815260200160002060009054906101000a900473ffffffffffffffffffffffffffffffffffffffff1673ffffffffffffffffffffffffffffffffffffffff1673ffffffffffffffffffffffffffffffffffffffff168152602001908152602001600020819055506124c38260075461219790919063ffffffff16565b6007819055505050565b60008060008414156124e25760009150612501565b82840290508284828115156124f357fe5b041415156124fd57fe5b8091505b5092915050565b806007540360078190555050565b6000600960008373ffffffffffffffffffffffffffffffffffffffff1673ffffffffffffffffffffffffffffffffffffffff1681526020019081526020016000208190555050565b828054600181600116156101000203166002900490600052602060002090601f016020900481019282601f1061259f57803560ff19168380011785556125cd565b828001600101855582156125cd579182015b828111156125cc5782358255916020019190600101906125b1565b5b5090506125da9190612602565b5090565b610ca060405190810160405280606590602082028038833980820191505090505090565b61262491905b80821115612620576000816000905550600101612608565b5090565b905600a165627a7a72305820af96bd555f77c4a76fffbc02a41a1e22f9ab0d4fca9d26b2c271f8a75dec88320029",
  "source": "pragma solidity ^0.4.23;\nimport \"./bloomingPool.sol\";\nimport \"./ERC721BasicToken.sol\";\n\ncontract buyable is bloomingPool {\n\n    address INFRASTRUCTURE_POOL_ADDRESS;\n    mapping (uint256 => uint256) TokenIdtosetprice;\n    mapping (uint256 => uint256) TokenIdtoprice;\n\n    event Set_price_and_sell(uint256 tokenId, uint256 Price);\n    event Stop_sell(uint256 tokenId);\n\n    constructor() public {}\n\n    function initialisation(address _infrastructure_address) public check(2){\n        INFRASTRUCTURE_POOL_ADDRESS = _infrastructure_address;\n    }\n\n    function set_price_and_sell(uint256 UniqueID,uint256 Price) external {\n        approve(address(this), UniqueID);\n        TokenIdtosetprice[UniqueID] = Price;\n        emit Set_price_and_sell(UniqueID, Price);\n    }\n\n    function stop_sell(uint256 UniqueID) external payable{\n        require(tokenOwner[UniqueID] == msg.sender);\n        clearApproval(tokenOwner[UniqueID],UniqueID);\n        emit Stop_sell(UniqueID);\n    }\n\n    function buy(uint256 UniqueID) external payable {\n        address _to = msg.sender;\n        require(TokenIdtosetprice[UniqueID] == msg.value);\n        TokenIdtoprice[UniqueID] = msg.value;\n        uint _blooming = msg.value.div(20);\n        uint _infrastructure = msg.value.div(20);\n        uint _combined = _blooming.add(_infrastructure);\n        uint _amount_for_seller = msg.value.sub(_combined);\n        require(tokenOwner[UniqueID].call.gas(99999).value(_amount_for_seller)());\n        this.transferFrom(tokenOwner[UniqueID], _to, UniqueID);\n        if(!INFRASTRUCTURE_POOL_ADDRESS.call.gas(99999).value(_infrastructure)()){\n            revert(\"transfer to infrastructurePool failed\");\n\t\t}\n    }\n\n    function get_token_data(uint256 _tokenId) external view returns(uint256 _price, uint256 _setprice, bool _buyable){\n        _price = TokenIdtoprice[_tokenId];\n        _setprice = TokenIdtosetprice[_tokenId];\n        if (tokenApprovals[_tokenId] != address(0)){\n            _buyable = true;\n        }\n    }\n\n    function get_token_data_buyable(uint256 _tokenId) external view returns(bool _buyable) {\n        if (tokenApprovals[_tokenId] != address(0)){\n            _buyable = true;\n        }\n    }\n\n    function get_all_sellable_token()external view returns(bool[101] list_of_available){\n        uint i;\n        for(i = 0;i<101;i++) {\n            if (tokenApprovals[i] != address(0)){\n                list_of_available[i] = true;\n          }else{\n                list_of_available[i] = false;\n          }\n        }\n    }\n    function get_my_tokens()external view returns(bool[101] list_of_my_tokens){\n        uint i;\n        address _owner = msg.sender;\n        for(i = 0;i<101;i++) {\n            if (tokenOwner[i] == _owner){\n                list_of_my_tokens[i] = true;\n          }else{\n                list_of_my_tokens[i] = false;\n          }\n        }\n    }\n\n}\n",
  "sourcePath": "/Users/paul/Documents/Dev/final_contracts/source/ERC721/contracts/buyable.sol",
  "compiler": {
    "name": "solc",
    "version": "0.4.24+commit.e67f0147.Emscripten.clang"
  },
  "schemaVersion": "2.0.1",
  "updatedAt": "2018-07-02T21:13:47.630Z"
}