{
  "contractName": "buyable",
  "abi": [
    {
      "constant": false,
      "inputs": [
        {
          "name": "_tokenId",
          "type": "uint256"
        },
        {
          "name": "new_uri",
          "type": "string"
        }
      ],
      "name": "updatetoken",
      "outputs": [],
      "payable": false,
      "stateMutability": "nonpayable",
      "type": "function"
    },
    {
      "constant": true,
      "inputs": [
        {
          "name": "_tokenId",
          "type": "uint256"
        }
      ],
      "name": "getApproved",
      "outputs": [
        {
          "name": "",
          "type": "address"
        }
      ],
      "payable": false,
      "stateMutability": "view",
      "type": "function"
    },
    {
      "constant": false,
      "inputs": [
        {
          "name": "_to",
          "type": "address"
        },
        {
          "name": "_tokenId",
          "type": "uint256"
        }
      ],
      "name": "approve",
      "outputs": [],
      "payable": false,
      "stateMutability": "nonpayable",
      "type": "function"
    },
    {
      "constant": false,
      "inputs": [
        {
          "name": "_freeze",
          "type": "bool"
        }
      ],
      "name": "freeze_pool",
      "outputs": [],
      "payable": false,
      "stateMutability": "nonpayable",
      "type": "function"
    },
    {
      "constant": false,
      "inputs": [
        {
          "name": "_from",
          "type": "address"
        },
        {
          "name": "_to",
          "type": "address"
        },
        {
          "name": "_tokenId",
          "type": "uint256"
        }
      ],
      "name": "transferFrom",
      "outputs": [],
      "payable": false,
      "stateMutability": "nonpayable",
      "type": "function"
    },
    {
      "constant": true,
      "inputs": [],
      "name": "totalShares",
      "outputs": [
        {
          "name": "",
          "type": "uint256"
        }
      ],
      "payable": false,
      "stateMutability": "view",
      "type": "function"
    },
    {
      "constant": true,
      "inputs": [
        {
          "name": "_spender",
          "type": "address"
        },
        {
          "name": "_tokenId",
          "type": "uint256"
        }
      ],
      "name": "isApprovedOrOwner",
      "outputs": [
        {
          "name": "",
          "type": "bool"
        }
      ],
      "payable": false,
      "stateMutability": "view",
      "type": "function"
    },
    {
      "constant": true,
      "inputs": [
        {
          "name": "entity",
          "type": "address"
        }
      ],
      "name": "getRole",
      "outputs": [
        {
          "name": "",
          "type": "uint8"
        }
      ],
      "payable": false,
      "stateMutability": "view",
      "type": "function"
    },
    {
      "constant": false,
      "inputs": [
        {
          "name": "_to",
          "type": "address"
        },
        {
          "name": "_tokenId",
          "type": "uint256"
        }
      ],
      "name": "_mint",
      "outputs": [],
      "payable": false,
      "stateMutability": "nonpayable",
      "type": "function"
    },
    {
      "constant": false,
      "inputs": [],
      "name": "claim",
      "outputs": [],
      "payable": false,
      "stateMutability": "nonpayable",
      "type": "function"
    },
    {
      "constant": true,
      "inputs": [
        {
          "name": "_tokenId",
          "type": "uint256"
        }
      ],
      "name": "exists",
      "outputs": [
        {
          "name": "",
          "type": "bool"
        }
      ],
      "payable": false,
      "stateMutability": "view",
      "type": "function"
    },
    {
      "constant": false,
      "inputs": [
        {
          "name": "_owner",
          "type": "address"
        },
        {
          "name": "_tokenId",
          "type": "uint256"
        }
      ],
      "name": "_burn",
      "outputs": [],
      "payable": false,
      "stateMutability": "nonpayable",
      "type": "function"
    },
    {
      "constant": true,
      "inputs": [],
      "name": "freeze",
      "outputs": [
        {
          "name": "",
          "type": "bool"
        }
      ],
      "payable": false,
      "stateMutability": "view",
      "type": "function"
    },
    {
      "constant": true,
      "inputs": [
        {
          "name": "_tokenId",
          "type": "uint256"
        }
      ],
      "name": "ownerOf",
      "outputs": [
        {
          "name": "",
          "type": "address"
        }
      ],
      "payable": false,
      "stateMutability": "view",
      "type": "function"
    },
    {
      "constant": true,
      "inputs": [
        {
          "name": "_owner",
          "type": "address"
        }
      ],
      "name": "balanceOf",
      "outputs": [
        {
          "name": "",
          "type": "uint256"
        }
      ],
      "payable": false,
      "stateMutability": "view",
      "type": "function"
    },
    {
      "constant": false,
      "inputs": [
        {
          "name": "_to",
          "type": "address"
        },
        {
          "name": "_approved",
          "type": "bool"
        }
      ],
      "name": "setApprovalForAll",
      "outputs": [],
      "payable": false,
      "stateMutability": "nonpayable",
      "type": "function"
    },
    {
      "constant": true,
      "inputs": [],
      "name": "numTokensTotal",
      "outputs": [
        {
          "name": "",
          "type": "uint256"
        }
      ],
      "payable": false,
      "stateMutability": "view",
      "type": "function"
    },
    {
      "constant": true,
      "inputs": [
        {
          "name": "",
          "type": "address"
        }
      ],
      "name": "shares",
      "outputs": [
        {
          "name": "",
          "type": "uint256"
        }
      ],
      "payable": false,
      "stateMutability": "view",
      "type": "function"
    },
    {
      "constant": true,
      "inputs": [],
      "name": "totalReleased",
      "outputs": [
        {
          "name": "",
          "type": "uint256"
        }
      ],
      "payable": false,
      "stateMutability": "view",
      "type": "function"
    },
    {
      "constant": true,
      "inputs": [
        {
          "name": "_owner",
          "type": "address"
        },
        {
          "name": "_operator",
          "type": "address"
        }
      ],
      "name": "isApprovedForAll",
      "outputs": [
        {
          "name": "",
          "type": "bool"
        }
      ],
      "payable": false,
      "stateMutability": "view",
      "type": "function"
    },
    {
      "constant": false,
      "inputs": [
        {
          "name": "rolevalue",
          "type": "uint8"
        },
        {
          "name": "entity",
          "type": "address"
        }
      ],
      "name": "setRole",
      "outputs": [],
      "payable": false,
      "stateMutability": "nonpayable",
      "type": "function"
    },
    {
      "constant": false,
      "inputs": [
        {
          "name": "unique_id",
          "type": "uint256"
        }
      ],
      "name": "oracle_call",
      "outputs": [],
      "payable": false,
      "stateMutability": "nonpayable",
      "type": "function"
    },
    {
      "constant": false,
      "inputs": [
        {
          "name": "_to",
          "type": "address"
        },
        {
          "name": "_tokenId",
          "type": "uint256"
        },
        {
          "name": "new_uri",
          "type": "string"
        }
      ],
      "name": "_mint_with_uri",
      "outputs": [],
      "payable": false,
      "stateMutability": "nonpayable",
      "type": "function"
    },
    {
      "constant": true,
      "inputs": [],
      "name": "get_shares",
      "outputs": [
        {
          "name": "individual_shares",
          "type": "uint256"
        }
      ],
      "payable": false,
      "stateMutability": "view",
      "type": "function"
    },
    {
      "inputs": [],
      "payable": false,
      "stateMutability": "nonpayable",
      "type": "constructor"
    },
    {
      "payable": true,
      "stateMutability": "payable",
      "type": "fallback"
    },
    {
      "anonymous": false,
      "inputs": [
        {
          "indexed": false,
          "name": "tokenId",
          "type": "uint256"
        },
        {
          "indexed": false,
          "name": "Price",
          "type": "uint256"
        }
      ],
      "name": "Set_price_and_sell",
      "type": "event"
    },
    {
      "anonymous": false,
      "inputs": [
        {
          "indexed": false,
          "name": "tokenId",
          "type": "uint256"
        }
      ],
      "name": "Stop_sell",
      "type": "event"
    },
    {
      "anonymous": false,
      "inputs": [
        {
          "indexed": false,
          "name": "_tokenId",
          "type": "uint256"
        },
        {
          "indexed": false,
          "name": "new_uri",
          "type": "string"
        }
      ],
      "name": "UpdateToken",
      "type": "event"
    },
    {
      "anonymous": false,
      "inputs": [
        {
          "indexed": true,
          "name": "_from",
          "type": "address"
        },
        {
          "indexed": true,
          "name": "_to",
          "type": "address"
        },
        {
          "indexed": false,
          "name": "_tokenId",
          "type": "uint256"
        }
      ],
      "name": "Transfer",
      "type": "event"
    },
    {
      "anonymous": false,
      "inputs": [
        {
          "indexed": true,
          "name": "_owner",
          "type": "address"
        },
        {
          "indexed": true,
          "name": "_approved",
          "type": "address"
        },
        {
          "indexed": false,
          "name": "_tokenId",
          "type": "uint256"
        }
      ],
      "name": "Approval",
      "type": "event"
    },
    {
      "anonymous": false,
      "inputs": [
        {
          "indexed": true,
          "name": "_owner",
          "type": "address"
        },
        {
          "indexed": true,
          "name": "_operator",
          "type": "address"
        },
        {
          "indexed": false,
          "name": "_approved",
          "type": "bool"
        }
      ],
      "name": "ApprovalForAll",
      "type": "event"
    },
    {
      "constant": false,
      "inputs": [
        {
          "name": "_infrastructure_address",
          "type": "address"
        }
      ],
      "name": "initialisation",
      "outputs": [],
      "payable": false,
      "stateMutability": "nonpayable",
      "type": "function"
    },
    {
      "constant": false,
      "inputs": [
        {
          "name": "UniqueID",
          "type": "uint256"
        },
        {
          "name": "Price",
          "type": "uint256"
        }
      ],
      "name": "set_price_and_sell",
      "outputs": [],
      "payable": false,
      "stateMutability": "nonpayable",
      "type": "function"
    },
    {
      "constant": false,
      "inputs": [
        {
          "name": "UniqueID",
          "type": "uint256"
        }
      ],
      "name": "stop_sell",
      "outputs": [],
      "payable": true,
      "stateMutability": "payable",
      "type": "function"
    },
    {
      "constant": false,
      "inputs": [
        {
          "name": "UniqueID",
          "type": "uint256"
        }
      ],
      "name": "buy",
      "outputs": [],
      "payable": true,
      "stateMutability": "payable",
      "type": "function"
    },
    {
      "constant": true,
      "inputs": [
        {
          "name": "_tokenId",
          "type": "uint256"
        }
      ],
      "name": "get_token_data",
      "outputs": [
        {
          "name": "_price",
          "type": "uint256"
        },
        {
          "name": "_setprice",
          "type": "uint256"
        },
        {
          "name": "_buyable",
          "type": "bool"
        }
      ],
      "payable": false,
      "stateMutability": "view",
      "type": "function"
    },
    {
      "constant": true,
      "inputs": [
        {
          "name": "_tokenId",
          "type": "uint256"
        }
      ],
      "name": "get_token_data_buyable",
      "outputs": [
        {
          "name": "_buyable",
          "type": "bool"
        }
      ],
      "payable": false,
      "stateMutability": "view",
      "type": "function"
    },
    {
      "constant": true,
      "inputs": [],
      "name": "get_all_sellable_token",
      "outputs": [
        {
          "name": "list_of_available",
          "type": "bool[101]"
        }
      ],
      "payable": false,
      "stateMutability": "view",
      "type": "function"
    },
    {
      "constant": true,
      "inputs": [],
      "name": "get_my_tokens",
      "outputs": [
        {
          "name": "list_of_my_tokens",
          "type": "bool[101]"
        }
      ],
      "payable": false,
      "stateMutability": "view",
      "type": "function"
    }
  ],
  "bytecode": "0x60806040526000600755600060085534801561001a57600080fd5b5060028081111561002757fe5b6000803373ffffffffffffffffffffffffffffffffffffffff1673ffffffffffffffffffffffffffffffffffffffff16815260200190815260200160002060006101000a81548160ff0219169083600281111561008057fe5b02179055506000600960006101000a81548160ff021916908315150217905550612743806100af6000396000f300608060405260043610610196576000357c0100000000000000000000000000000000000000000000000000000000900463ffffffff16806303ad4be314610198578063081812fc146101dd578063095ea7b31461024a57806312be78d11461029757806323b872dd146102c65780633a98ef3914610333578063430c20811461035e57806344276733146103c3578063454ca9fd146104285780634e6ec2471461047b5780634e71d92d146104c85780634f558e79146104df578063609a54b0146105245780636161eb181461057757806362a5af3b146105c45780636352211e146105f35780636effb5791461066057806370a08231146106805780637c968f5d146106d7578063a22cb4651461071c578063a726be9a1461076b578063af129dc2146107be578063ce7c2ac2146107e9578063d96a094a14610840578063e33b7de314610860578063e985e9c51461088b578063ebd2ca4414610906578063f2e12a3914610949578063f3f7067414610999578063f4a8a699146109c6578063f7b42d0814610a2b578063f8bdc9dd14610a62575b005b3480156101a457600080fd5b506101db60048036038101908080359060200190929190803590602001908201803590602001919091929391929390505050610a8d565b005b3480156101e957600080fd5b5061020860048036038101908080359060200190929190505050610b3b565b604051808273ffffffffffffffffffffffffffffffffffffffff1673ffffffffffffffffffffffffffffffffffffffff16815260200191505060405180910390f35b34801561025657600080fd5b50610295600480360381019080803573ffffffffffffffffffffffffffffffffffffffff16906020019092919080359060200190929190505050610b78565b005b3480156102a357600080fd5b506102c4600480360381019080803515159060200190929190505050610d4c565b005b3480156102d257600080fd5b50610331600480360381019080803573ffffffffffffffffffffffffffffffffffffffff169060200190929190803573ffffffffffffffffffffffffffffffffffffffff16906020019092919080359060200190929190505050610d93565b005b34801561033f57600080fd5b50610348610eaa565b6040518082815260200191505060405180910390f35b34801561036a57600080fd5b506103a9600480360381019080803573ffffffffffffffffffffffffffffffffffffffff16906020019092919080359060200190929190505050610eb0565b604051808215151515815260200191505060405180910390f35b3480156103cf57600080fd5b50610404600480360381019080803573ffffffffffffffffffffffffffffffffffffffff169060200190929190505050610f45565b6040518082600281111561041457fe5b60ff16815260200191505060405180910390f35b34801561043457600080fd5b5061043d610f9a565b6040518082606560200280838360005b8381101561046857808201518184015260208101905061044d565b5050505090500191505060405180910390f35b34801561048757600080fd5b506104c6600480360381019080803573ffffffffffffffffffffffffffffffffffffffff16906020019092919080359060200190929190505050611073565b005b3480156104d457600080fd5b506104dd611168565b005b3480156104eb57600080fd5b5061050a60048036038101908080359060200190929190505050611174565b604051808215151515815260200191505060405180910390f35b34801561053057600080fd5b506105396111e6565b6040518082606560200280838360005b83811015610564578082015181840152602081019050610549565b5050505090500191505060405180910390f35b34801561058357600080fd5b506105c2600480360381019080803573ffffffffffffffffffffffffffffffffffffffff169060200190929190803590602001909291905050506112bb565b005b3480156105d057600080fd5b506105d961137e565b604051808215151515815260200191505060405180910390f35b3480156105ff57600080fd5b5061061e60048036038101908080359060200190929190505050611391565b604051808273ffffffffffffffffffffffffffffffffffffffff1673ffffffffffffffffffffffffffffffffffffffff16815260200191505060405180910390f35b61067e600480360381019080803590602001909291905050506113d3565b005b34801561068c57600080fd5b506106c1600480360381019080803573ffffffffffffffffffffffffffffffffffffffff1690602001909291905050506114b7565b6040518082815260200191505060405180910390f35b3480156106e357600080fd5b506107026004803603810190808035906020019092919050505061153b565b604051808215151515815260200191505060405180910390f35b34801561072857600080fd5b50610769600480360381019080803573ffffffffffffffffffffffffffffffffffffffff1690602001909291908035151590602001909291905050506115af565b005b34801561077757600080fd5b50610796600480360381019080803590602001909291905050506116eb565b6040518084815260200183815260200182151515158152602001935050505060405180910390f35b3480156107ca57600080fd5b506107d3611791565b6040518082815260200191505060405180910390f35b3480156107f557600080fd5b5061082a600480360381019080803573ffffffffffffffffffffffffffffffffffffffff169060200190929190505050611797565b6040518082815260200191505060405180910390f35b61085e600480360381019080803590602001909291905050506117af565b005b34801561086c57600080fd5b50610875611acf565b6040518082815260200191505060405180910390f35b34801561089757600080fd5b506108ec600480360381019080803573ffffffffffffffffffffffffffffffffffffffff169060200190929190803573ffffffffffffffffffffffffffffffffffffffff169060200190929190505050611ad5565b604051808215151515815260200191505060405180910390f35b34801561091257600080fd5b50610947600480360381019080803573ffffffffffffffffffffffffffffffffffffffff169060200190929190505050611b69565b005b34801561095557600080fd5b50610997600480360381019080803560ff169060200190929190803573ffffffffffffffffffffffffffffffffffffffff169060200190929190505050611bd7565b005b3480156109a557600080fd5b506109c460048036038101908080359060200190929190505050611c72565b005b3480156109d257600080fd5b50610a29600480360381019080803573ffffffffffffffffffffffffffffffffffffffff16906020019092919080359060200190929190803590602001908201803590602001919091929391929390505050611caa565b005b348015610a3757600080fd5b50610a606004803603810190808035906020019092919080359060200190929190505050611dc7565b005b348015610a6e57600080fd5b50610a77611e2c565b6040518082815260200191505060405180910390f35b60018060ff16610a9c33610f45565b6002811115610aa757fe5b60ff16141515610ab657600080fd5b8282600660008781526020019081526020016000206000019190610adb92919061264e565b507f53560fd2a0eb35afd8d535363033618f52ccbfc857a7bf616eb195a0ed022ef484848460405180848152602001806020018281038252848482818152602001925080828437820191505094505050505060405180910390a150505050565b60006003600083815260200190815260200160002060009054906101000a900473ffffffffffffffffffffffffffffffffffffffff169050919050565b60006002600083815260200190815260200160002060009054906101000a900473ffffffffffffffffffffffffffffffffffffffff169050826003600084815260200190815260200160002060006101000a81548173ffffffffffffffffffffffffffffffffffffffff021916908373ffffffffffffffffffffffffffffffffffffffff160217905550610c0b82611391565b73ffffffffffffffffffffffffffffffffffffffff168373ffffffffffffffffffffffffffffffffffffffff1614151515610c4557600080fd5b8073ffffffffffffffffffffffffffffffffffffffff163373ffffffffffffffffffffffffffffffffffffffff161480610c855750610c848133611ad5565b5b1515610c9057600080fd5b826003600084815260200190815260200160002060006101000a81548173ffffffffffffffffffffffffffffffffffffffff021916908373ffffffffffffffffffffffffffffffffffffffff1602179055508273ffffffffffffffffffffffffffffffffffffffff168173ffffffffffffffffffffffffffffffffffffffff167f8c5be1e5ebec7d5bd14f71427d1e84f3dd0314c0f7b2291e5b200ac8c7c3b925846040518082815260200191505060405180910390a3505050565b60028060ff16610d5b33610f45565b6002811115610d6657fe5b60ff16141515610d7557600080fd5b81600960006101000a81548160ff0219169083151502179055505050565b80610d9e3382610eb0565b1515610da957600080fd5b600073ffffffffffffffffffffffffffffffffffffffff168473ffffffffffffffffffffffffffffffffffffffff1614151515610de557600080fd5b600073ffffffffffffffffffffffffffffffffffffffff168373ffffffffffffffffffffffffffffffffffffffff1614151515610e2157600080fd5b610e2b8483611e73565b610e358483611fdc565b610e3f838361210b565b8273ffffffffffffffffffffffffffffffffffffffff168473ffffffffffffffffffffffffffffffffffffffff167fddf252ad1be2c89b69c2b068fc378daa952ba7f163c4a11628f55a4df523b3ef846040518082815260200191505060405180910390a350505050565b60075481565b600080610ebc83611391565b90508073ffffffffffffffffffffffffffffffffffffffff168473ffffffffffffffffffffffffffffffffffffffff161480610f2b57508373ffffffffffffffffffffffffffffffffffffffff16610f1384610b3b565b73ffffffffffffffffffffffffffffffffffffffff16145b80610f3c5750610f3b8185611ad5565b5b91505092915050565b60008060008373ffffffffffffffffffffffffffffffffffffffff1673ffffffffffffffffffffffffffffffffffffffff16815260200190815260200160002060009054906101000a900460ff169050919050565b610fa26126ce565b600080339050600091505b606582101561106e578073ffffffffffffffffffffffffffffffffffffffff166002600084815260200190815260200160002060009054906101000a900473ffffffffffffffffffffffffffffffffffffffff1673ffffffffffffffffffffffffffffffffffffffff161415611041576001838360658110151561102d57fe5b602002019015159081151581525050611061565b6000838360658110151561105157fe5b6020020190151590811515815250505b8180600101925050610fad565b505090565b60028060ff1661108233610f45565b600281111561108d57fe5b60ff1614151561109c57600080fd5b600073ffffffffffffffffffffffffffffffffffffffff168373ffffffffffffffffffffffffffffffffffffffff16141515156110d857600080fd5b6110e2838361210b565b6110f76001805461226590919063ffffffff16565b6001819055508273ffffffffffffffffffffffffffffffffffffffff16600073ffffffffffffffffffffffffffffffffffffffff167fddf252ad1be2c89b69c2b068fc378daa952ba7f163c4a11628f55a4df523b3ef846040518082815260200191505060405180910390a3505050565b61117133612283565b50565b6000806002600084815260200190815260200160002060009054906101000a900473ffffffffffffffffffffffffffffffffffffffff169050600073ffffffffffffffffffffffffffffffffffffffff168173ffffffffffffffffffffffffffffffffffffffff161415915050919050565b6111ee6126ce565b60008090505b60658110156112b757600073ffffffffffffffffffffffffffffffffffffffff166003600083815260200190815260200160002060009054906101000a900473ffffffffffffffffffffffffffffffffffffffff1673ffffffffffffffffffffffffffffffffffffffff1614151561128a576001828260658110151561127657fe5b6020020190151590811515815250506112aa565b6000828260658110151561129a57fe5b6020020190151590811515815250505b80806001019150506111f4565b5090565b60028060ff166112ca33610f45565b60028111156112d557fe5b60ff161415156112e457600080fd5b6112ee8383611e73565b6112f88383611fdc565b61130d6001805461246f90919063ffffffff16565b600181905550600073ffffffffffffffffffffffffffffffffffffffff168373ffffffffffffffffffffffffffffffffffffffff167fddf252ad1be2c89b69c2b068fc378daa952ba7f163c4a11628f55a4df523b3ef846040518082815260200191505060405180910390a3505050565b600960009054906101000a900460ff1681565b6000806002600084815260200190815260200160002060009054906101000a900473ffffffffffffffffffffffffffffffffffffffff16905080915050919050565b3373ffffffffffffffffffffffffffffffffffffffff166002600083815260200190815260200160002060009054906101000a900473ffffffffffffffffffffffffffffffffffffffff1673ffffffffffffffffffffffffffffffffffffffff1614151561144057600080fd5b61147d6002600083815260200190815260200160002060009054906101000a900473ffffffffffffffffffffffffffffffffffffffff1682611e73565b7fb7e9f6b2d2458040a4050b0b4a3e57e203d8738815821083545a426fdf73fc9a816040518082815260200191505060405180910390a150565b60008073ffffffffffffffffffffffffffffffffffffffff168273ffffffffffffffffffffffffffffffffffffffff16141515156114f457600080fd5b600460008373ffffffffffffffffffffffffffffffffffffffff1673ffffffffffffffffffffffffffffffffffffffff168152602001908152602001600020549050919050565b60008073ffffffffffffffffffffffffffffffffffffffff166003600084815260200190815260200160002060009054906101000a900473ffffffffffffffffffffffffffffffffffffffff1673ffffffffffffffffffffffffffffffffffffffff161415156115aa57600190505b919050565b3373ffffffffffffffffffffffffffffffffffffffff168273ffffffffffffffffffffffffffffffffffffffff16141515156115ea57600080fd5b80600560003373ffffffffffffffffffffffffffffffffffffffff1673ffffffffffffffffffffffffffffffffffffffff16815260200190815260200160002060008473ffffffffffffffffffffffffffffffffffffffff1673ffffffffffffffffffffffffffffffffffffffff16815260200190815260200160002060006101000a81548160ff0219169083151502179055508173ffffffffffffffffffffffffffffffffffffffff163373ffffffffffffffffffffffffffffffffffffffff167f17307eab39ab6107e8899845ad3d59bd9653f200f220920489ca2b5937696c3183604051808215151515815260200191505060405180910390a35050565b6000806000600d6000858152602001908152602001600020549250600c6000858152602001908152602001600020549150600073ffffffffffffffffffffffffffffffffffffffff166003600086815260200190815260200160002060009054906101000a900473ffffffffffffffffffffffffffffffffffffffff1673ffffffffffffffffffffffffffffffffffffffff1614151561178a57600190505b9193909250565b60015481565b600a6020528060005260406000206000915090505481565b600080600080600033945034600c6000888152602001908152602001600020541415156117db57600080fd5b34600d60008881526020019081526020016000208190555061180760143461248890919063ffffffff16565b935061181d60143461248890919063ffffffff16565b9250611832838561226590919063ffffffff16565b9150611847823461246f90919063ffffffff16565b90506002600087815260200190815260200160002060009054906101000a900473ffffffffffffffffffffffffffffffffffffffff1673ffffffffffffffffffffffffffffffffffffffff166201869f82604051600060405180830381858888f1935050505015156118b857600080fd5b3073ffffffffffffffffffffffffffffffffffffffff166323b872dd6002600089815260200190815260200160002060009054906101000a900473ffffffffffffffffffffffffffffffffffffffff1687896040518463ffffffff167c0100000000000000000000000000000000000000000000000000000000028152600401808473ffffffffffffffffffffffffffffffffffffffff1673ffffffffffffffffffffffffffffffffffffffff1681526020018373ffffffffffffffffffffffffffffffffffffffff1673ffffffffffffffffffffffffffffffffffffffff1681526020018281526020019350505050600060405180830381600087803b1580156119c257600080fd5b505af11580156119d6573d6000803e3d6000fd5b50505050600b60009054906101000a900473ffffffffffffffffffffffffffffffffffffffff1673ffffffffffffffffffffffffffffffffffffffff166201869f84604051600060405180830381858888f193505050501515611ac7576040517f08c379a00000000000000000000000000000000000000000000000000000000081526004018080602001828103825260258152602001807f7472616e7366657220746f20696e667261737472756374757265506f6f6c206681526020017f61696c656400000000000000000000000000000000000000000000000000000081525060400191505060405180910390fd5b505050505050565b60085481565b6000600560008473ffffffffffffffffffffffffffffffffffffffff1673ffffffffffffffffffffffffffffffffffffffff16815260200190815260200160002060008373ffffffffffffffffffffffffffffffffffffffff1673ffffffffffffffffffffffffffffffffffffffff16815260200190815260200160002060009054906101000a900460ff16905092915050565b60028060ff16611b7833610f45565b6002811115611b8357fe5b60ff16141515611b9257600080fd5b81600b60006101000a81548173ffffffffffffffffffffffffffffffffffffffff021916908373ffffffffffffffffffffffffffffffffffffffff1602179055505050565b60028060ff16611be633610f45565b6002811115611bf157fe5b60ff16141515611c0057600080fd5b8260ff166002811115611c0f57fe5b6000808473ffffffffffffffffffffffffffffffffffffffff1673ffffffffffffffffffffffffffffffffffffffff16815260200190815260200160002060006101000a81548160ff02191690836002811115611c6857fe5b0217905550505050565b60018060ff16611c8133610f45565b6002811115611c8c57fe5b60ff16141515611c9b57600080fd5b611ca66001836124a3565b5050565b60028060ff16611cb933610f45565b6002811115611cc457fe5b60ff16141515611cd357600080fd5b600073ffffffffffffffffffffffffffffffffffffffff168573ffffffffffffffffffffffffffffffffffffffff1614151515611d0f57600080fd5b611d19858561210b565b611d2e6001805461226590919063ffffffff16565b6001819055508282600660008781526020019081526020016000206000019190611d5992919061264e565b508473ffffffffffffffffffffffffffffffffffffffff16600073ffffffffffffffffffffffffffffffffffffffff167fddf252ad1be2c89b69c2b068fc378daa952ba7f163c4a11628f55a4df523b3ef866040518082815260200191505060405180910390a35050505050565b611dd13083610b78565b80600c6000848152602001908152602001600020819055507fec3759d55f609c6666198ab6e098bbe8937fead3e8aa740c199b7ba1110642188282604051808381526020018281526020019250505060405180910390a15050565b6000600a60003373ffffffffffffffffffffffffffffffffffffffff1673ffffffffffffffffffffffffffffffffffffffff16815260200190815260200160002054905090565b8173ffffffffffffffffffffffffffffffffffffffff16611e9382611391565b73ffffffffffffffffffffffffffffffffffffffff16141515611eb557600080fd5b600073ffffffffffffffffffffffffffffffffffffffff166003600083815260200190815260200160002060009054906101000a900473ffffffffffffffffffffffffffffffffffffffff1673ffffffffffffffffffffffffffffffffffffffff16141515611fd85760006003600083815260200190815260200160002060006101000a81548173ffffffffffffffffffffffffffffffffffffffff021916908373ffffffffffffffffffffffffffffffffffffffff160217905550600073ffffffffffffffffffffffffffffffffffffffff168273ffffffffffffffffffffffffffffffffffffffff167f8c5be1e5ebec7d5bd14f71427d1e84f3dd0314c0f7b2291e5b200ac8c7c3b925836040518082815260200191505060405180910390a35b5050565b8173ffffffffffffffffffffffffffffffffffffffff16611ffc82611391565b73ffffffffffffffffffffffffffffffffffffffff1614151561201e57600080fd5b6120716001600460008573ffffffffffffffffffffffffffffffffffffffff1673ffffffffffffffffffffffffffffffffffffffff1681526020019081526020016000205461246f90919063ffffffff16565b600460008473ffffffffffffffffffffffffffffffffffffffff1673ffffffffffffffffffffffffffffffffffffffff1681526020019081526020016000208190555060006002600083815260200190815260200160002060006101000a81548173ffffffffffffffffffffffffffffffffffffffff021916908373ffffffffffffffffffffffffffffffffffffffff1602179055505050565b600073ffffffffffffffffffffffffffffffffffffffff166002600083815260200190815260200160002060009054906101000a900473ffffffffffffffffffffffffffffffffffffffff1673ffffffffffffffffffffffffffffffffffffffff1614151561217957600080fd5b816002600083815260200190815260200160002060006101000a81548173ffffffffffffffffffffffffffffffffffffffff021916908373ffffffffffffffffffffffffffffffffffffffff16021790555061221e6001600460008573ffffffffffffffffffffffffffffffffffffffff1673ffffffffffffffffffffffffffffffffffffffff1681526020019081526020016000205461226590919063ffffffff16565b600460008473ffffffffffffffffffffffffffffffffffffffff1673ffffffffffffffffffffffffffffffffffffffff168152602001908152602001600020819055505050565b600080828401905083811015151561227957fe5b8091505092915050565b60008060008060001515600960009054906101000a900460ff1615151415156122ab57600080fd5b8492506000600a60008573ffffffffffffffffffffffffffffffffffffffff1673ffffffffffffffffffffffffffffffffffffffff168152602001908152602001600020541115156122fc57600080fd5b3073ffffffffffffffffffffffffffffffffffffffff1631915061237c60075461236e600a60008773ffffffffffffffffffffffffffffffffffffffff1673ffffffffffffffffffffffffffffffffffffffff16815260200190815260200160002054856125bd90919063ffffffff16565b61248890919063ffffffff16565b90506000811415151561238e57600080fd5b803073ffffffffffffffffffffffffffffffffffffffff1631101515156123b457600080fd5b6123c98160085461226590919063ffffffff16565b6008819055508273ffffffffffffffffffffffffffffffffffffffff166108fc829081150290604051600060405180830381858888f19350505050158015612415573d6000803e3d6000fd5b5061245e600a60008573ffffffffffffffffffffffffffffffffffffffff1673ffffffffffffffffffffffffffffffffffffffff168152602001908152602001600020546125f8565b61246783612606565b505050919050565b600082821115151561247d57fe5b818303905092915050565b600080828481151561249657fe5b0490508091505092915050565b61252882600a60006002600086815260200190815260200160002060009054906101000a900473ffffffffffffffffffffffffffffffffffffffff1673ffffffffffffffffffffffffffffffffffffffff1673ffffffffffffffffffffffffffffffffffffffff1681526020019081526020016000205461226590919063ffffffff16565b600a60006002600085815260200190815260200160002060009054906101000a900473ffffffffffffffffffffffffffffffffffffffff1673ffffffffffffffffffffffffffffffffffffffff1673ffffffffffffffffffffffffffffffffffffffff168152602001908152602001600020819055506125b38260075461226590919063ffffffff16565b6007819055505050565b60008060008414156125d257600091506125f1565b82840290508284828115156125e357fe5b041415156125ed57fe5b8091505b5092915050565b806007540360078190555050565b6000600a60008373ffffffffffffffffffffffffffffffffffffffff1673ffffffffffffffffffffffffffffffffffffffff1681526020019081526020016000208190555050565b828054600181600116156101000203166002900490600052602060002090601f016020900481019282601f1061268f57803560ff19168380011785556126bd565b828001600101855582156126bd579182015b828111156126bc5782358255916020019190600101906126a1565b5b5090506126ca91906126f2565b5090565b610ca060405190810160405280606590602082028038833980820191505090505090565b61271491905b808211156127105760008160009055506001016126f8565b5090565b905600a165627a7a72305820b3870f8f6f39440fc0c629716abddb7f76e470858fc17224ec15bec1a87fe0840029",
  "source": "pragma solidity ^0.4.23;\nimport \"./bloomingPool.sol\";\nimport \"./ERC721BasicToken.sol\";\n\ncontract buyable is bloomingPool {\n\n    address INFRASTRUCTURE_POOL_ADDRESS;\n    mapping (uint256 => uint256) TokenIdtosetprice;\n    mapping (uint256 => uint256) TokenIdtoprice;\n\n    event Set_price_and_sell(uint256 tokenId, uint256 Price);\n    event Stop_sell(uint256 tokenId);\n\n    constructor() public {}\n\n    function initialisation(address _infrastructure_address) public check(2){\n        INFRASTRUCTURE_POOL_ADDRESS = _infrastructure_address;\n    }\n\n    function set_price_and_sell(uint256 UniqueID,uint256 Price) external {\n        approve(address(this), UniqueID);\n        TokenIdtosetprice[UniqueID] = Price;\n        emit Set_price_and_sell(UniqueID, Price);\n    }\n\n    function stop_sell(uint256 UniqueID) external payable{\n        require(tokenOwner[UniqueID] == msg.sender);\n        clearApproval(tokenOwner[UniqueID],UniqueID);\n        emit Stop_sell(UniqueID);\n    }\n\n    function buy(uint256 UniqueID) external payable {\n        address _to = msg.sender;\n        require(TokenIdtosetprice[UniqueID] == msg.value);\n        TokenIdtoprice[UniqueID] = msg.value;\n        uint _blooming = msg.value.div(20);\n        uint _infrastructure = msg.value.div(20);\n        uint _combined = _blooming.add(_infrastructure);\n        uint _amount_for_seller = msg.value.sub(_combined);\n        require(tokenOwner[UniqueID].call.gas(99999).value(_amount_for_seller)());\n        this.transferFrom(tokenOwner[UniqueID], _to, UniqueID);\n        if(!INFRASTRUCTURE_POOL_ADDRESS.call.gas(99999).value(_infrastructure)()){\n            revert(\"transfer to infrastructurePool failed\");\n\t\t}\n    }\n\n    function get_token_data(uint256 _tokenId) external view returns(uint256 _price, uint256 _setprice, bool _buyable){\n        _price = TokenIdtoprice[_tokenId];\n        _setprice = TokenIdtosetprice[_tokenId];\n        if (tokenApprovals[_tokenId] != address(0)){\n            _buyable = true;\n        }\n    }\n\n    function get_token_data_buyable(uint256 _tokenId) external view returns(bool _buyable) {\n        if (tokenApprovals[_tokenId] != address(0)){\n            _buyable = true;\n        }\n    }\n\n    function get_all_sellable_token()external view returns(bool[101] list_of_available){\n        uint i;\n        for(i = 0;i<101;i++) {\n            if (tokenApprovals[i] != address(0)){\n                list_of_available[i] = true;\n          }else{\n                list_of_available[i] = false;\n          }\n        }\n    }\n    function get_my_tokens()external view returns(bool[101] list_of_my_tokens){\n        uint i;\n        address _owner = msg.sender;\n        for(i = 0;i<101;i++) {\n            if (tokenOwner[i] == _owner){\n                list_of_my_tokens[i] = true;\n          }else{\n                list_of_my_tokens[i] = false;\n          }\n        }\n    }\n\n}\n",
  "sourcePath": "/home/mx/Dev/null/source/ERC721/contracts/buyable.sol",
  "compiler": {
    "name": "solc",
    "version": "0.4.24+commit.e67f0147.Emscripten.clang"
  },
  "schemaVersion": "2.0.1",
  "updatedAt": "2018-07-13T20:18:15.505Z"
}