{
  "contractName": "buyable",
  "abi": [
    {
      "constant": false,
      "inputs": [
        {
          "name": "_tokenId",
          "type": "uint256"
        },
        {
          "name": "state",
          "type": "string"
        }
      ],
      "name": "updatetoken",
      "outputs": [],
      "payable": false,
      "stateMutability": "nonpayable",
      "type": "function"
    },
    {
      "constant": true,
      "inputs": [
        {
          "name": "_tokenId",
          "type": "uint256"
        }
      ],
      "name": "getApproved",
      "outputs": [
        {
          "name": "",
          "type": "address"
        }
      ],
      "payable": false,
      "stateMutability": "view",
      "type": "function"
    },
    {
      "constant": false,
      "inputs": [
        {
          "name": "_to",
          "type": "address"
        },
        {
          "name": "_tokenId",
          "type": "uint256"
        }
      ],
      "name": "approve",
      "outputs": [],
      "payable": false,
      "stateMutability": "nonpayable",
      "type": "function"
    },
    {
      "constant": false,
      "inputs": [
        {
          "name": "_from",
          "type": "address"
        },
        {
          "name": "_to",
          "type": "address"
        },
        {
          "name": "_tokenId",
          "type": "uint256"
        }
      ],
      "name": "transferFrom",
      "outputs": [],
      "payable": false,
      "stateMutability": "nonpayable",
      "type": "function"
    },
    {
      "constant": true,
      "inputs": [
        {
          "name": "_spender",
          "type": "address"
        },
        {
          "name": "_tokenId",
          "type": "uint256"
        }
      ],
      "name": "isApprovedOrOwner",
      "outputs": [
        {
          "name": "",
          "type": "bool"
        }
      ],
      "payable": false,
      "stateMutability": "view",
      "type": "function"
    },
    {
      "constant": true,
      "inputs": [
        {
          "name": "entity",
          "type": "address"
        }
      ],
      "name": "getRole",
      "outputs": [
        {
          "name": "",
          "type": "uint8"
        }
      ],
      "payable": false,
      "stateMutability": "view",
      "type": "function"
    },
    {
      "constant": false,
      "inputs": [
        {
          "name": "_to",
          "type": "address"
        },
        {
          "name": "_tokenId",
          "type": "uint256"
        }
      ],
      "name": "_mint",
      "outputs": [],
      "payable": false,
      "stateMutability": "nonpayable",
      "type": "function"
    },
    {
      "constant": true,
      "inputs": [
        {
          "name": "_tokenId",
          "type": "uint256"
        }
      ],
      "name": "exists",
      "outputs": [
        {
          "name": "",
          "type": "bool"
        }
      ],
      "payable": false,
      "stateMutability": "view",
      "type": "function"
    },
    {
      "constant": false,
      "inputs": [
        {
          "name": "_owner",
          "type": "address"
        },
        {
          "name": "_tokenId",
          "type": "uint256"
        }
      ],
      "name": "_burn",
      "outputs": [],
      "payable": false,
      "stateMutability": "nonpayable",
      "type": "function"
    },
    {
      "constant": true,
      "inputs": [
        {
          "name": "_tokenId",
          "type": "uint256"
        }
      ],
      "name": "ownerOf",
      "outputs": [
        {
          "name": "",
          "type": "address"
        }
      ],
      "payable": false,
      "stateMutability": "view",
      "type": "function"
    },
    {
      "constant": true,
      "inputs": [
        {
          "name": "_owner",
          "type": "address"
        }
      ],
      "name": "balanceOf",
      "outputs": [
        {
          "name": "",
          "type": "uint256"
        }
      ],
      "payable": false,
      "stateMutability": "view",
      "type": "function"
    },
    {
      "constant": false,
      "inputs": [
        {
          "name": "_to",
          "type": "address"
        },
        {
          "name": "_approved",
          "type": "bool"
        }
      ],
      "name": "setApprovalForAll",
      "outputs": [],
      "payable": false,
      "stateMutability": "nonpayable",
      "type": "function"
    },
    {
      "constant": true,
      "inputs": [],
      "name": "numTokensTotal",
      "outputs": [
        {
          "name": "",
          "type": "uint256"
        }
      ],
      "payable": false,
      "stateMutability": "view",
      "type": "function"
    },
    {
      "constant": true,
      "inputs": [
        {
          "name": "_owner",
          "type": "address"
        },
        {
          "name": "_operator",
          "type": "address"
        }
      ],
      "name": "isApprovedForAll",
      "outputs": [
        {
          "name": "",
          "type": "bool"
        }
      ],
      "payable": false,
      "stateMutability": "view",
      "type": "function"
    },
    {
      "constant": false,
      "inputs": [
        {
          "name": "rolevalue",
          "type": "uint8"
        },
        {
          "name": "entity",
          "type": "address"
        }
      ],
      "name": "setRole",
      "outputs": [],
      "payable": false,
      "stateMutability": "nonpayable",
      "type": "function"
    },
    {
      "inputs": [],
      "payable": false,
      "stateMutability": "nonpayable",
      "type": "constructor"
    },
    {
      "anonymous": false,
      "inputs": [
        {
          "indexed": false,
          "name": "tokenId",
          "type": "uint256"
        },
        {
          "indexed": false,
          "name": "Price",
          "type": "uint256"
        }
      ],
      "name": "Set_price_and_sell",
      "type": "event"
    },
    {
      "anonymous": false,
      "inputs": [
        {
          "indexed": false,
          "name": "tokenId",
          "type": "uint256"
        }
      ],
      "name": "Stop_sell",
      "type": "event"
    },
    {
      "anonymous": false,
      "inputs": [
        {
          "indexed": false,
          "name": "_tokenId",
          "type": "uint256"
        },
        {
          "indexed": false,
          "name": "state",
          "type": "string"
        }
      ],
      "name": "UpdateToken",
      "type": "event"
    },
    {
      "anonymous": false,
      "inputs": [
        {
          "indexed": true,
          "name": "_from",
          "type": "address"
        },
        {
          "indexed": true,
          "name": "_to",
          "type": "address"
        },
        {
          "indexed": false,
          "name": "_tokenId",
          "type": "uint256"
        }
      ],
      "name": "Transfer",
      "type": "event"
    },
    {
      "anonymous": false,
      "inputs": [
        {
          "indexed": true,
          "name": "_owner",
          "type": "address"
        },
        {
          "indexed": true,
          "name": "_approved",
          "type": "address"
        },
        {
          "indexed": false,
          "name": "_tokenId",
          "type": "uint256"
        }
      ],
      "name": "Approval",
      "type": "event"
    },
    {
      "anonymous": false,
      "inputs": [
        {
          "indexed": true,
          "name": "_owner",
          "type": "address"
        },
        {
          "indexed": true,
          "name": "_operator",
          "type": "address"
        },
        {
          "indexed": false,
          "name": "_approved",
          "type": "bool"
        }
      ],
      "name": "ApprovalForAll",
      "type": "event"
    },
    {
      "constant": false,
      "inputs": [
        {
          "name": "_infrastructure_address",
          "type": "address"
        },
        {
          "name": "_blooming_address",
          "type": "address"
        }
      ],
      "name": "initialisation",
      "outputs": [],
      "payable": false,
      "stateMutability": "nonpayable",
      "type": "function"
    },
    {
      "constant": false,
      "inputs": [
        {
          "name": "UniqueID",
          "type": "uint256"
        },
        {
          "name": "Price",
          "type": "uint256"
        }
      ],
      "name": "set_price_and_sell",
      "outputs": [],
      "payable": false,
      "stateMutability": "nonpayable",
      "type": "function"
    },
    {
      "constant": false,
      "inputs": [
        {
          "name": "UniqueID",
          "type": "uint256"
        }
      ],
      "name": "stop_sell",
      "outputs": [],
      "payable": true,
      "stateMutability": "payable",
      "type": "function"
    },
    {
      "constant": false,
      "inputs": [
        {
          "name": "UniqueID",
          "type": "uint256"
        }
      ],
      "name": "buy",
      "outputs": [],
      "payable": true,
      "stateMutability": "payable",
      "type": "function"
    },
    {
      "constant": false,
      "inputs": [
        {
          "name": "_to",
          "type": "address"
        },
        {
          "name": "_amount",
          "type": "uint256"
        }
      ],
      "name": "to_seller",
      "outputs": [],
      "payable": true,
      "stateMutability": "payable",
      "type": "function"
    },
    {
      "constant": false,
      "inputs": [
        {
          "name": "_amount",
          "type": "uint256"
        }
      ],
      "name": "to_blooming_pool",
      "outputs": [],
      "payable": true,
      "stateMutability": "payable",
      "type": "function"
    },
    {
      "constant": false,
      "inputs": [
        {
          "name": "_amount",
          "type": "uint256"
        }
      ],
      "name": "to_infrastructure_pool",
      "outputs": [],
      "payable": true,
      "stateMutability": "payable",
      "type": "function"
    },
    {
      "constant": true,
      "inputs": [
        {
          "name": "_tokenId",
          "type": "uint256"
        }
      ],
      "name": "get_token_data",
      "outputs": [
        {
          "name": "_health",
          "type": "string"
        },
        {
          "name": "_height",
          "type": "string"
        },
        {
          "name": "_blooming",
          "type": "string"
        },
        {
          "name": "_price",
          "type": "uint256"
        },
        {
          "name": "_buyable",
          "type": "bool"
        }
      ],
      "payable": false,
      "stateMutability": "view",
      "type": "function"
    },
    {
      "constant": true,
      "inputs": [
        {
          "name": "_tokenId",
          "type": "uint256"
        }
      ],
      "name": "get_token_data_buyable",
      "outputs": [
        {
          "name": "_buyable",
          "type": "bool"
        }
      ],
      "payable": false,
      "stateMutability": "view",
      "type": "function"
    },
    {
      "constant": true,
      "inputs": [],
      "name": "get_all_sellable_token",
      "outputs": [
        {
          "name": "list_of_available",
          "type": "bytes1[101]"
        }
      ],
      "payable": false,
      "stateMutability": "view",
      "type": "function"
    }
  ],
  "bytecode": "0x608060405260026009553480156200001657600080fd5b506002808111156200002457fe5b6000803373ffffffffffffffffffffffffffffffffffffffff1673ffffffffffffffffffffffffffffffffffffffff16815260200190815260200160002060006101000a81548160ff021916908360028111156200007e57fe5b021790555060028060ff16620000a333620000c6640100000000026401000000009004565b6002811115620000af57fe5b60ff16141515620000bf57600080fd5b506200011b565b60008060008373ffffffffffffffffffffffffffffffffffffffff1673ffffffffffffffffffffffffffffffffffffffff16815260200190815260200160002060009054906101000a900460ff169050919050565b61270e806200012b6000396000f300608060405260043610610149576000357c0100000000000000000000000000000000000000000000000000000000900463ffffffff16806303ad4be31461014e578063081812fc14610193578063095ea7b31461020057806323b872dd1461024d578063430c2081146102ba578063442767331461031f5780634e6ec247146103845780634f558e79146103d1578063609a54b0146104165780636161eb18146104695780636352211e146104b65780636bc6eacc146105235780636effb5791461056357806370a08231146105835780637c968f5d146105da5780638a4cbeaa1461061f578063a22cb4651461063f578063a697fdbf1461068e578063a726be9a146106ae578063af129dc21461083e578063d96a094a14610869578063e985e9c514610889578063ecedf7b214610904578063f2e12a3914610967578063f7b42d08146109b7575b600080fd5b34801561015a57600080fd5b50610191600480360381019080803590602001909291908035906020019082018035906020019190919293919293905050506109ee565b005b34801561019f57600080fd5b506101be60048036038101908080359060200190929190505050610c42565b604051808273ffffffffffffffffffffffffffffffffffffffff1673ffffffffffffffffffffffffffffffffffffffff16815260200191505060405180910390f35b34801561020c57600080fd5b5061024b600480360381019080803573ffffffffffffffffffffffffffffffffffffffff16906020019092919080359060200190929190505050610c7f565b005b34801561025957600080fd5b506102b8600480360381019080803573ffffffffffffffffffffffffffffffffffffffff169060200190929190803573ffffffffffffffffffffffffffffffffffffffff16906020019092919080359060200190929190505050610e53565b005b3480156102c657600080fd5b50610305600480360381019080803573ffffffffffffffffffffffffffffffffffffffff16906020019092919080359060200190929190505050610f6a565b604051808215151515815260200191505060405180910390f35b34801561032b57600080fd5b50610360600480360381019080803573ffffffffffffffffffffffffffffffffffffffff169060200190929190505050610fff565b6040518082600281111561037057fe5b60ff16815260200191505060405180910390f35b34801561039057600080fd5b506103cf600480360381019080803573ffffffffffffffffffffffffffffffffffffffff16906020019092919080359060200190929190505050611054565b005b3480156103dd57600080fd5b506103fc60048036038101908080359060200190929190505050611149565b604051808215151515815260200191505060405180910390f35b34801561042257600080fd5b5061042b6111bb565b6040518082606560200280838360005b8381101561045657808201518184015260208101905061043b565b5050505090500191505060405180910390f35b34801561047557600080fd5b506104b4600480360381019080803573ffffffffffffffffffffffffffffffffffffffff16906020019092919080359060200190929190505050611354565b005b3480156104c257600080fd5b506104e160048036038101908080359060200190929190505050611417565b604051808273ffffffffffffffffffffffffffffffffffffffff1673ffffffffffffffffffffffffffffffffffffffff16815260200191505060405180910390f35b610561600480360381019080803573ffffffffffffffffffffffffffffffffffffffff16906020019092919080359060200190929190505050611459565b005b6105816004803603810190808035906020019092919050505061148f565b005b34801561058f57600080fd5b506105c4600480360381019080803573ffffffffffffffffffffffffffffffffffffffff169060200190929190505050611573565b6040518082815260200191505060405180910390f35b3480156105e657600080fd5b50610605600480360381019080803590602001909291905050506115f7565b604051808215151515815260200191505060405180910390f35b61063d6004803603810190808035906020019092919050505061166b565b005b34801561064b57600080fd5b5061068c600480360381019080803573ffffffffffffffffffffffffffffffffffffffff1690602001909291908035151590602001909291905050506116c2565b005b6106ac600480360381019080803590602001909291905050506117fe565b005b3480156106ba57600080fd5b506106d960048036038101908080359060200190929190505050611855565b6040518080602001806020018060200186815260200185151515158152602001848103845289818151815260200191508051906020019080838360005b83811015610731578082015181840152602081019050610716565b50505050905090810190601f16801561075e5780820380516001836020036101000a031916815260200191505b50848103835288818151815260200191508051906020019080838360005b8381101561079757808201518184015260208101905061077c565b50505050905090810190601f1680156107c45780820380516001836020036101000a031916815260200191505b50848103825287818151815260200191508051906020019080838360005b838110156107fd5780820151818401526020810190506107e2565b50505050905090810190601f16801561082a5780820380516001836020036101000a031916815260200191505b509850505050505050505060405180910390f35b34801561084a57600080fd5b50610853611afd565b6040518082815260200191505060405180910390f35b61088760048036038101908080359060200190929190505050611b03565b005b34801561089557600080fd5b506108ea600480360381019080803573ffffffffffffffffffffffffffffffffffffffff169060200190929190803573ffffffffffffffffffffffffffffffffffffffff169060200190929190505050611cfe565b604051808215151515815260200191505060405180910390f35b34801561091057600080fd5b50610965600480360381019080803573ffffffffffffffffffffffffffffffffffffffff169060200190929190803573ffffffffffffffffffffffffffffffffffffffff169060200190929190505050611d92565b005b34801561097357600080fd5b506109b5600480360381019080803560ff169060200190929190803573ffffffffffffffffffffffffffffffffffffffff169060200190929190505050611e42565b005b3480156109c357600080fd5b506109ec6004803603810190808035906020019092919080359060200190929190505050611edd565b005b6109f66125ff565b60018060ff16610a0533610fff565b6002811115610a1057fe5b60ff16141515610a1f57600080fd5b610a5a84848080601f016020809104026020016040519081016040528093929190818152602001838380828437820191505050505050611f42565b9150610ab4610aaf610aa06040805190810160405280600181526020017f2e00000000000000000000000000000000000000000000000000000000000000815250611f42565b84611f7090919063ffffffff16565b611f8a565b600660008781526020019081526020016000206002019080519060200190610add929190612619565b50610b36610b31610b226040805190810160405280600181526020017f2e00000000000000000000000000000000000000000000000000000000000000815250611f42565b84611f7090919063ffffffff16565b611f8a565b600660008781526020019081526020016000206000019080519060200190610b5f929190612619565b50610bb8610bb3610ba46040805190810160405280600181526020017f2e00000000000000000000000000000000000000000000000000000000000000815250611f42565b84611f7090919063ffffffff16565b611f8a565b600660008781526020019081526020016000206001019080519060200190610be1929190612619565b507f53560fd2a0eb35afd8d535363033618f52ccbfc857a7bf616eb195a0ed022ef485858560405180848152602001806020018281038252848482818152602001925080828437820191505094505050505060405180910390a15050505050565b60006003600083815260200190815260200160002060009054906101000a900473ffffffffffffffffffffffffffffffffffffffff169050919050565b60006002600083815260200190815260200160002060009054906101000a900473ffffffffffffffffffffffffffffffffffffffff169050826003600084815260200190815260200160002060006101000a81548173ffffffffffffffffffffffffffffffffffffffff021916908373ffffffffffffffffffffffffffffffffffffffff160217905550610d1282611417565b73ffffffffffffffffffffffffffffffffffffffff168373ffffffffffffffffffffffffffffffffffffffff1614151515610d4c57600080fd5b8073ffffffffffffffffffffffffffffffffffffffff163373ffffffffffffffffffffffffffffffffffffffff161480610d8c5750610d8b8133611cfe565b5b1515610d9757600080fd5b826003600084815260200190815260200160002060006101000a81548173ffffffffffffffffffffffffffffffffffffffff021916908373ffffffffffffffffffffffffffffffffffffffff1602179055508273ffffffffffffffffffffffffffffffffffffffff168173ffffffffffffffffffffffffffffffffffffffff167f8c5be1e5ebec7d5bd14f71427d1e84f3dd0314c0f7b2291e5b200ac8c7c3b925846040518082815260200191505060405180910390a3505050565b80610e5e3382610f6a565b1515610e6957600080fd5b600073ffffffffffffffffffffffffffffffffffffffff168473ffffffffffffffffffffffffffffffffffffffff1614151515610ea557600080fd5b600073ffffffffffffffffffffffffffffffffffffffff168373ffffffffffffffffffffffffffffffffffffffff1614151515610ee157600080fd5b610eeb8483611fec565b610ef58483612155565b610eff8383612284565b8273ffffffffffffffffffffffffffffffffffffffff168473ffffffffffffffffffffffffffffffffffffffff167fddf252ad1be2c89b69c2b068fc378daa952ba7f163c4a11628f55a4df523b3ef846040518082815260200191505060405180910390a350505050565b600080610f7683611417565b90508073ffffffffffffffffffffffffffffffffffffffff168473ffffffffffffffffffffffffffffffffffffffff161480610fe557508373ffffffffffffffffffffffffffffffffffffffff16610fcd84610c42565b73ffffffffffffffffffffffffffffffffffffffff16145b80610ff65750610ff58185611cfe565b5b91505092915050565b60008060008373ffffffffffffffffffffffffffffffffffffffff1673ffffffffffffffffffffffffffffffffffffffff16815260200190815260200160002060009054906101000a900460ff169050919050565b60028060ff1661106333610fff565b600281111561106e57fe5b60ff1614151561107d57600080fd5b600073ffffffffffffffffffffffffffffffffffffffff168373ffffffffffffffffffffffffffffffffffffffff16141515156110b957600080fd5b6110c38383612284565b6110d8600180546123de90919063ffffffff16565b6001819055508273ffffffffffffffffffffffffffffffffffffffff16600073ffffffffffffffffffffffffffffffffffffffff167fddf252ad1be2c89b69c2b068fc378daa952ba7f163c4a11628f55a4df523b3ef846040518082815260200191505060405180910390a3505050565b6000806002600084815260200190815260200160002060009054906101000a900473ffffffffffffffffffffffffffffffffffffffff169050600073ffffffffffffffffffffffffffffffffffffffff168173ffffffffffffffffffffffffffffffffffffffff161415915050919050565b6111c3612699565b60008090505b606581101561135057600073ffffffffffffffffffffffffffffffffffffffff166003600083815260200190815260200160002060009054906101000a900473ffffffffffffffffffffffffffffffffffffffff1673ffffffffffffffffffffffffffffffffffffffff161415156112c15760017f010000000000000000000000000000000000000000000000000000000000000002828260658110151561126d57fe5b60200201907effffffffffffffffffffffffffffffffffffffffffffffffffffffffffffff191690817effffffffffffffffffffffffffffffffffffffffffffffffffffffffffffff191681525050611343565b60007f01000000000000000000000000000000000000000000000000000000000000000282826065811015156112f357fe5b60200201907effffffffffffffffffffffffffffffffffffffffffffffffffffffffffffff191690817effffffffffffffffffffffffffffffffffffffffffffffffffffffffffffff1916815250505b80806001019150506111c9565b5090565b60028060ff1661136333610fff565b600281111561136e57fe5b60ff1614151561137d57600080fd5b6113878383611fec565b6113918383612155565b6113a6600180546123fc90919063ffffffff16565b600181905550600073ffffffffffffffffffffffffffffffffffffffff168373ffffffffffffffffffffffffffffffffffffffff167fddf252ad1be2c89b69c2b068fc378daa952ba7f163c4a11628f55a4df523b3ef846040518082815260200191505060405180910390a3505050565b6000806002600084815260200190815260200160002060009054906101000a900473ffffffffffffffffffffffffffffffffffffffff16905080915050919050565b8173ffffffffffffffffffffffffffffffffffffffff166201869f82604051600060405180830381858888f19350505050505050565b3373ffffffffffffffffffffffffffffffffffffffff166002600083815260200190815260200160002060009054906101000a900473ffffffffffffffffffffffffffffffffffffffff1673ffffffffffffffffffffffffffffffffffffffff161415156114fc57600080fd5b6115396002600083815260200190815260200160002060009054906101000a900473ffffffffffffffffffffffffffffffffffffffff1682611fec565b7fb7e9f6b2d2458040a4050b0b4a3e57e203d8738815821083545a426fdf73fc9a816040518082815260200191505060405180910390a150565b60008073ffffffffffffffffffffffffffffffffffffffff168273ffffffffffffffffffffffffffffffffffffffff16141515156115b057600080fd5b600460008373ffffffffffffffffffffffffffffffffffffffff1673ffffffffffffffffffffffffffffffffffffffff168152602001908152602001600020549050919050565b60008073ffffffffffffffffffffffffffffffffffffffff166003600084815260200190815260200160002060009054906101000a900473ffffffffffffffffffffffffffffffffffffffff1673ffffffffffffffffffffffffffffffffffffffff1614151561166657600190505b919050565b600860009054906101000a900473ffffffffffffffffffffffffffffffffffffffff1673ffffffffffffffffffffffffffffffffffffffff166201869f82604051600060405180830381858888f193505050505050565b3373ffffffffffffffffffffffffffffffffffffffff168273ffffffffffffffffffffffffffffffffffffffff16141515156116fd57600080fd5b80600560003373ffffffffffffffffffffffffffffffffffffffff1673ffffffffffffffffffffffffffffffffffffffff16815260200190815260200160002060008473ffffffffffffffffffffffffffffffffffffffff1673ffffffffffffffffffffffffffffffffffffffff16815260200190815260200160002060006101000a81548160ff0219169083151502179055508173ffffffffffffffffffffffffffffffffffffffff163373ffffffffffffffffffffffffffffffffffffffff167f17307eab39ab6107e8899845ad3d59bd9653f200f220920489ca2b5937696c3183604051808215151515815260200191505060405180910390a35050565b600760009054906101000a900473ffffffffffffffffffffffffffffffffffffffff1673ffffffffffffffffffffffffffffffffffffffff166201869f82604051600060405180830381858888f193505050505050565b6060806060600080600660008781526020019081526020016000206000018054600181600116156101000203166002900480601f0160208091040260200160405190810160405280929190818152602001828054600181600116156101000203166002900480156119075780601f106118dc57610100808354040283529160200191611907565b820191906000526020600020905b8154815290600101906020018083116118ea57829003601f168201915b50505050509450600660008781526020019081526020016000206002018054600181600116156101000203166002900480601f0160208091040260200160405190810160405280929190818152602001828054600181600116156101000203166002900480156119b85780601f1061198d576101008083540402835291602001916119b8565b820191906000526020600020905b81548152906001019060200180831161199b57829003601f168201915b50505050509350600660008781526020019081526020016000206001018054600181600116156101000203166002900480601f016020809104026020016040519081016040528092919081815260200182805460018160011615610100020316600290048015611a695780601f10611a3e57610100808354040283529160200191611a69565b820191906000526020600020905b815481529060010190602001808311611a4c57829003601f168201915b50505050509250600a6000878152602001908152602001600020549150600073ffffffffffffffffffffffffffffffffffffffff166003600088815260200190815260200160002060009054906101000a900473ffffffffffffffffffffffffffffffffffffffff1673ffffffffffffffffffffffffffffffffffffffff16141515611af457600190505b91939590929450565b60015481565b600080600080600033945034600a600088815260200190815260200160002054141515611b2f57600080fd5b611b4360143461241590919063ffffffff16565b9350611b5960143461241590919063ffffffff16565b9250611b6e83856123de90919063ffffffff16565b9150611b8382346123fc90919063ffffffff16565b9050611bc26002600088815260200190815260200160002060009054906101000a900473ffffffffffffffffffffffffffffffffffffffff1682611459565b3073ffffffffffffffffffffffffffffffffffffffff166323b872dd6002600089815260200190815260200160002060009054906101000a900473ffffffffffffffffffffffffffffffffffffffff1687896040518463ffffffff167c0100000000000000000000000000000000000000000000000000000000028152600401808473ffffffffffffffffffffffffffffffffffffffff1673ffffffffffffffffffffffffffffffffffffffff1681526020018373ffffffffffffffffffffffffffffffffffffffff1673ffffffffffffffffffffffffffffffffffffffff1681526020018281526020019350505050600060405180830381600087803b158015611ccc57600080fd5b505af1158015611ce0573d6000803e3d6000fd5b50505050611ced8461166b565b611cf6836117fe565b505050505050565b6000600560008473ffffffffffffffffffffffffffffffffffffffff1673ffffffffffffffffffffffffffffffffffffffff16815260200190815260200160002060008373ffffffffffffffffffffffffffffffffffffffff1673ffffffffffffffffffffffffffffffffffffffff16815260200190815260200160002060009054906101000a900460ff16905092915050565b60028060ff16611da133610fff565b6002811115611dac57fe5b60ff16141515611dbb57600080fd5b82600760006101000a81548173ffffffffffffffffffffffffffffffffffffffff021916908373ffffffffffffffffffffffffffffffffffffffff16021790555081600860006101000a81548173ffffffffffffffffffffffffffffffffffffffff021916908373ffffffffffffffffffffffffffffffffffffffff160217905550505050565b60028060ff16611e5133610fff565b6002811115611e5c57fe5b60ff16141515611e6b57600080fd5b8260ff166002811115611e7a57fe5b6000808473ffffffffffffffffffffffffffffffffffffffff1673ffffffffffffffffffffffffffffffffffffffff16815260200190815260200160002060006101000a81548160ff02191690836002811115611ed357fe5b0217905550505050565b80600a600084815260200190815260200160002081905550611eff3083610c7f565b7fec3759d55f609c6666198ab6e098bbe8937fead3e8aa740c199b7ba1110642188282604051808381526020018281526020019250505060405180910390a15050565b611f4a6125ff565b600060208301905060408051908101604052808451815260200182815250915050919050565b611f786125ff565b611f83838383612430565b5092915050565b606080600083600001516040519080825280601f01601f191660200182016040528015611fc65781602001602082028038833980820191505090505b509150602082019050611fe281856020015186600001516124ce565b8192505050919050565b8173ffffffffffffffffffffffffffffffffffffffff1661200c82611417565b73ffffffffffffffffffffffffffffffffffffffff1614151561202e57600080fd5b600073ffffffffffffffffffffffffffffffffffffffff166003600083815260200190815260200160002060009054906101000a900473ffffffffffffffffffffffffffffffffffffffff1673ffffffffffffffffffffffffffffffffffffffff161415156121515760006003600083815260200190815260200160002060006101000a81548173ffffffffffffffffffffffffffffffffffffffff021916908373ffffffffffffffffffffffffffffffffffffffff160217905550600073ffffffffffffffffffffffffffffffffffffffff168273ffffffffffffffffffffffffffffffffffffffff167f8c5be1e5ebec7d5bd14f71427d1e84f3dd0314c0f7b2291e5b200ac8c7c3b925836040518082815260200191505060405180910390a35b5050565b8173ffffffffffffffffffffffffffffffffffffffff1661217582611417565b73ffffffffffffffffffffffffffffffffffffffff1614151561219757600080fd5b6121ea6001600460008573ffffffffffffffffffffffffffffffffffffffff1673ffffffffffffffffffffffffffffffffffffffff168152602001908152602001600020546123fc90919063ffffffff16565b600460008473ffffffffffffffffffffffffffffffffffffffff1673ffffffffffffffffffffffffffffffffffffffff1681526020019081526020016000208190555060006002600083815260200190815260200160002060006101000a81548173ffffffffffffffffffffffffffffffffffffffff021916908373ffffffffffffffffffffffffffffffffffffffff1602179055505050565b600073ffffffffffffffffffffffffffffffffffffffff166002600083815260200190815260200160002060009054906101000a900473ffffffffffffffffffffffffffffffffffffffff1673ffffffffffffffffffffffffffffffffffffffff161415156122f257600080fd5b816002600083815260200190815260200160002060006101000a81548173ffffffffffffffffffffffffffffffffffffffff021916908373ffffffffffffffffffffffffffffffffffffffff1602179055506123976001600460008573ffffffffffffffffffffffffffffffffffffffff1673ffffffffffffffffffffffffffffffffffffffff168152602001908152602001600020546123de90919063ffffffff16565b600460008473ffffffffffffffffffffffffffffffffffffffff1673ffffffffffffffffffffffffffffffffffffffff168152602001908152602001600020819055505050565b60008082840190508381101515156123f257fe5b8091505092915050565b600082821115151561240a57fe5b818303905092915050565b600080828481151561242357fe5b0490508091505092915050565b6124386125ff565b60006124568560000151866020015186600001518760200151612519565b905084602001518360200181815250508460200151810383600001818152505084600001518560200151018114156124985760008560000181815250506124c3565b8360000151836000015101856000018181510391508181525050836000015181018560200181815250505b829150509392505050565b60005b6020821015156124f657825184526020840193506020830192506020820391506124d1565b6001826020036101000a0390508019835116818551168181178652505050505050565b60008060008060008060008060008b97508c8b1115156125e95760208b1115156125a35760018b60200360080260020a03196001029550858a511694508a8d8d010393508588511692505b8460001916836000191614151561259b578388101515612588578c8c0198506125ef565b8780600101985050858851169250612564565b8798506125ef565b8a8a209150600096505b8a8d03871115156125e8578a882090508060001916826000191614156125d5578798506125ef565b60018801975086806001019750506125ad565b5b8c8c0198505b5050505050505050949350505050565b604080519081016040528060008152602001600081525090565b828054600181600116156101000203166002900490600052602060002090601f016020900481019282601f1061265a57805160ff1916838001178555612688565b82800160010185558215612688579182015b8281111561268757825182559160200191906001019061266c565b5b50905061269591906126bd565b5090565b610ca060405190810160405280606590602082028038833980820191505090505090565b6126df91905b808211156126db5760008160009055506001016126c3565b5090565b905600a165627a7a7230582002d272b61b928ea45e4789f63bed88105dc7007f9ff31e6814dd12104ba5491a0029",
  "source": "pragma solidity ^0.4.23;\nimport './update.sol';\nimport './ERC721BasicToken.sol';\n\ncontract buyable is update {\n\n\taddress INFRASTRUCTURE_POOL_ADDRESS;\n\taddress BLOOMING_POOL_ADDRESS;\n    uint blooming_fee = 2;\n    mapping (uint256 => uint256) TokenIdtoprice;\n\n    event Set_price_and_sell(uint256 tokenId, uint256 Price);\n    event Stop_sell(uint256 tokenId);\n\n    constructor() public check(2){}\n\n\tfunction initialisation(address _infrastructure_address, address _blooming_address) public check(2){\n        INFRASTRUCTURE_POOL_ADDRESS = _infrastructure_address;\n        BLOOMING_POOL_ADDRESS = _blooming_address;\n    }\n\n    function set_price_and_sell(uint256 UniqueID,uint256 Price) external {\n    TokenIdtoprice[UniqueID] = Price;\n    approve(address(this), UniqueID);\n    emit Set_price_and_sell(UniqueID, Price);\n    }\n\n    function stop_sell(uint256 UniqueID) external payable{\n    require(tokenOwner[UniqueID] == msg.sender);\n    clearApproval(tokenOwner[UniqueID],UniqueID);\n    emit Stop_sell(UniqueID);\n    }\n\n\tfunction buy(uint256 UniqueID) external payable {\n\t    address _to =  msg.sender;\n\t\trequire(TokenIdtoprice[UniqueID] == msg.value);\n\t\tuint _blooming = msg.value.div(20);\n\t\tuint _infrastructure = msg.value.div(20);\n\t\tuint _combined = _blooming.add(_infrastructure);\n\t\tuint _amount_for_seller = msg.value.sub(_combined);\n\t\tto_seller(tokenOwner[UniqueID], _amount_for_seller);\n\t\t/* tokenOwner[UniqueID].call.gas(99999).value(_amount_for_seller)(); */\n\t\tthis.transferFrom(tokenOwner[UniqueID], _to, UniqueID);\n\t\t/* BLOOMING_POOL_ADDRESS.call.gas(99999).value(_blooming)(); */\n\t\tto_blooming_pool(_blooming);\n\t\t/* INFRASTRUCTURE_POOL_ADDRESS.call.gas(99999).value(_infrastructure)(); */\n\t\tto_infrastructure_pool(_infrastructure);\n    }\n\n\tfunction to_seller(address _to, uint _amount) payable {\n\t\t_to.call.gas(99999).value(_amount)();\n\t}\n\n\tfunction to_blooming_pool(uint _amount) payable {\n\t\tBLOOMING_POOL_ADDRESS.call.gas(99999).value(_amount)();\n\t}\n\n\tfunction to_infrastructure_pool(uint _amount) payable {\n\t\tINFRASTRUCTURE_POOL_ADDRESS.call.gas(99999).value(_amount)();\n\t}\n\n    function get_token_data(uint256 _tokenId) external view returns(string _health,string _height, string _blooming,uint256 _price, bool _buyable){\n    _health =  TokenId[_tokenId].health;\n    _height = TokenId[_tokenId].height;\n    _blooming = TokenId[_tokenId].blooming;\n    _price = TokenIdtoprice[_tokenId];\n        if (tokenApprovals[_tokenId] != address(0)){\n            _buyable = true;\n        }\n    }\n\n    function get_token_data_buyable(uint256 _tokenId) external view returns(bool _buyable) {\n    if (tokenApprovals[_tokenId] != address(0)){\n        _buyable = true;\n        }\n    }\n\n    function get_all_sellable_token()external view returns(bytes1[101] list_of_available){\n    uint i;\n    for(i=0;i<101;i++) {\n          if (tokenApprovals[i] != address(0)){\n            list_of_available[i] = 0x01;\n          }else{\n            list_of_available[i] = 0x00;\n          }\n        }\n    }\n\n}\n",
  "sourcePath": "/Users/mfahampshire/terra0/source/ERC721/contracts/buyable.sol",
  "compiler": {
    "name": "solc",
    "version": "0.4.23+commit.124ca40d.Emscripten.clang"
  },
  "schemaVersion": "2.0.0",
  "updatedAt": "2018-06-01T21:37:33.208Z"
}