{
  "contractName": "buyable",
  "abi": [
    {
      "constant": false,
      "inputs": [
        {
          "name": "_tokenId",
          "type": "uint256"
        },
        {
          "name": "state",
          "type": "string"
        }
      ],
      "name": "updatetoken",
      "outputs": [],
      "payable": false,
      "stateMutability": "nonpayable",
      "type": "function"
    },
    {
      "constant": true,
      "inputs": [],
      "name": "name",
      "outputs": [
        {
          "name": "_name",
          "type": "string"
        }
      ],
      "payable": false,
      "stateMutability": "pure",
      "type": "function"
    },
    {
      "constant": true,
      "inputs": [
        {
          "name": "_tokenId",
          "type": "uint256"
        }
      ],
      "name": "getApproved",
      "outputs": [
        {
          "name": "",
          "type": "address"
        }
      ],
      "payable": false,
      "stateMutability": "view",
      "type": "function"
    },
    {
      "constant": false,
      "inputs": [
        {
          "name": "_approved",
          "type": "address"
        },
        {
          "name": "_tokenId",
          "type": "uint256"
        }
      ],
      "name": "approve",
      "outputs": [],
      "payable": true,
      "stateMutability": "payable",
      "type": "function"
    },
    {
      "constant": false,
      "inputs": [
        {
          "name": "_from",
          "type": "address"
        },
        {
          "name": "_to",
          "type": "address"
        },
        {
          "name": "_tokenId",
          "type": "uint256"
        }
      ],
      "name": "transferFrom",
      "outputs": [],
      "payable": true,
      "stateMutability": "payable",
      "type": "function"
    },
    {
      "constant": false,
      "inputs": [
        {
          "name": "entityAddress",
          "type": "address"
        },
        {
          "name": "UniqueID",
          "type": "uint256"
        }
      ],
      "name": "_writeownership",
      "outputs": [],
      "payable": false,
      "stateMutability": "nonpayable",
      "type": "function"
    },
    {
      "constant": true,
      "inputs": [
        {
          "name": "entity",
          "type": "address"
        }
      ],
      "name": "getRole",
      "outputs": [
        {
          "name": "",
          "type": "uint8"
        }
      ],
      "payable": false,
      "stateMutability": "view",
      "type": "function"
    },
    {
      "constant": false,
      "inputs": [
        {
          "name": "entityAddress",
          "type": "address"
        },
        {
          "name": "entityData",
          "type": "string"
        }
      ],
      "name": "Mint",
      "outputs": [
        {
          "name": "_UniqueID",
          "type": "uint256"
        }
      ],
      "payable": false,
      "stateMutability": "nonpayable",
      "type": "function"
    },
    {
      "constant": true,
      "inputs": [
        {
          "name": "_tokenId",
          "type": "uint256"
        }
      ],
      "name": "ownerOf",
      "outputs": [
        {
          "name": "",
          "type": "address"
        }
      ],
      "payable": false,
      "stateMutability": "view",
      "type": "function"
    },
    {
      "constant": false,
      "inputs": [
        {
          "name": "entityAddress",
          "type": "address"
        },
        {
          "name": "entityData",
          "type": "string"
        },
        {
          "name": "UniqueID",
          "type": "uint256"
        }
      ],
      "name": "_writedata",
      "outputs": [],
      "payable": false,
      "stateMutability": "nonpayable",
      "type": "function"
    },
    {
      "constant": true,
      "inputs": [
        {
          "name": "_owner",
          "type": "address"
        }
      ],
      "name": "balanceOf",
      "outputs": [
        {
          "name": "balance",
          "type": "uint256"
        }
      ],
      "payable": false,
      "stateMutability": "view",
      "type": "function"
    },
    {
      "constant": true,
      "inputs": [],
      "name": "symbol",
      "outputs": [
        {
          "name": "_symbol",
          "type": "string"
        }
      ],
      "payable": false,
      "stateMutability": "pure",
      "type": "function"
    },
    {
      "constant": false,
      "inputs": [
        {
          "name": "_to",
          "type": "address"
        },
        {
          "name": "_approved",
          "type": "bool"
        }
      ],
      "name": "setApprovalForAll",
      "outputs": [],
      "payable": false,
      "stateMutability": "nonpayable",
      "type": "function"
    },
    {
      "constant": true,
      "inputs": [],
      "name": "numTokensTotal",
      "outputs": [
        {
          "name": "",
          "type": "uint256"
        }
      ],
      "payable": false,
      "stateMutability": "view",
      "type": "function"
    },
    {
      "constant": true,
      "inputs": [
        {
          "name": "_tokenId",
          "type": "uint256"
        }
      ],
      "name": "tokenURI",
      "outputs": [
        {
          "name": "",
          "type": "string"
        }
      ],
      "payable": false,
      "stateMutability": "view",
      "type": "function"
    },
    {
      "constant": false,
      "inputs": [
        {
          "name": "Owner",
          "type": "address"
        },
        {
          "name": "uniqueID",
          "type": "uint256"
        }
      ],
      "name": "_removetoken",
      "outputs": [
        {
          "name": "list",
          "type": "uint256"
        }
      ],
      "payable": false,
      "stateMutability": "nonpayable",
      "type": "function"
    },
    {
      "constant": true,
      "inputs": [
        {
          "name": "_owner",
          "type": "address"
        },
        {
          "name": "_operator",
          "type": "address"
        }
      ],
      "name": "isApprovedForAll",
      "outputs": [
        {
          "name": "",
          "type": "bool"
        }
      ],
      "payable": false,
      "stateMutability": "view",
      "type": "function"
    },
    {
      "constant": false,
      "inputs": [
        {
          "name": "rolevalue",
          "type": "uint8"
        },
        {
          "name": "entity",
          "type": "address"
        }
      ],
      "name": "setRole",
      "outputs": [],
      "payable": false,
      "stateMutability": "nonpayable",
      "type": "function"
    },
    {
      "inputs": [
        {
          "name": "_infrastructure_address",
          "type": "address"
        },
        {
          "name": "_blooming_address",
          "type": "address"
        }
      ],
      "payable": false,
      "stateMutability": "nonpayable",
      "type": "constructor"
    },
    {
      "anonymous": false,
      "inputs": [
        {
          "indexed": false,
          "name": "tokenId",
          "type": "uint256"
        },
        {
          "indexed": false,
          "name": "Price",
          "type": "uint256"
        }
      ],
      "name": "Set_price_and_sell",
      "type": "event"
    },
    {
      "anonymous": false,
      "inputs": [
        {
          "indexed": false,
          "name": "tokenId",
          "type": "uint256"
        }
      ],
      "name": "Stop_sell",
      "type": "event"
    },
    {
      "anonymous": false,
      "inputs": [
        {
          "indexed": false,
          "name": "_tokenId",
          "type": "uint256"
        },
        {
          "indexed": false,
          "name": "state",
          "type": "string"
        }
      ],
      "name": "UpdateToken",
      "type": "event"
    },
    {
      "anonymous": false,
      "inputs": [
        {
          "indexed": false,
          "name": "from",
          "type": "address"
        },
        {
          "indexed": false,
          "name": "to",
          "type": "address"
        },
        {
          "indexed": false,
          "name": "tokenId",
          "type": "uint256"
        }
      ],
      "name": "Transfer",
      "type": "event"
    },
    {
      "anonymous": false,
      "inputs": [
        {
          "indexed": false,
          "name": "owner",
          "type": "address"
        },
        {
          "indexed": false,
          "name": "approved",
          "type": "address"
        },
        {
          "indexed": false,
          "name": "tokenId",
          "type": "uint256"
        }
      ],
      "name": "Approval",
      "type": "event"
    },
    {
      "anonymous": false,
      "inputs": [
        {
          "indexed": true,
          "name": "_owner",
          "type": "address"
        },
        {
          "indexed": true,
          "name": "_operator",
          "type": "address"
        },
        {
          "indexed": false,
          "name": "_approved",
          "type": "bool"
        }
      ],
      "name": "ApprovalForAll",
      "type": "event"
    },
    {
      "constant": false,
      "inputs": [
        {
          "name": "UniqueID",
          "type": "uint256"
        },
        {
          "name": "Price",
          "type": "uint256"
        }
      ],
      "name": "set_price_and_sell",
      "outputs": [
        {
          "name": "",
          "type": "address"
        }
      ],
      "payable": true,
      "stateMutability": "payable",
      "type": "function"
    },
    {
      "constant": false,
      "inputs": [
        {
          "name": "UniqueID",
          "type": "uint256"
        }
      ],
      "name": "stop_sell",
      "outputs": [],
      "payable": true,
      "stateMutability": "payable",
      "type": "function"
    },
    {
      "constant": false,
      "inputs": [
        {
          "name": "UniqueID",
          "type": "uint256"
        }
      ],
      "name": "buy",
      "outputs": [],
      "payable": true,
      "stateMutability": "payable",
      "type": "function"
    },
    {
      "constant": true,
      "inputs": [
        {
          "name": "_tokenId",
          "type": "uint256"
        }
      ],
      "name": "get_token_data",
      "outputs": [
        {
          "name": "_health",
          "type": "string"
        },
        {
          "name": "_height",
          "type": "string"
        },
        {
          "name": "_blooming",
          "type": "string"
        },
        {
          "name": "_price",
          "type": "uint256"
        },
        {
          "name": "_buyable",
          "type": "bool"
        }
      ],
      "payable": false,
      "stateMutability": "view",
      "type": "function"
    },
    {
      "constant": true,
      "inputs": [
        {
          "name": "_tokenId",
          "type": "uint256"
        }
      ],
      "name": "get_token_data_buyable",
      "outputs": [
        {
          "name": "_buyable",
          "type": "bool"
        }
      ],
      "payable": false,
      "stateMutability": "view",
      "type": "function"
    },
    {
      "constant": true,
      "inputs": [],
      "name": "get_all_sellable_token",
      "outputs": [
        {
          "name": "list_of_available",
          "type": "bytes1[101]"
        }
      ],
      "payable": false,
      "stateMutability": "view",
      "type": "function"
    }
  ],
  "bytecode": "0x60806040526002600a5534801561001557600080fd5b50604051604080612b70833981018060405281019080805190602001909291908051906020019092919050505060028081111561004e57fe5b6000803373ffffffffffffffffffffffffffffffffffffffff1673ffffffffffffffffffffffffffffffffffffffff16815260200190815260200160002060006101000a81548160ff021916908360028111156100a757fe5b021790555081600960006101000a81548173ffffffffffffffffffffffffffffffffffffffff021916908373ffffffffffffffffffffffffffffffffffffffff16021790555080600860006101000a81548173ffffffffffffffffffffffffffffffffffffffff021916908373ffffffffffffffffffffffffffffffffffffffff1602179055505050612a318061013f6000396000f30060806040526004361061013e576000357c0100000000000000000000000000000000000000000000000000000000900463ffffffff16806303ad4be31461014357806306fdde0314610188578063081812fc14610218578063095ea7b31461028557806323b872dd146102c5578063263f842d1461032557806344276733146103725780634c2f6dd3146103d7578063609a54b0146104465780636352211e146104995780636d2d7a0d146105065780636effb5791461059957806370a08231146105b95780637c968f5d1461061057806395d89b4114610655578063a22cb465146106e5578063a726be9a14610734578063af129dc2146108c4578063c87b56dd146108ef578063cb126ab614610995578063d96a094a146109f6578063e985e9c514610a16578063f2e12a3914610a91578063f7b42d0814610ae1575b600080fd5b34801561014f57600080fd5b5061018660048036038101908080359060200190929190803590602001908201803590602001919091929391929390505050610b4b565b005b34801561019457600080fd5b5061019d610d9f565b6040518080602001828103825283818151815260200191508051906020019080838360005b838110156101dd5780820151818401526020810190506101c2565b50505050905090810190601f16801561020a5780820380516001836020036101000a031916815260200191505b509250505060405180910390f35b34801561022457600080fd5b5061024360048036038101908080359060200190929190505050610ddc565b604051808273ffffffffffffffffffffffffffffffffffffffff1673ffffffffffffffffffffffffffffffffffffffff16815260200191505060405180910390f35b6102c3600480360381019080803573ffffffffffffffffffffffffffffffffffffffff16906020019092919080359060200190929190505050610e4f565b005b610323600480360381019080803573ffffffffffffffffffffffffffffffffffffffff169060200190929190803573ffffffffffffffffffffffffffffffffffffffff169060200190929190803590602001909291905050506110e1565b005b34801561033157600080fd5b50610370600480360381019080803573ffffffffffffffffffffffffffffffffffffffff16906020019092919080359060200190929190505050611431565b005b34801561037e57600080fd5b506103b3600480360381019080803573ffffffffffffffffffffffffffffffffffffffff16906020019092919050505061154d565b604051808260028111156103c357fe5b60ff16815260200191505060405180910390f35b3480156103e357600080fd5b50610430600480360381019080803573ffffffffffffffffffffffffffffffffffffffff1690602001909291908035906020019082018035906020019190919293919293905050506115a2565b6040518082815260200191505060405180910390f35b34801561045257600080fd5b5061045b611653565b6040518082606560200280838360005b8381101561048657808201518184015260208101905061046b565b5050505090500191505060405180910390f35b3480156104a557600080fd5b506104c4600480360381019080803590602001909291905050506117ec565b604051808273ffffffffffffffffffffffffffffffffffffffff1673ffffffffffffffffffffffffffffffffffffffff16815260200191505060405180910390f35b34801561051257600080fd5b50610597600480360381019080803573ffffffffffffffffffffffffffffffffffffffff169060200190929190803590602001908201803590602001908080601f016020809104026020016040519081016040528093929190818152602001838380828437820191505050505050919291929080359060200190929190505050611829565b005b6105b7600480360381019080803590602001909291905050506118da565b005b3480156105c557600080fd5b506105fa600480360381019080803573ffffffffffffffffffffffffffffffffffffffff16906020019092919050505061198a565b6040518082815260200191505060405180910390f35b34801561061c57600080fd5b5061063b600480360381019080803590602001909291905050506119d6565b604051808215151515815260200191505060405180910390f35b34801561066157600080fd5b5061066a611a4a565b6040518080602001828103825283818151815260200191508051906020019080838360005b838110156106aa57808201518184015260208101905061068f565b50505050905090810190601f1680156106d75780820380516001836020036101000a031916815260200191505b509250505060405180910390f35b3480156106f157600080fd5b50610732600480360381019080803573ffffffffffffffffffffffffffffffffffffffff169060200190929190803515159060200190929190505050611a87565b005b34801561074057600080fd5b5061075f60048036038101908080359060200190929190505050611b5a565b6040518080602001806020018060200186815260200185151515158152602001848103845289818151815260200191508051906020019080838360005b838110156107b757808201518184015260208101905061079c565b50505050905090810190601f1680156107e45780820380516001836020036101000a031916815260200191505b50848103835288818151815260200191508051906020019080838360005b8381101561081d578082015181840152602081019050610802565b50505050905090810190601f16801561084a5780820380516001836020036101000a031916815260200191505b50848103825287818151815260200191508051906020019080838360005b83811015610883578082015181840152602081019050610868565b50505050905090810190601f1680156108b05780820380516001836020036101000a031916815260200191505b509850505050505050505060405180910390f35b3480156108d057600080fd5b506108d9611e02565b6040518082815260200191505060405180910390f35b3480156108fb57600080fd5b5061091a60048036038101908080359060200190929190505050611e08565b6040518080602001828103825283818151815260200191508051906020019080838360005b8381101561095a57808201518184015260208101905061093f565b50505050905090810190601f1680156109875780820380516001836020036101000a031916815260200191505b509250505060405180910390f35b3480156109a157600080fd5b506109e0600480360381019080803573ffffffffffffffffffffffffffffffffffffffff16906020019092919080359060200190929190505050611ec0565b6040518082815260200191505060405180910390f35b610a14600480360381019080803590602001909291905050506120e5565b005b348015610a2257600080fd5b50610a77600480360381019080803573ffffffffffffffffffffffffffffffffffffffff169060200190929190803573ffffffffffffffffffffffffffffffffffffffff16906020019092919050505061230a565b604051808215151515815260200191505060405180910390f35b348015610a9d57600080fd5b50610adf600480360381019080803560ff169060200190929190803573ffffffffffffffffffffffffffffffffffffffff16906020019092919050505061239e565b005b610b096004803603810190808035906020019092919080359060200190929190505050612439565b604051808273ffffffffffffffffffffffffffffffffffffffff1673ffffffffffffffffffffffffffffffffffffffff16815260200191505060405180910390f35b610b536128f6565b60018060ff16610b623361154d565b6002811115610b6d57fe5b60ff16141515610b7c57600080fd5b610bb784848080601f016020809104026020016040519081016040528093929190818152602001838380828437820191505050505050612553565b9150610c11610c0c610bfd6040805190810160405280600181526020017f2e00000000000000000000000000000000000000000000000000000000000000815250612553565b8461258190919063ffffffff16565b61259b565b600260008781526020019081526020016000206004019080519060200190610c3a929190612910565b50610c93610c8e610c7f6040805190810160405280600181526020017f2e00000000000000000000000000000000000000000000000000000000000000815250612553565b8461258190919063ffffffff16565b61259b565b600260008781526020019081526020016000206002019080519060200190610cbc929190612910565b50610d15610d10610d016040805190810160405280600181526020017f2e00000000000000000000000000000000000000000000000000000000000000815250612553565b8461258190919063ffffffff16565b61259b565b600260008781526020019081526020016000206003019080519060200190610d3e929190612910565b507f53560fd2a0eb35afd8d535363033618f52ccbfc857a7bf616eb195a0ed022ef485858560405180848152602001806020018281038252848482818152602001925080828437820191505094505050505060405180910390a15050505050565b60606040805190810160405280601181526020017f666c6f776572746f6b656e735f74657374000000000000000000000000000000815250905090565b6000600115156002600084815260200190815260200160002060010160009054906101000a900460ff161515141515610e1457600080fd5b6006600083815260200190815260200160002060009054906101000a900473ffffffffffffffffffffffffffffffffffffffff169050919050565b600115156002600083815260200190815260200160002060010160009054906101000a900460ff161515141515610e8557600080fd5b6004600082815260200190815260200160002060009054906101000a900473ffffffffffffffffffffffffffffffffffffffff1673ffffffffffffffffffffffffffffffffffffffff163373ffffffffffffffffffffffffffffffffffffffff161480610fb2575060011515600760006004600085815260200190815260200160002060009054906101000a900473ffffffffffffffffffffffffffffffffffffffff1673ffffffffffffffffffffffffffffffffffffffff1673ffffffffffffffffffffffffffffffffffffffff16815260200190815260200160002060003373ffffffffffffffffffffffffffffffffffffffff1673ffffffffffffffffffffffffffffffffffffffff16815260200190815260200160002060009054906101000a900460ff161515145b1515610fbd57600080fd5b600073ffffffffffffffffffffffffffffffffffffffff16610fde826125fd565b73ffffffffffffffffffffffffffffffffffffffff1614158061102e5750600073ffffffffffffffffffffffffffffffffffffffff168273ffffffffffffffffffffffffffffffffffffffff1614155b156110dd5761103d828261263a565b7f8c5be1e5ebec7d5bd14f71427d1e84f3dd0314c0f7b2291e5b200ac8c7c3b925338383604051808473ffffffffffffffffffffffffffffffffffffffff1673ffffffffffffffffffffffffffffffffffffffff1681526020018373ffffffffffffffffffffffffffffffffffffffff1673ffffffffffffffffffffffffffffffffffffffff168152602001828152602001935050505060405180910390a15b5050565b600115156002600083815260200190815260200160002060010160009054906101000a900460ff16151514151561111757600080fd5b3373ffffffffffffffffffffffffffffffffffffffff166006600083815260200190815260200160002060009054906101000a900473ffffffffffffffffffffffffffffffffffffffff1673ffffffffffffffffffffffffffffffffffffffff161480611244575060011515600760006004600085815260200190815260200160002060009054906101000a900473ffffffffffffffffffffffffffffffffffffffff1673ffffffffffffffffffffffffffffffffffffffff1673ffffffffffffffffffffffffffffffffffffffff16815260200190815260200160002060003373ffffffffffffffffffffffffffffffffffffffff1673ffffffffffffffffffffffffffffffffffffffff16815260200190815260200160002060009054906101000a900460ff161515145b151561124f57600080fd5b8273ffffffffffffffffffffffffffffffffffffffff166004600083815260200190815260200160002060009054906101000a900473ffffffffffffffffffffffffffffffffffffffff1673ffffffffffffffffffffffffffffffffffffffff161415156112bc57600080fd5b600073ffffffffffffffffffffffffffffffffffffffff168273ffffffffffffffffffffffffffffffffffffffff16141515156112f857600080fd5b611303838383612690565b7f8c5be1e5ebec7d5bd14f71427d1e84f3dd0314c0f7b2291e5b200ac8c7c3b92583600083604051808473ffffffffffffffffffffffffffffffffffffffff1673ffffffffffffffffffffffffffffffffffffffff1681526020018373ffffffffffffffffffffffffffffffffffffffff168152602001828152602001935050505060405180910390a17fddf252ad1be2c89b69c2b068fc378daa952ba7f163c4a11628f55a4df523b3ef838383604051808473ffffffffffffffffffffffffffffffffffffffff1673ffffffffffffffffffffffffffffffffffffffff1681526020018373ffffffffffffffffffffffffffffffffffffffff1673ffffffffffffffffffffffffffffffffffffffff168152602001828152602001935050505060405180910390a1505050565b600360008373ffffffffffffffffffffffffffffffffffffffff1673ffffffffffffffffffffffffffffffffffffffff1681526020019081526020016000208190806001815401808255809150509060018203906000526020600020016000909192909190915055506001600360008473ffffffffffffffffffffffffffffffffffffffff1673ffffffffffffffffffffffffffffffffffffffff16815260200190815260200160002080549050036005600083815260200190815260200160002081905550816004600083815260200190815260200160002060006101000a81548173ffffffffffffffffffffffffffffffffffffffff021916908373ffffffffffffffffffffffffffffffffffffffff1602179055505050565b60008060008373ffffffffffffffffffffffffffffffffffffffff1673ffffffffffffffffffffffffffffffffffffffff16815260200190815260200160002060009054906101000a900460ff169050919050565b60008060028060ff166115b43361154d565b60028111156115bf57fe5b60ff161415156115ce57600080fd5b6115e3600180546126b390919063ffffffff16565b91506115ef8683611431565b61162c8686868080601f01602080910402602001604051908101604052809392919081815260200183838082843782019150505050505084611829565b611641600180546126b390919063ffffffff16565b60018190555081925050509392505050565b61165b612990565b60005b60658110156117e857600073ffffffffffffffffffffffffffffffffffffffff166006600060018403815260200190815260200160002060009054906101000a900473ffffffffffffffffffffffffffffffffffffffff1673ffffffffffffffffffffffffffffffffffffffff161415156117595760017f010000000000000000000000000000000000000000000000000000000000000002828260658110151561170557fe5b60200201907effffffffffffffffffffffffffffffffffffffffffffffffffffffffffffff191690817effffffffffffffffffffffffffffffffffffffffffffffffffffffffffffff1916815250506117db565b60007f010000000000000000000000000000000000000000000000000000000000000002828260658110151561178b57fe5b60200201907effffffffffffffffffffffffffffffffffffffffffffffffffffffffffffff191690817effffffffffffffffffffffffffffffffffffffffffffffffffffffffffffff1916815250505b808060010191505061165e565b5090565b60006004600083815260200190815260200160002060009054906101000a900473ffffffffffffffffffffffffffffffffffffffff169050919050565b81600260008381526020019081526020016000206000019080519060200190611853929190612910565b5060016002600083815260200190815260200160002060010160006101000a81548160ff021916908315150217905550826004600083815260200190815260200160002060006101000a81548173ffffffffffffffffffffffffffffffffffffffff021916908373ffffffffffffffffffffffffffffffffffffffff160217905550505050565b3373ffffffffffffffffffffffffffffffffffffffff166004600083815260200190815260200160002060009054906101000a900473ffffffffffffffffffffffffffffffffffffffff1673ffffffffffffffffffffffffffffffffffffffff1614151561194757600080fd5b611950816126d1565b7fb7e9f6b2d2458040a4050b0b4a3e57e203d8738815821083545a426fdf73fc9a816040518082815260200191505060405180910390a150565b6000600360008373ffffffffffffffffffffffffffffffffffffffff1673ffffffffffffffffffffffffffffffffffffffff168152602001908152602001600020805490509050919050565b60008073ffffffffffffffffffffffffffffffffffffffff166006600084815260200190815260200160002060009054906101000a900473ffffffffffffffffffffffffffffffffffffffff1673ffffffffffffffffffffffffffffffffffffffff16141515611a4557600190505b919050565b60606040805190810160405280600381526020017f5454540000000000000000000000000000000000000000000000000000000000815250905090565b3373ffffffffffffffffffffffffffffffffffffffff168273ffffffffffffffffffffffffffffffffffffffff1614151515611ac257600080fd5b80600760003373ffffffffffffffffffffffffffffffffffffffff1673ffffffffffffffffffffffffffffffffffffffff16815260200190815260200160002060008473ffffffffffffffffffffffffffffffffffffffff1673ffffffffffffffffffffffffffffffffffffffff16815260200190815260200160002060006101000a81548160ff0219169083151502179055505050565b6060806060600080600260008781526020019081526020016000206002018054600181600116156101000203166002900480601f016020809104026020016040519081016040528092919081815260200182805460018160011615610100020316600290048015611c0c5780601f10611be157610100808354040283529160200191611c0c565b820191906000526020600020905b815481529060010190602001808311611bef57829003601f168201915b50505050509450600260008781526020019081526020016000206004018054600181600116156101000203166002900480601f016020809104026020016040519081016040528092919081815260200182805460018160011615610100020316600290048015611cbd5780601f10611c9257610100808354040283529160200191611cbd565b820191906000526020600020905b815481529060010190602001808311611ca057829003601f168201915b50505050509350600260008781526020019081526020016000206003018054600181600116156101000203166002900480601f016020809104026020016040519081016040528092919081815260200182805460018160011615610100020316600290048015611d6e5780601f10611d4357610100808354040283529160200191611d6e565b820191906000526020600020905b815481529060010190602001808311611d5157829003601f168201915b50505050509250600b6000878152602001908152602001600020549150600073ffffffffffffffffffffffffffffffffffffffff166006600088815260200190815260200160002060009054906101000a900473ffffffffffffffffffffffffffffffffffffffff1673ffffffffffffffffffffffffffffffffffffffff16141515611df957600190505b91939590929450565b60015481565b6060600260008381526020019081526020016000206000018054600181600116156101000203166002900480601f016020809104026020016040519081016040528092919081815260200182805460018160011615610100020316600290048015611eb45780601f10611e8957610100808354040283529160200191611eb4565b820191906000526020600020905b815481529060010190602001808311611e9757829003601f168201915b50505050509050919050565b60008060008473ffffffffffffffffffffffffffffffffffffffff166004600086815260200190815260200160002060009054906101000a900473ffffffffffffffffffffffffffffffffffffffff1673ffffffffffffffffffffffffffffffffffffffff16141515611f3257600080fd5b60056000858152602001908152602001600020549150600360008673ffffffffffffffffffffffffffffffffffffffff1673ffffffffffffffffffffffffffffffffffffffff1681526020019081526020016000206001600360008873ffffffffffffffffffffffffffffffffffffffff1673ffffffffffffffffffffffffffffffffffffffff1681526020019081526020016000208054905003815481101515611fd957fe5b9060005260206000200154905080600360008773ffffffffffffffffffffffffffffffffffffffff1673ffffffffffffffffffffffffffffffffffffffff1681526020019081526020016000208381548110151561203357fe5b906000526020600020018190555060009050600360008673ffffffffffffffffffffffffffffffffffffffff1673ffffffffffffffffffffffffffffffffffffffff16815260200190815260200160002080548091906001900361209791906129b4565b50600360008673ffffffffffffffffffffffffffffffffffffffff1673ffffffffffffffffffffffffffffffffffffffff168152602001908152602001600020805490509250505092915050565b6000806000803393503492506014838115156120fd57fe5b04915060148281151561210c57fe5b0490503073ffffffffffffffffffffffffffffffffffffffff166323b872dd6004600088815260200190815260200160002060009054906101000a900473ffffffffffffffffffffffffffffffffffffffff1686886040518463ffffffff167c0100000000000000000000000000000000000000000000000000000000028152600401808473ffffffffffffffffffffffffffffffffffffffff1673ffffffffffffffffffffffffffffffffffffffff1681526020018373ffffffffffffffffffffffffffffffffffffffff1673ffffffffffffffffffffffffffffffffffffffff1681526020018281526020019350505050600060405180830381600087803b15801561221957600080fd5b505af115801561222d573d6000803e3d6000fd5b50505050600860009054906101000a900473ffffffffffffffffffffffffffffffffffffffff1673ffffffffffffffffffffffffffffffffffffffff166108fc839081150290604051600060405180830381858888f19350505050158015612299573d6000803e3d6000fd5b50600960009054906101000a900473ffffffffffffffffffffffffffffffffffffffff1673ffffffffffffffffffffffffffffffffffffffff166108fc829081150290604051600060405180830381858888f19350505050158015612302573d6000803e3d6000fd5b505050505050565b6000600760008473ffffffffffffffffffffffffffffffffffffffff1673ffffffffffffffffffffffffffffffffffffffff16815260200190815260200160002060008373ffffffffffffffffffffffffffffffffffffffff1673ffffffffffffffffffffffffffffffffffffffff16815260200190815260200160002060009054906101000a900460ff16905092915050565b60028060ff166123ad3361154d565b60028111156123b857fe5b60ff161415156123c757600080fd5b8260ff1660028111156123d657fe5b6000808473ffffffffffffffffffffffffffffffffffffffff1673ffffffffffffffffffffffffffffffffffffffff16815260200190815260200160002060006101000a81548160ff0219169083600281111561242f57fe5b0217905550505050565b600081600b6000858152602001908152602001600020819055503073ffffffffffffffffffffffffffffffffffffffff1663095ea7b330856040518363ffffffff167c0100000000000000000000000000000000000000000000000000000000028152600401808373ffffffffffffffffffffffffffffffffffffffff1673ffffffffffffffffffffffffffffffffffffffff16815260200182815260200192505050600060405180830381600087803b1580156124f657600080fd5b505af115801561250a573d6000803e3d6000fd5b505050507fec3759d55f609c6666198ab6e098bbe8937fead3e8aa740c199b7ba1110642188383604051808381526020018281526020019250505060405180910390a192915050565b61255b6128f6565b600060208301905060408051908101604052808451815260200182815250915050919050565b6125896128f6565b612594838383612727565b5092915050565b606080600083600001516040519080825280601f01601f1916602001820160405280156125d75781602001602082028038833980820191505090505b5091506020820190506125f381856020015186600001516127c5565b8192505050919050565b60006006600083815260200190815260200160002060009054906101000a900473ffffffffffffffffffffffffffffffffffffffff169050919050565b816006600083815260200190815260200160002060006101000a81548173ffffffffffffffffffffffffffffffffffffffff021916908373ffffffffffffffffffffffffffffffffffffffff1602179055505050565b61269a8382611ec0565b506126a4816126d1565b6126ae8282611431565b505050565b60008082840190508381101515156126c757fe5b8091505092915050565b60006006600083815260200190815260200160002060006101000a81548173ffffffffffffffffffffffffffffffffffffffff021916908373ffffffffffffffffffffffffffffffffffffffff16021790555050565b61272f6128f6565b600061274d8560000151866020015186600001518760200151612810565b9050846020015183602001818152505084602001518103836000018181525050846000015185602001510181141561278f5760008560000181815250506127ba565b8360000151836000015101856000018181510391508181525050836000015181018560200181815250505b829150509392505050565b60005b6020821015156127ed57825184526020840193506020830192506020820391506127c8565b6001826020036101000a0390508019835116818551168181178652505050505050565b60008060008060008060008060008b97508c8b1115156128e05760208b11151561289a5760018b60200360080260020a03196001029550858a511694508a8d8d010393508588511692505b8460001916836000191614151561289257838810151561287f578c8c0198506128e6565b878060010198505085885116925061285b565b8798506128e6565b8a8a209150600096505b8a8d03871115156128df578a882090508060001916826000191614156128cc578798506128e6565b60018801975086806001019750506128a4565b5b8c8c0198505b5050505050505050949350505050565b604080519081016040528060008152602001600081525090565b828054600181600116156101000203166002900490600052602060002090601f016020900481019282601f1061295157805160ff191683800117855561297f565b8280016001018555821561297f579182015b8281111561297e578251825591602001919060010190612963565b5b50905061298c91906129e0565b5090565b610ca060405190810160405280606590602082028038833980820191505090505090565b8154818355818111156129db578183600052602060002091820191016129da91906129e0565b5b505050565b612a0291905b808211156129fe5760008160009055506001016129e6565b5090565b905600a165627a7a72305820bdcdd16f8188d328b7abac4c32f350ce1be498a5c4d9a894483a4ac5b1197df40029",
  "source": "pragma solidity ^0.4.23;\nimport './update.sol';\n\n// All functions will only work if user verified contract as operator before:\n// this can be done:\n// function setApprovalForAll(\"Adress_of_contract\", \"True\")\n\ncontract buyable is update {\n\n    address BLOOMING_POOL_ADDRESS;\n    address INFRASTRUCTURE_POOL_ADDRESS;\n    uint blooming_fee = 2;\n    mapping (uint256 => uint256) TokenIdtoprice;\n\n    event Set_price_and_sell(uint256 tokenId, uint256 Price);\n    event Stop_sell(uint256 tokenId);\n\n    constructor(address _infrastructure_address, address _blooming_address){\n        INFRASTRUCTURE_POOL_ADDRESS = _infrastructure_address;\n        BLOOMING_POOL_ADDRESS = _blooming_address;\n    }\n\n    function set_price_and_sell(uint256 UniqueID,uint256 Price) external payable returns (address){\n    TokenIdtoprice[UniqueID] = Price;\n    this.approve(address(this), UniqueID);\n    emit Set_price_and_sell(UniqueID, Price);\n    }\n\n    function stop_sell(uint256 UniqueID) external payable{\n    require(TokenIdtoadress[UniqueID] == msg.sender );\n    _clearTokenApproval(UniqueID);\n    emit Stop_sell(UniqueID);\n    }\n\n    function buy(uint256 UniqueID)external payable{\n    address _to =  msg.sender;\n    uint _total = msg.value;\n    uint _blooming = (_total / 20);\n    uint _infrastructure = (_blooming / 20);\n    this.transferFrom(TokenIdtoadress[UniqueID], _to, UniqueID);\n    BLOOMING_POOL_ADDRESS.transfer(_blooming);\n    INFRASTRUCTURE_POOL_ADDRESS.transfer(_infrastructure);\n    }\n\n    function get_token_data(uint256 _tokenId) external view returns(string _health,string _height, string _blooming,uint256 _price, bool _buyable ){\n    _health =  TokenId[_tokenId].health;\n    _height = TokenId[_tokenId].height;\n    _blooming = TokenId[_tokenId].blooming;\n    _price = TokenIdtoprice[_tokenId];\n    if (TokenIdToApprovedAddress[_tokenId] != address(0)){\n        _buyable = true;\n    }\n}\n\n    function get_token_data_buyable(uint256 _tokenId) external view returns(bool _buyable ){\n    if (TokenIdToApprovedAddress[_tokenId] != address(0)){\n        _buyable = true;\n    }\n    }\n\n    function get_all_sellable_token()external view returns(bytes1[101] list_of_available){\n    for(uint i;i<101;i++) {\n          if (TokenIdToApprovedAddress[i-1] != address(0)){\n            list_of_available[i] = 0x01;\n          }else{\n            list_of_available[i] = 0x00;\n          }\n        }\n    }\n\n}\n",
  "sourcePath": "/Users/mfahampshire/terra0/source/ERC721/contracts/buyable.sol",
  "compiler": {
    "name": "solc",
    "version": "0.4.23+commit.124ca40d.Emscripten.clang"
  },
  "schemaVersion": "2.0.0",
  "updatedAt": "2018-05-13T13:08:58.433Z"
}