{
  "contractName": "buyable",
  "abi": [
    {
      "constant": false,
      "inputs": [
        {
          "name": "_tokenId",
          "type": "uint256"
        },
        {
          "name": "state",
          "type": "string"
        }
      ],
      "name": "updatetoken",
      "outputs": [],
      "payable": false,
      "stateMutability": "nonpayable",
      "type": "function"
    },
    {
      "constant": true,
      "inputs": [
        {
          "name": "_tokenId",
          "type": "uint256"
        }
      ],
      "name": "getApproved",
      "outputs": [
        {
          "name": "",
          "type": "address"
        }
      ],
      "payable": false,
      "stateMutability": "view",
      "type": "function"
    },
    {
      "constant": false,
      "inputs": [
        {
          "name": "_to",
          "type": "address"
        },
        {
          "name": "_tokenId",
          "type": "uint256"
        }
      ],
      "name": "approve",
      "outputs": [],
      "payable": false,
      "stateMutability": "nonpayable",
      "type": "function"
    },
    {
      "constant": false,
      "inputs": [
        {
          "name": "_from",
          "type": "address"
        },
        {
          "name": "_to",
          "type": "address"
        },
        {
          "name": "_tokenId",
          "type": "uint256"
        }
      ],
      "name": "transferFrom",
      "outputs": [],
      "payable": false,
      "stateMutability": "nonpayable",
      "type": "function"
    },
    {
      "constant": true,
      "inputs": [],
      "name": "INFRASTRUCTURE_POOL_ADDRESS",
      "outputs": [
        {
          "name": "",
          "type": "address"
        }
      ],
      "payable": false,
      "stateMutability": "view",
      "type": "function"
    },
    {
      "constant": true,
      "inputs": [
        {
          "name": "_spender",
          "type": "address"
        },
        {
          "name": "_tokenId",
          "type": "uint256"
        }
      ],
      "name": "isApprovedOrOwner",
      "outputs": [
        {
          "name": "",
          "type": "bool"
        }
      ],
      "payable": false,
      "stateMutability": "view",
      "type": "function"
    },
    {
      "constant": true,
      "inputs": [
        {
          "name": "entity",
          "type": "address"
        }
      ],
      "name": "getRole",
      "outputs": [
        {
          "name": "",
          "type": "uint8"
        }
      ],
      "payable": false,
      "stateMutability": "view",
      "type": "function"
    },
    {
      "constant": false,
      "inputs": [
        {
          "name": "_to",
          "type": "address"
        },
        {
          "name": "_tokenId",
          "type": "uint256"
        }
      ],
      "name": "_mint",
      "outputs": [],
      "payable": false,
      "stateMutability": "nonpayable",
      "type": "function"
    },
    {
      "constant": true,
      "inputs": [
        {
          "name": "_tokenId",
          "type": "uint256"
        }
      ],
      "name": "exists",
      "outputs": [
        {
          "name": "",
          "type": "bool"
        }
      ],
      "payable": false,
      "stateMutability": "view",
      "type": "function"
    },
    {
      "constant": false,
      "inputs": [
        {
          "name": "_owner",
          "type": "address"
        },
        {
          "name": "_tokenId",
          "type": "uint256"
        }
      ],
      "name": "_burn",
      "outputs": [],
      "payable": false,
      "stateMutability": "nonpayable",
      "type": "function"
    },
    {
      "constant": true,
      "inputs": [
        {
          "name": "_tokenId",
          "type": "uint256"
        }
      ],
      "name": "ownerOf",
      "outputs": [
        {
          "name": "",
          "type": "address"
        }
      ],
      "payable": false,
      "stateMutability": "view",
      "type": "function"
    },
    {
      "constant": true,
      "inputs": [
        {
          "name": "_owner",
          "type": "address"
        }
      ],
      "name": "balanceOf",
      "outputs": [
        {
          "name": "",
          "type": "uint256"
        }
      ],
      "payable": false,
      "stateMutability": "view",
      "type": "function"
    },
    {
      "constant": true,
      "inputs": [],
      "name": "BLOOMING_POOL_ADDRESS",
      "outputs": [
        {
          "name": "",
          "type": "address"
        }
      ],
      "payable": false,
      "stateMutability": "view",
      "type": "function"
    },
    {
      "constant": false,
      "inputs": [
        {
          "name": "_to",
          "type": "address"
        },
        {
          "name": "_approved",
          "type": "bool"
        }
      ],
      "name": "setApprovalForAll",
      "outputs": [],
      "payable": false,
      "stateMutability": "nonpayable",
      "type": "function"
    },
    {
      "constant": true,
      "inputs": [],
      "name": "numTokensTotal",
      "outputs": [
        {
          "name": "",
          "type": "uint256"
        }
      ],
      "payable": false,
      "stateMutability": "view",
      "type": "function"
    },
    {
      "constant": true,
      "inputs": [
        {
          "name": "_owner",
          "type": "address"
        },
        {
          "name": "_operator",
          "type": "address"
        }
      ],
      "name": "isApprovedForAll",
      "outputs": [
        {
          "name": "",
          "type": "bool"
        }
      ],
      "payable": false,
      "stateMutability": "view",
      "type": "function"
    },
    {
      "constant": false,
      "inputs": [
        {
          "name": "rolevalue",
          "type": "uint8"
        },
        {
          "name": "entity",
          "type": "address"
        }
      ],
      "name": "setRole",
      "outputs": [],
      "payable": false,
      "stateMutability": "nonpayable",
      "type": "function"
    },
    {
      "constant": true,
      "inputs": [],
      "name": "ERC721_ADDRESS",
      "outputs": [
        {
          "name": "",
          "type": "address"
        }
      ],
      "payable": false,
      "stateMutability": "view",
      "type": "function"
    },
    {
      "inputs": [
        {
          "name": "_infrastructure_address",
          "type": "address"
        },
        {
          "name": "_blooming_address",
          "type": "address"
        },
        {
          "name": "_erc_address",
          "type": "address"
        }
      ],
      "payable": false,
      "stateMutability": "nonpayable",
      "type": "constructor"
    },
    {
      "anonymous": false,
      "inputs": [
        {
          "indexed": false,
          "name": "tokenId",
          "type": "uint256"
        },
        {
          "indexed": false,
          "name": "Price",
          "type": "uint256"
        }
      ],
      "name": "sell",
      "type": "event"
    },
    {
      "anonymous": false,
      "inputs": [
        {
          "indexed": false,
          "name": "tokenId",
          "type": "uint256"
        }
      ],
      "name": "sell_stop",
      "type": "event"
    },
    {
      "anonymous": false,
      "inputs": [
        {
          "indexed": false,
          "name": "_tokenId",
          "type": "uint256"
        },
        {
          "indexed": false,
          "name": "state",
          "type": "string"
        }
      ],
      "name": "UpdateToken",
      "type": "event"
    },
    {
      "anonymous": false,
      "inputs": [
        {
          "indexed": true,
          "name": "_from",
          "type": "address"
        },
        {
          "indexed": true,
          "name": "_to",
          "type": "address"
        },
        {
          "indexed": false,
          "name": "_tokenId",
          "type": "uint256"
        }
      ],
      "name": "Transfer",
      "type": "event"
    },
    {
      "anonymous": false,
      "inputs": [
        {
          "indexed": true,
          "name": "_owner",
          "type": "address"
        },
        {
          "indexed": true,
          "name": "_approved",
          "type": "address"
        },
        {
          "indexed": false,
          "name": "_tokenId",
          "type": "uint256"
        }
      ],
      "name": "Approval",
      "type": "event"
    },
    {
      "anonymous": false,
      "inputs": [
        {
          "indexed": true,
          "name": "_owner",
          "type": "address"
        },
        {
          "indexed": true,
          "name": "_operator",
          "type": "address"
        },
        {
          "indexed": false,
          "name": "_approved",
          "type": "bool"
        }
      ],
      "name": "ApprovalForAll",
      "type": "event"
    },
    {
      "constant": false,
      "inputs": [
        {
          "name": "_uniqueID",
          "type": "uint256"
        },
        {
          "name": "_price",
          "type": "uint256"
        }
      ],
      "name": "set_price_and_sell",
      "outputs": [],
      "payable": false,
      "stateMutability": "nonpayable",
      "type": "function"
    },
    {
      "constant": false,
      "inputs": [
        {
          "name": "UniqueID",
          "type": "uint256"
        }
      ],
      "name": "stop_sell",
      "outputs": [],
      "payable": true,
      "stateMutability": "payable",
      "type": "function"
    },
    {
      "constant": false,
      "inputs": [
        {
          "name": "UniqueID",
          "type": "uint256"
        }
      ],
      "name": "buy",
      "outputs": [],
      "payable": true,
      "stateMutability": "payable",
      "type": "function"
    },
    {
      "constant": true,
      "inputs": [
        {
          "name": "_tokenId",
          "type": "uint256"
        }
      ],
      "name": "get_token_data",
      "outputs": [
        {
          "name": "_health",
          "type": "string"
        },
        {
          "name": "_height",
          "type": "string"
        },
        {
          "name": "_blooming",
          "type": "string"
        },
        {
          "name": "_price",
          "type": "uint256"
        },
        {
          "name": "_buyable",
          "type": "bool"
        }
      ],
      "payable": false,
      "stateMutability": "view",
      "type": "function"
    },
    {
      "constant": true,
      "inputs": [
        {
          "name": "_tokenId",
          "type": "uint256"
        }
      ],
      "name": "get_token_data_buyable",
      "outputs": [
        {
          "name": "_buyable",
          "type": "bool"
        }
      ],
      "payable": false,
      "stateMutability": "view",
      "type": "function"
    },
    {
      "constant": true,
      "inputs": [],
      "name": "get_all_sellable_token",
      "outputs": [
        {
          "name": "list_of_available",
          "type": "bytes1[101]"
        }
      ],
      "payable": false,
      "stateMutability": "view",
      "type": "function"
    }
  ],
  "bytecode": "0x60806040526002600a553480156200001657600080fd5b506040516060806200278a8339810180604052810190808051906020019092919080519060200190929190805190602001909291905050506002808111156200005b57fe5b6000803373ffffffffffffffffffffffffffffffffffffffff1673ffffffffffffffffffffffffffffffffffffffff16815260200190815260200160002060006101000a81548160ff02191690836002811115620000b557fe5b021790555060028060ff16620000da33620001c3640100000000026401000000009004565b6002811115620000e657fe5b60ff16141515620000f657600080fd5b83600760006101000a81548173ffffffffffffffffffffffffffffffffffffffff021916908373ffffffffffffffffffffffffffffffffffffffff16021790555082600860006101000a81548173ffffffffffffffffffffffffffffffffffffffff021916908373ffffffffffffffffffffffffffffffffffffffff16021790555081600960006101000a81548173ffffffffffffffffffffffffffffffffffffffff021916908373ffffffffffffffffffffffffffffffffffffffff1602179055505050505062000218565b60008060008373ffffffffffffffffffffffffffffffffffffffff1673ffffffffffffffffffffffffffffffffffffffff16815260200190815260200160002060009054906101000a900460ff169050919050565b61256280620002286000396000f30060806040526004361061013e576000357c0100000000000000000000000000000000000000000000000000000000900463ffffffff16806303ad4be314610143578063081812fc14610188578063095ea7b3146101f557806323b872dd1461024257806332a1a468146102af578063430c208114610306578063442767331461036b5780634e6ec247146103d05780634f558e791461041d578063609a54b0146104625780636161eb18146104b55780636352211e146105025780636effb5791461056f57806370a082311461058f5780637c968f5d146105e65780638f2e5c371461062b578063a22cb46514610682578063a726be9a146106d1578063af129dc214610861578063d96a094a1461088c578063e985e9c5146108ac578063f2e12a3914610927578063f709fd0d14610977578063f7b42d08146109ce575b600080fd5b34801561014f57600080fd5b5061018660048036038101908080359060200190929190803590602001908201803590602001919091929391929390505050610a05565b005b34801561019457600080fd5b506101b360048036038101908080359060200190929190505050610c59565b604051808273ffffffffffffffffffffffffffffffffffffffff1673ffffffffffffffffffffffffffffffffffffffff16815260200191505060405180910390f35b34801561020157600080fd5b50610240600480360381019080803573ffffffffffffffffffffffffffffffffffffffff16906020019092919080359060200190929190505050610c96565b005b34801561024e57600080fd5b506102ad600480360381019080803573ffffffffffffffffffffffffffffffffffffffff169060200190929190803573ffffffffffffffffffffffffffffffffffffffff16906020019092919080359060200190929190505050610db5565b005b3480156102bb57600080fd5b506102c4610ec2565b604051808273ffffffffffffffffffffffffffffffffffffffff1673ffffffffffffffffffffffffffffffffffffffff16815260200191505060405180910390f35b34801561031257600080fd5b50610351600480360381019080803573ffffffffffffffffffffffffffffffffffffffff16906020019092919080359060200190929190505050610ee8565b604051808215151515815260200191505060405180910390f35b34801561037757600080fd5b506103ac600480360381019080803573ffffffffffffffffffffffffffffffffffffffff169060200190929190505050610f7d565b604051808260028111156103bc57fe5b60ff16815260200191505060405180910390f35b3480156103dc57600080fd5b5061041b600480360381019080803573ffffffffffffffffffffffffffffffffffffffff16906020019092919080359060200190929190505050610fd2565b005b34801561042957600080fd5b50610448600480360381019080803590602001909291905050506110c7565b604051808215151515815260200191505060405180910390f35b34801561046e57600080fd5b50610477611139565b6040518082606560200280838360005b838110156104a2578082015181840152602081019050610487565b5050505090500191505060405180910390f35b3480156104c157600080fd5b50610500600480360381019080803573ffffffffffffffffffffffffffffffffffffffff169060200190929190803590602001909291905050506112d2565b005b34801561050e57600080fd5b5061052d60048036038101908080359060200190929190505050611395565b604051808273ffffffffffffffffffffffffffffffffffffffff1673ffffffffffffffffffffffffffffffffffffffff16815260200191505060405180910390f35b61058d60048036038101908080359060200190929190505050611413565b005b34801561059b57600080fd5b506105d0600480360381019080803573ffffffffffffffffffffffffffffffffffffffff1690602001909291905050506114f7565b6040518082815260200191505060405180910390f35b3480156105f257600080fd5b506106116004803603810190808035906020019092919050505061157b565b604051808215151515815260200191505060405180910390f35b34801561063757600080fd5b506106406115ef565b604051808273ffffffffffffffffffffffffffffffffffffffff1673ffffffffffffffffffffffffffffffffffffffff16815260200191505060405180910390f35b34801561068e57600080fd5b506106cf600480360381019080803573ffffffffffffffffffffffffffffffffffffffff169060200190929190803515159060200190929190505050611615565b005b3480156106dd57600080fd5b506106fc60048036038101908080359060200190929190505050611751565b6040518080602001806020018060200186815260200185151515158152602001848103845289818151815260200191508051906020019080838360005b83811015610754578082015181840152602081019050610739565b50505050905090810190601f1680156107815780820380516001836020036101000a031916815260200191505b50848103835288818151815260200191508051906020019080838360005b838110156107ba57808201518184015260208101905061079f565b50505050905090810190601f1680156107e75780820380516001836020036101000a031916815260200191505b50848103825287818151815260200191508051906020019080838360005b83811015610820578082015181840152602081019050610805565b50505050905090810190601f16801561084d5780820380516001836020036101000a031916815260200191505b509850505050505050505060405180910390f35b34801561086d57600080fd5b506108766119f9565b6040518082815260200191505060405180910390f35b6108aa600480360381019080803590602001909291905050506119ff565b005b3480156108b857600080fd5b5061090d600480360381019080803573ffffffffffffffffffffffffffffffffffffffff169060200190929190803573ffffffffffffffffffffffffffffffffffffffff169060200190929190505050611b46565b604051808215151515815260200191505060405180910390f35b34801561093357600080fd5b50610975600480360381019080803560ff169060200190929190803573ffffffffffffffffffffffffffffffffffffffff169060200190929190505050611bda565b005b34801561098357600080fd5b5061098c611c75565b604051808273ffffffffffffffffffffffffffffffffffffffff1673ffffffffffffffffffffffffffffffffffffffff16815260200191505060405180910390f35b3480156109da57600080fd5b50610a036004803603810190808035906020019092919080359060200190929190505050611c9b565b005b610a0d612453565b60018060ff16610a1c33610f7d565b6002811115610a2757fe5b60ff16141515610a3657600080fd5b610a7184848080601f016020809104026020016040519081016040528093929190818152602001838380828437820191505050505050611db1565b9150610acb610ac6610ab76040805190810160405280600181526020017f2e00000000000000000000000000000000000000000000000000000000000000815250611db1565b84611ddf90919063ffffffff16565b611df9565b600660008781526020019081526020016000206002019080519060200190610af492919061246d565b50610b4d610b48610b396040805190810160405280600181526020017f2e00000000000000000000000000000000000000000000000000000000000000815250611db1565b84611ddf90919063ffffffff16565b611df9565b600660008781526020019081526020016000206000019080519060200190610b7692919061246d565b50610bcf610bca610bbb6040805190810160405280600181526020017f2e00000000000000000000000000000000000000000000000000000000000000815250611db1565b84611ddf90919063ffffffff16565b611df9565b600660008781526020019081526020016000206001019080519060200190610bf892919061246d565b507f53560fd2a0eb35afd8d535363033618f52ccbfc857a7bf616eb195a0ed022ef485858560405180848152602001806020018281038252848482818152602001925080828437820191505094505050505060405180910390a15050505050565b60006003600083815260200190815260200160002060009054906101000a900473ffffffffffffffffffffffffffffffffffffffff169050919050565b816003600083815260200190815260200160002060006101000a81548173ffffffffffffffffffffffffffffffffffffffff021916908373ffffffffffffffffffffffffffffffffffffffff160217905550600073ffffffffffffffffffffffffffffffffffffffff16610d0982610c59565b73ffffffffffffffffffffffffffffffffffffffff16141580610d595750600073ffffffffffffffffffffffffffffffffffffffff168273ffffffffffffffffffffffffffffffffffffffff1614155b15610db157816003600083815260200190815260200160002060006101000a81548173ffffffffffffffffffffffffffffffffffffffff021916908373ffffffffffffffffffffffffffffffffffffffff1602179055505b5050565b80610dc03382610ee8565b1515610dcb57600080fd5b600073ffffffffffffffffffffffffffffffffffffffff168473ffffffffffffffffffffffffffffffffffffffff1614151515610e0757600080fd5b600073ffffffffffffffffffffffffffffffffffffffff168373ffffffffffffffffffffffffffffffffffffffff1614151515610e4357600080fd5b610e4d8483611e5b565b610e578383611f8a565b8273ffffffffffffffffffffffffffffffffffffffff168473ffffffffffffffffffffffffffffffffffffffff167fddf252ad1be2c89b69c2b068fc378daa952ba7f163c4a11628f55a4df523b3ef846040518082815260200191505060405180910390a350505050565b600760009054906101000a900473ffffffffffffffffffffffffffffffffffffffff1681565b600080610ef483611395565b90508073ffffffffffffffffffffffffffffffffffffffff168473ffffffffffffffffffffffffffffffffffffffff161480610f6357508373ffffffffffffffffffffffffffffffffffffffff16610f4b84610c59565b73ffffffffffffffffffffffffffffffffffffffff16145b80610f745750610f738185611b46565b5b91505092915050565b60008060008373ffffffffffffffffffffffffffffffffffffffff1673ffffffffffffffffffffffffffffffffffffffff16815260200190815260200160002060009054906101000a900460ff169050919050565b60028060ff16610fe133610f7d565b6002811115610fec57fe5b60ff16141515610ffb57600080fd5b600073ffffffffffffffffffffffffffffffffffffffff168373ffffffffffffffffffffffffffffffffffffffff161415151561103757600080fd5b6110418383611f8a565b611056600180546120e490919063ffffffff16565b6001819055508273ffffffffffffffffffffffffffffffffffffffff16600073ffffffffffffffffffffffffffffffffffffffff167fddf252ad1be2c89b69c2b068fc378daa952ba7f163c4a11628f55a4df523b3ef846040518082815260200191505060405180910390a3505050565b6000806002600084815260200190815260200160002060009054906101000a900473ffffffffffffffffffffffffffffffffffffffff169050600073ffffffffffffffffffffffffffffffffffffffff168173ffffffffffffffffffffffffffffffffffffffff161415915050919050565b6111416124ed565b60008090505b60658110156112ce57600073ffffffffffffffffffffffffffffffffffffffff166003600083815260200190815260200160002060009054906101000a900473ffffffffffffffffffffffffffffffffffffffff1673ffffffffffffffffffffffffffffffffffffffff1614151561123f5760017f01000000000000000000000000000000000000000000000000000000000000000282826065811015156111eb57fe5b60200201907effffffffffffffffffffffffffffffffffffffffffffffffffffffffffffff191690817effffffffffffffffffffffffffffffffffffffffffffffffffffffffffffff1916815250506112c1565b60007f010000000000000000000000000000000000000000000000000000000000000002828260658110151561127157fe5b60200201907effffffffffffffffffffffffffffffffffffffffffffffffffffffffffffff191690817effffffffffffffffffffffffffffffffffffffffffffffffffffffffffffff1916815250505b8080600101915050611147565b5090565b60028060ff166112e133610f7d565b60028111156112ec57fe5b60ff161415156112fb57600080fd5b6113058383612102565b61130f8383611e5b565b6113246001805461226b90919063ffffffff16565b600181905550600073ffffffffffffffffffffffffffffffffffffffff168373ffffffffffffffffffffffffffffffffffffffff167fddf252ad1be2c89b69c2b068fc378daa952ba7f163c4a11628f55a4df523b3ef846040518082815260200191505060405180910390a3505050565b6000806002600084815260200190815260200160002060009054906101000a900473ffffffffffffffffffffffffffffffffffffffff169050600073ffffffffffffffffffffffffffffffffffffffff168173ffffffffffffffffffffffffffffffffffffffff161415151561140a57600080fd5b80915050919050565b3373ffffffffffffffffffffffffffffffffffffffff166002600083815260200190815260200160002060009054906101000a900473ffffffffffffffffffffffffffffffffffffffff1673ffffffffffffffffffffffffffffffffffffffff1614151561148057600080fd5b6114bd6002600083815260200190815260200160002060009054906101000a900473ffffffffffffffffffffffffffffffffffffffff1682612102565b7ff3cab986ff5ad767e22a887eceef219066ee71c91eb55d96f5dafeef83a4fdf6816040518082815260200191505060405180910390a150565b60008073ffffffffffffffffffffffffffffffffffffffff168273ffffffffffffffffffffffffffffffffffffffff161415151561153457600080fd5b600460008373ffffffffffffffffffffffffffffffffffffffff1673ffffffffffffffffffffffffffffffffffffffff168152602001908152602001600020549050919050565b60008073ffffffffffffffffffffffffffffffffffffffff166003600084815260200190815260200160002060009054906101000a900473ffffffffffffffffffffffffffffffffffffffff1673ffffffffffffffffffffffffffffffffffffffff161415156115ea57600190505b919050565b600860009054906101000a900473ffffffffffffffffffffffffffffffffffffffff1681565b3373ffffffffffffffffffffffffffffffffffffffff168273ffffffffffffffffffffffffffffffffffffffff161415151561165057600080fd5b80600560003373ffffffffffffffffffffffffffffffffffffffff1673ffffffffffffffffffffffffffffffffffffffff16815260200190815260200160002060008473ffffffffffffffffffffffffffffffffffffffff1673ffffffffffffffffffffffffffffffffffffffff16815260200190815260200160002060006101000a81548160ff0219169083151502179055508173ffffffffffffffffffffffffffffffffffffffff163373ffffffffffffffffffffffffffffffffffffffff167f17307eab39ab6107e8899845ad3d59bd9653f200f220920489ca2b5937696c3183604051808215151515815260200191505060405180910390a35050565b6060806060600080600660008781526020019081526020016000206000018054600181600116156101000203166002900480601f0160208091040260200160405190810160405280929190818152602001828054600181600116156101000203166002900480156118035780601f106117d857610100808354040283529160200191611803565b820191906000526020600020905b8154815290600101906020018083116117e657829003601f168201915b50505050509450600660008781526020019081526020016000206002018054600181600116156101000203166002900480601f0160208091040260200160405190810160405280929190818152602001828054600181600116156101000203166002900480156118b45780601f10611889576101008083540402835291602001916118b4565b820191906000526020600020905b81548152906001019060200180831161189757829003601f168201915b50505050509350600660008781526020019081526020016000206001018054600181600116156101000203166002900480601f0160208091040260200160405190810160405280929190818152602001828054600181600116156101000203166002900480156119655780601f1061193a57610100808354040283529160200191611965565b820191906000526020600020905b81548152906001019060200180831161194857829003601f168201915b50505050509250600b6000878152602001908152602001600020549150600073ffffffffffffffffffffffffffffffffffffffff166003600088815260200190815260200160002060009054906101000a900473ffffffffffffffffffffffffffffffffffffffff1673ffffffffffffffffffffffffffffffffffffffff161415156119f057600190505b91939590929450565b60015481565b600960009054906101000a900473ffffffffffffffffffffffffffffffffffffffff1673ffffffffffffffffffffffffffffffffffffffff166323b872dd6002600084815260200190815260200160002060009054906101000a900473ffffffffffffffffffffffffffffffffffffffff1633846040518463ffffffff167c0100000000000000000000000000000000000000000000000000000000028152600401808473ffffffffffffffffffffffffffffffffffffffff1673ffffffffffffffffffffffffffffffffffffffff1681526020018373ffffffffffffffffffffffffffffffffffffffff1673ffffffffffffffffffffffffffffffffffffffff1681526020018281526020019350505050600060405180830381600087803b158015611b2b57600080fd5b505af1158015611b3f573d6000803e3d6000fd5b5050505050565b6000600560008473ffffffffffffffffffffffffffffffffffffffff1673ffffffffffffffffffffffffffffffffffffffff16815260200190815260200160002060008373ffffffffffffffffffffffffffffffffffffffff1673ffffffffffffffffffffffffffffffffffffffff16815260200190815260200160002060009054906101000a900460ff16905092915050565b60028060ff16611be933610f7d565b6002811115611bf457fe5b60ff16141515611c0357600080fd5b8260ff166002811115611c1257fe5b6000808473ffffffffffffffffffffffffffffffffffffffff1673ffffffffffffffffffffffffffffffffffffffff16815260200190815260200160002060006101000a81548160ff02191690836002811115611c6b57fe5b0217905550505050565b600960009054906101000a900473ffffffffffffffffffffffffffffffffffffffff1681565b80600b6000848152602001908152602001600020819055503073ffffffffffffffffffffffffffffffffffffffff1663095ea7b330846040518363ffffffff167c0100000000000000000000000000000000000000000000000000000000028152600401808373ffffffffffffffffffffffffffffffffffffffff1673ffffffffffffffffffffffffffffffffffffffff16815260200182815260200192505050600060405180830381600087803b158015611d5657600080fd5b505af1158015611d6a573d6000803e3d6000fd5b505050507fd79875eb1489ed8e5731ccc3429d0eb54234baacf777e45c2589e85a7c857dde8282604051808381526020018281526020019250505060405180910390a15050565b611db9612453565b600060208301905060408051908101604052808451815260200182815250915050919050565b611de7612453565b611df2838383612284565b5092915050565b606080600083600001516040519080825280601f01601f191660200182016040528015611e355781602001602082028038833980820191505090505b509150602082019050611e518185602001518660000151612322565b8192505050919050565b8173ffffffffffffffffffffffffffffffffffffffff16611e7b82611395565b73ffffffffffffffffffffffffffffffffffffffff16141515611e9d57600080fd5b611ef06001600460008573ffffffffffffffffffffffffffffffffffffffff1673ffffffffffffffffffffffffffffffffffffffff1681526020019081526020016000205461226b90919063ffffffff16565b600460008473ffffffffffffffffffffffffffffffffffffffff1673ffffffffffffffffffffffffffffffffffffffff1681526020019081526020016000208190555060006002600083815260200190815260200160002060006101000a81548173ffffffffffffffffffffffffffffffffffffffff021916908373ffffffffffffffffffffffffffffffffffffffff1602179055505050565b600073ffffffffffffffffffffffffffffffffffffffff166002600083815260200190815260200160002060009054906101000a900473ffffffffffffffffffffffffffffffffffffffff1673ffffffffffffffffffffffffffffffffffffffff16141515611ff857600080fd5b816002600083815260200190815260200160002060006101000a81548173ffffffffffffffffffffffffffffffffffffffff021916908373ffffffffffffffffffffffffffffffffffffffff16021790555061209d6001600460008573ffffffffffffffffffffffffffffffffffffffff1673ffffffffffffffffffffffffffffffffffffffff168152602001908152602001600020546120e490919063ffffffff16565b600460008473ffffffffffffffffffffffffffffffffffffffff1673ffffffffffffffffffffffffffffffffffffffff168152602001908152602001600020819055505050565b60008082840190508381101515156120f857fe5b8091505092915050565b8173ffffffffffffffffffffffffffffffffffffffff1661212282611395565b73ffffffffffffffffffffffffffffffffffffffff1614151561214457600080fd5b600073ffffffffffffffffffffffffffffffffffffffff166003600083815260200190815260200160002060009054906101000a900473ffffffffffffffffffffffffffffffffffffffff1673ffffffffffffffffffffffffffffffffffffffff161415156122675760006003600083815260200190815260200160002060006101000a81548173ffffffffffffffffffffffffffffffffffffffff021916908373ffffffffffffffffffffffffffffffffffffffff160217905550600073ffffffffffffffffffffffffffffffffffffffff168273ffffffffffffffffffffffffffffffffffffffff167f8c5be1e5ebec7d5bd14f71427d1e84f3dd0314c0f7b2291e5b200ac8c7c3b925836040518082815260200191505060405180910390a35b5050565b600082821115151561227957fe5b818303905092915050565b61228c612453565b60006122aa856000015186602001518660000151876020015161236d565b905084602001518360200181815250508460200151810383600001818152505084600001518560200151018114156122ec576000856000018181525050612317565b8360000151836000015101856000018181510391508181525050836000015181018560200181815250505b829150509392505050565b60005b60208210151561234a5782518452602084019350602083019250602082039150612325565b6001826020036101000a0390508019835116818551168181178652505050505050565b60008060008060008060008060008b97508c8b11151561243d5760208b1115156123f75760018b60200360080260020a03196001029550858a511694508a8d8d010393508588511692505b846000191683600019161415156123ef5783881015156123dc578c8c019850612443565b87806001019850508588511692506123b8565b879850612443565b8a8a209150600096505b8a8d038711151561243c578a8820905080600019168260001916141561242957879850612443565b6001880197508680600101975050612401565b5b8c8c0198505b5050505050505050949350505050565b604080519081016040528060008152602001600081525090565b828054600181600116156101000203166002900490600052602060002090601f016020900481019282601f106124ae57805160ff19168380011785556124dc565b828001600101855582156124dc579182015b828111156124db5782518255916020019190600101906124c0565b5b5090506124e99190612511565b5090565b610ca060405190810160405280606590602082028038833980820191505090505090565b61253391905b8082111561252f576000816000905550600101612517565b5090565b905600a165627a7a72305820d476d5574f97353349806a893d17c301e3f03ac8d8993ae7aae2fd011d2020660029",
  "source": "pragma solidity ^0.4.23;\nimport './update.sol';\n\ncontract buyable is update {\n\n\taddress public INFRASTRUCTURE_POOL_ADDRESS;\n\taddress public BLOOMING_POOL_ADDRESS;\n\taddress public ERC721_ADDRESS;\n    uint blooming_fee = 2;\n    mapping (uint256 => uint256) TokenIdtoprice;\n\n    event sell(uint256 tokenId, uint256 Price);\n    event sell_stop(uint256 tokenId);\n\n    constructor(address _infrastructure_address, address _blooming_address, address _erc_address) public check(2) {\n        INFRASTRUCTURE_POOL_ADDRESS = _infrastructure_address;\n        BLOOMING_POOL_ADDRESS = _blooming_address;\n\t\tERC721_ADDRESS = _erc_address;\n    }\n\n    function set_price_and_sell(uint256 _uniqueID, uint256 _price) external {\n\t\tTokenIdtoprice[_uniqueID] = _price;\n\t    this.approve(this, _uniqueID); // <---- is this sending correct msg.sender to isApprovedForAll in approve?\n\t\temit sell(_uniqueID, _price);\n    }\n\n    function stop_sell(uint256 UniqueID) external payable {\n    require(tokenOwner[UniqueID] == msg.sender );\n    clearApproval(tokenOwner[UniqueID],UniqueID);\n    emit sell_stop(UniqueID);\n    }\n\nfunction buy(uint256 UniqueID) external payable {\n// \t\t    uint _total = msg.value;\n// \t\t\tif (_total !=TokenIdtoprice[UniqueID]){\n// \t\t\t\trevert();\n// \t\t\t} else {\n// \t\t\t\tuint _blooming = (_total / 20);\n// \t\t\t    uint _infrastructure = (_blooming / 20);\n// \t\t\t\tuint _amount_for_seller = msg.value.sub(_blooming + _infrastructure);\n// \t\t\t\taddress _seller = tokenOwner[UniqueID];\n// \t\t\t\t_seller.transfer(_amount_for_seller);\n\t\t\t    ERC721BasicToken(ERC721_ADDRESS).transferFrom(tokenOwner[UniqueID], msg.sender, UniqueID);\n\t\t\t //   BLOOMING_POOL_ADDRESS.transfer(_blooming);\n\t\t\t //   INFRASTRUCTURE_POOL_ADDRESS.transfer(_infrastructure);\n\t    }\n\n    function get_token_data(uint256 _tokenId) external view returns(string _health,string _height, string _blooming,uint256 _price, bool _buyable ){\n    _health =  TokenId[_tokenId].health;\n    _height = TokenId[_tokenId].height;\n    _blooming = TokenId[_tokenId].blooming;\n    _price = TokenIdtoprice[_tokenId];\n        if (tokenApprovals[_tokenId] != address(0)){\n            _buyable = true;\n        }\n    }\n\n    function get_token_data_buyable(uint256 _tokenId) external view returns(bool _buyable ){\n    if (tokenApprovals[_tokenId] != address(0)){\n        _buyable = true;\n        }\n    }\n\n    function get_all_sellable_token() external view returns(bytes1[101] list_of_available){\n    uint i;\n    for(i=0;i<101;i++) {\n          if (tokenApprovals[i] != address(0)){\n            list_of_available[i] = 0x01;\n          }else{\n            list_of_available[i] = 0x00;\n          }\n        }\n    }\n\n}\n",
  "sourcePath": "/Users/mfahampshire/terra0/source/ERC721/contracts/buyable.sol",
  "compiler": {
    "name": "solc",
    "version": "0.4.23+commit.124ca40d.Emscripten.clang"
  },
  "schemaVersion": "2.0.0",
  "updatedAt": "2018-05-15T18:09:28.768Z"
}