{
  "contractName": "infrastructurePool",
  "abi": [
    {
      "constant": true,
      "inputs": [
        {
          "name": "entity",
          "type": "address"
        }
      ],
      "name": "getRole",
      "outputs": [
        {
          "name": "",
          "type": "uint8"
        }
      ],
      "payable": false,
      "stateMutability": "view",
      "type": "function"
    },
    {
      "constant": false,
      "inputs": [
        {
          "name": "rolevalue",
          "type": "uint8"
        },
        {
          "name": "entity",
          "type": "address"
        }
      ],
      "name": "setRole",
      "outputs": [],
      "payable": false,
      "stateMutability": "nonpayable",
      "type": "function"
    },
    {
      "inputs": [],
      "payable": false,
      "stateMutability": "nonpayable",
      "type": "constructor"
    },
    {
      "payable": true,
      "stateMutability": "payable",
      "type": "fallback"
    },
    {
      "constant": false,
      "inputs": [
        {
          "name": "amount",
          "type": "uint256"
        }
      ],
      "name": "withdrawFunds",
      "outputs": [],
      "payable": false,
      "stateMutability": "nonpayable",
      "type": "function"
    }
  ],
  "bytecode": "0x608060405234801561001057600080fd5b5060028081111561001d57fe5b6000803373ffffffffffffffffffffffffffffffffffffffff1673ffffffffffffffffffffffffffffffffffffffff16815260200190815260200160002060006101000a81548160ff0219169083600281111561007657fe5b02179055506102f18061008a6000396000f300608060405260043610610057576000357c0100000000000000000000000000000000000000000000000000000000900463ffffffff168063155dd5ee146100595780634427673314610086578063f2e12a39146100eb575b005b34801561006557600080fd5b506100846004803603810190808035906020019092919050505061013b565b005b34801561009257600080fd5b506100c7600480360381019080803573ffffffffffffffffffffffffffffffffffffffff1690602001909291905050506101d5565b604051808260028111156100d757fe5b60ff16815260200191505060405180910390f35b3480156100f757600080fd5b50610139600480360381019080803560ff169060200190929190803573ffffffffffffffffffffffffffffffffffffffff16906020019092919050505061022a565b005b60028060ff1661014a336101d5565b600281111561015557fe5b60ff1614151561016457600080fd5b3073ffffffffffffffffffffffffffffffffffffffff1631821115151561018a57600080fd5b3373ffffffffffffffffffffffffffffffffffffffff166108fc839081150290604051600060405180830381858888f193505050501580156101d0573d6000803e3d6000fd5b505050565b60008060008373ffffffffffffffffffffffffffffffffffffffff1673ffffffffffffffffffffffffffffffffffffffff16815260200190815260200160002060009054906101000a900460ff169050919050565b60028060ff16610239336101d5565b600281111561024457fe5b60ff1614151561025357600080fd5b8260ff16600281111561026257fe5b6000808473ffffffffffffffffffffffffffffffffffffffff1673ffffffffffffffffffffffffffffffffffffffff16815260200190815260200160002060006101000a81548160ff021916908360028111156102bb57fe5b02179055505050505600a165627a7a72305820bc085ee4704d7d87ebedf465b656c5da55ea76f8b5a478e0021c5b90fe5957d20029",
  "source": "pragma solidity ^0.4.23;\n\nimport './SafeMath.sol';\nimport \"./acl.sol\";\n\n// infrastructure pool for terra0 flowertokens test\n\ncontract infrastructurePool is acl {\n\n\tusing SafeMath for uint256;\n\n\tconstructor() public {}\n\n\tfunction() payable {}\n\n\tfunction withdrawFunds(uint amount) external check(2) {\n\t\trequire(amount <= this.balance);\n\t\tmsg.sender.transfer(amount);\n\t}\n\n}\n",
  "sourcePath": "/Users/mfahampshire/terra0/source/ERC721/contracts/infrastructurePool.sol",
  "compiler": {
    "name": "solc",
    "version": "0.4.23+commit.124ca40d.Emscripten.clang"
  },
  "schemaVersion": "2.0.0",
  "updatedAt": "2018-06-06T15:02:16.436Z"
}