{
  "contractName": "infrastructurePool",
  "abi": [
    {
      "constant": true,
      "inputs": [
        {
          "name": "entity",
          "type": "address"
        }
      ],
      "name": "getRole",
      "outputs": [
        {
          "name": "",
          "type": "uint8"
        }
      ],
      "payable": false,
      "stateMutability": "view",
      "type": "function"
    },
    {
      "constant": false,
      "inputs": [
        {
          "name": "rolevalue",
          "type": "uint8"
        },
        {
          "name": "entity",
          "type": "address"
        }
      ],
      "name": "setRole",
      "outputs": [],
      "payable": false,
      "stateMutability": "nonpayable",
      "type": "function"
    },
    {
      "inputs": [],
      "payable": false,
      "stateMutability": "nonpayable",
      "type": "constructor"
    },
    {
      "payable": true,
      "stateMutability": "payable",
      "type": "fallback"
    },
    {
      "constant": false,
      "inputs": [],
      "name": "withdrawFunds",
      "outputs": [],
      "payable": false,
      "stateMutability": "nonpayable",
      "type": "function"
    }
  ],
  "bytecode": "0x608060405234801561001057600080fd5b5060028081111561001d57fe5b6000803373ffffffffffffffffffffffffffffffffffffffff1673ffffffffffffffffffffffffffffffffffffffff16815260200190815260200160002060006101000a81548160ff0219169083600281111561007657fe5b021790555061026d8061008a6000396000f300608060405260043610610057576000357c0100000000000000000000000000000000000000000000000000000000900463ffffffff16806324600fc3146100595780634427673314610070578063f2e12a39146100d5575b005b34801561006557600080fd5b5061006e610125565b005b34801561007c57600080fd5b506100b1600480360381019080803573ffffffffffffffffffffffffffffffffffffffff169060200190929190505050610151565b604051808260028111156100c157fe5b60ff16815260200191505060405180910390f35b3480156100e157600080fd5b50610123600480360381019080803560ff169060200190929190803573ffffffffffffffffffffffffffffffffffffffff1690602001909291905050506101a6565b005b60028060ff1661013433610151565b600281111561013f57fe5b60ff1614151561014e57600080fd5b50565b60008060008373ffffffffffffffffffffffffffffffffffffffff1673ffffffffffffffffffffffffffffffffffffffff16815260200190815260200160002060009054906101000a900460ff169050919050565b60028060ff166101b533610151565b60028111156101c057fe5b60ff161415156101cf57600080fd5b8260ff1660028111156101de57fe5b6000808473ffffffffffffffffffffffffffffffffffffffff1673ffffffffffffffffffffffffffffffffffffffff16815260200190815260200160002060006101000a81548160ff0219169083600281111561023757fe5b02179055505050505600a165627a7a723058203551678761cbc2f57b7bcaab18414084b8deafe6ee37e8a1b7e3fcb15cece8e60029",
  "source": "pragma solidity ^0.4.23;\n\nimport './SafeMath.sol';\nimport \"./acl.sol\";\n\n// infrastructure pool for terra0 flowertokens test\n\ncontract infrastructurePool is acl {\n\n\tusing SafeMath for uint256;\n\n\tconstructor() public {}\n\n\tfunction() payable {}\n\n\tfunction withdrawFunds() external check(2) {\n\t\t// fund withdrawal for admin account\n\n\t}\n}\n",
  "sourcePath": "/Users/mfahampshire/terra0/source/ERC721/contracts/infrastructurePool.sol",
  "compiler": {
    "name": "solc",
    "version": "0.4.23+commit.124ca40d.Emscripten.clang"
  },
  "schemaVersion": "2.0.0",
  "updatedAt": "2018-06-01T22:58:52.081Z"
}