{
  "contractName": "Migrations",
  "abi": [
    {
      "constant": true,
      "inputs": [],
      "name": "last_completed_migration",
      "outputs": [
        {
          "name": "",
          "type": "uint256"
        }
      ],
      "payable": false,
      "stateMutability": "view",
      "type": "function"
    },
    {
      "constant": true,
      "inputs": [],
      "name": "owner",
      "outputs": [
        {
          "name": "",
          "type": "address"
        }
      ],
      "payable": false,
      "stateMutability": "view",
      "type": "function"
    },
    {
      "inputs": [],
      "payable": false,
      "stateMutability": "nonpayable",
      "type": "constructor"
    },
    {
      "constant": false,
      "inputs": [
        {
          "name": "completed",
          "type": "uint256"
        }
      ],
      "name": "setCompleted",
      "outputs": [],
      "payable": false,
      "stateMutability": "nonpayable",
      "type": "function"
    },
    {
      "constant": false,
      "inputs": [
        {
          "name": "new_address",
          "type": "address"
        }
      ],
      "name": "upgrade",
      "outputs": [],
      "payable": false,
      "stateMutability": "nonpayable",
      "type": "function"
    }
  ],
  "bytecode": "0x608060405234801561001057600080fd5b50336000806101000a81548173ffffffffffffffffffffffffffffffffffffffff021916908373ffffffffffffffffffffffffffffffffffffffff1602179055506102f8806100606000396000f300608060405260043610610062576000357c0100000000000000000000000000000000000000000000000000000000900463ffffffff1680630900f01014610067578063445df0ac146100aa5780638da5cb5b146100d5578063fdacd5761461012c575b600080fd5b34801561007357600080fd5b506100a8600480360381019080803573ffffffffffffffffffffffffffffffffffffffff169060200190929190505050610159565b005b3480156100b657600080fd5b506100bf610241565b6040518082815260200191505060405180910390f35b3480156100e157600080fd5b506100ea610247565b604051808273ffffffffffffffffffffffffffffffffffffffff1673ffffffffffffffffffffffffffffffffffffffff16815260200191505060405180910390f35b34801561013857600080fd5b506101576004803603810190808035906020019092919050505061026c565b005b60008060009054906101000a900473ffffffffffffffffffffffffffffffffffffffff1673ffffffffffffffffffffffffffffffffffffffff163373ffffffffffffffffffffffffffffffffffffffff16141561023d578190508073ffffffffffffffffffffffffffffffffffffffff1663fdacd5766001546040518263ffffffff167c010000000000000000000000000000000000000000000000000000000002815260040180828152602001915050600060405180830381600087803b15801561022457600080fd5b505af1158015610238573d6000803e3d6000fd5b505050505b5050565b60015481565b6000809054906101000a900473ffffffffffffffffffffffffffffffffffffffff1681565b6000809054906101000a900473ffffffffffffffffffffffffffffffffffffffff1673ffffffffffffffffffffffffffffffffffffffff163373ffffffffffffffffffffffffffffffffffffffff1614156102c957806001819055505b505600a165627a7a723058202238b415aed7b62a6d62f26dfc929d51310b4e0e1ad2e1fdc4fead7805d74e930029",
  "source": "pragma solidity ^0.4.23;\n\ncontract Migrations {\n    address public owner;\n    uint public last_completed_migration;\n\n    constructor() public {\n        owner = msg.sender;\n    }\n\n    modifier restricted() {\n        if (msg.sender == owner) _;\n    }\n\n    function setCompleted(uint completed) public restricted {\n        last_completed_migration = completed;\n    }\n\n    function upgrade(address new_address) public restricted {\n        Migrations upgraded = Migrations(new_address);\n        upgraded.setCompleted(last_completed_migration);\n    }\n}\n",
  "sourcePath": "/home/mx/Dev/null/source/ERC721/contracts/Migrations.sol",
  "compiler": {
    "name": "solc",
    "version": "0.4.24+commit.e67f0147.Emscripten.clang"
  },
  "schemaVersion": "2.0.1",
  "updatedAt": "2018-07-13T20:18:15.501Z"
}