{
  "contractName": "SplitPayment",
  "abi": [
    {
      "constant": true,
      "inputs": [],
      "name": "totalShares",
      "outputs": [
        {
          "name": "",
          "type": "uint256"
        }
      ],
      "payable": false,
      "stateMutability": "view",
      "type": "function"
    },
    {
      "constant": true,
      "inputs": [
        {
          "name": "",
          "type": "uint256"
        }
      ],
      "name": "payees",
      "outputs": [
        {
          "name": "",
          "type": "address"
        }
      ],
      "payable": false,
      "stateMutability": "view",
      "type": "function"
    },
    {
      "constant": true,
      "inputs": [
        {
          "name": "",
          "type": "address"
        }
      ],
      "name": "released",
      "outputs": [
        {
          "name": "",
          "type": "uint256"
        }
      ],
      "payable": false,
      "stateMutability": "view",
      "type": "function"
    },
    {
      "constant": true,
      "inputs": [
        {
          "name": "",
          "type": "address"
        }
      ],
      "name": "shares",
      "outputs": [
        {
          "name": "",
          "type": "uint256"
        }
      ],
      "payable": false,
      "stateMutability": "view",
      "type": "function"
    },
    {
      "constant": true,
      "inputs": [],
      "name": "totalReleased",
      "outputs": [
        {
          "name": "",
          "type": "uint256"
        }
      ],
      "payable": false,
      "stateMutability": "view",
      "type": "function"
    },
    {
      "inputs": [
        {
          "name": "_payees",
          "type": "address[]"
        },
        {
          "name": "_shares",
          "type": "uint256[]"
        }
      ],
      "payable": true,
      "stateMutability": "payable",
      "type": "constructor"
    },
    {
      "payable": true,
      "stateMutability": "payable",
      "type": "fallback"
    }
  ],
  "bytecode": "0x60806040526000805560006001556040516104f53803806104f5833981018060405281019080805182019291906020018051820192919050505060008151835114151561004b57600080fd5b600090505b82518110156100ad576100a0838281518110151561006a57fe5b90602001906020020151838381518110151561008257fe5b906020019060200201516100b5640100000000026401000000009004565b8080600101915050610050565b505050610242565b600073ffffffffffffffffffffffffffffffffffffffff168273ffffffffffffffffffffffffffffffffffffffff16141515156100f157600080fd5b60008111151561010057600080fd5b6000600260008473ffffffffffffffffffffffffffffffffffffffff1673ffffffffffffffffffffffffffffffffffffffff1681526020019081526020016000205414151561014e57600080fd5b60048290806001815401808255809150509060018203906000526020600020016000909192909190916101000a81548173ffffffffffffffffffffffffffffffffffffffff021916908373ffffffffffffffffffffffffffffffffffffffff1602179055505080600260008473ffffffffffffffffffffffffffffffffffffffff1673ffffffffffffffffffffffffffffffffffffffff1681526020019081526020016000208190555061021a816000546102246401000000000261025a179091906401000000009004565b6000819055505050565b600080828401905083811015151561023857fe5b8091505092915050565b6102a4806102516000396000f30060806040526004361061006d576000357c0100000000000000000000000000000000000000000000000000000000900463ffffffff1680633a98ef391461006f57806363037b0c1461009a5780639852595c14610107578063ce7c2ac21461015e578063e33b7de3146101b5575b005b34801561007b57600080fd5b506100846101e0565b6040518082815260200191505060405180910390f35b3480156100a657600080fd5b506100c5600480360381019080803590602001909291905050506101e6565b604051808273ffffffffffffffffffffffffffffffffffffffff1673ffffffffffffffffffffffffffffffffffffffff16815260200191505060405180910390f35b34801561011357600080fd5b50610148600480360381019080803573ffffffffffffffffffffffffffffffffffffffff169060200190929190505050610224565b6040518082815260200191505060405180910390f35b34801561016a57600080fd5b5061019f600480360381019080803573ffffffffffffffffffffffffffffffffffffffff16906020019092919050505061023c565b6040518082815260200191505060405180910390f35b3480156101c157600080fd5b506101ca610254565b6040518082815260200191505060405180910390f35b60005481565b6004818154811015156101f557fe5b906000526020600020016000915054906101000a900473ffffffffffffffffffffffffffffffffffffffff1681565b60036020528060005260406000206000915090505481565b60026020528060005260406000206000915090505481565b60015481565b600080828401905083811015151561026e57fe5b80915050929150505600a165627a7a72305820b7ca734f0a71fd3eaf06663cae30089a76b660661ab41870d3ba97e0b4e4c8e50029",
  "source": "pragma solidity ^0.4.23;\n\nimport \"./SafeMath.sol\";\n\n/**\n * @title SplitPayment\n * @dev Base contract that supports multiple payees claiming funds sent to this contract\n * according to the proportion they own.\n */\n\ncontract SplitPayment {\n  using SafeMath for uint256;\n\n  uint256 public totalShares = 0;\n  uint256 public totalReleased = 0;\n\n  mapping(address => uint256) public shares;\n  mapping(address => uint256) public released;\n  address[] public payees;\n\n  /**\n   * @dev Constructor\n   */\n  constructor(address[] _payees, uint256[] _shares) public payable {\n    require(_payees.length == _shares.length);\n\n    for (uint256 i = 0; i < _payees.length; i++) {\n      addPayee(_payees[i], _shares[i]);\n    }\n  }\n\n  /**\n   * @dev payable fallback\n   */\n  function () public payable {}\n\n  /**\n   * @dev removed to stop individual's claiming: claiming is automated in blooming_pool.sol\n\t * using this code recycled in payoutx.\n   */\n  /* function claim() public {\n    address payee = msg.sender;\n\n    require(shares[payee] > 0);\n\n    uint256 totalReceived = address(this).balance.add(totalReleased);\n    uint256 payment = totalReceived.mul(shares[payee]).div(totalShares).sub(released[payee]);\n\n    require(payment != 0);\n    require(address(this).balance >= payment);\n\n    released[payee] = released[payee].add(payment);\n    totalReleased = totalReleased.add(payment);\n\n    payee.transfer(payment);\n  } */\n\n  /**\n   * @dev Add a new payee to the contract.\n   * @param _payee The address of the payee to add.\n   * @param _shares The number of shares owned by the payee.\n   */\n  function addPayee(address _payee, uint256 _shares) internal {\n    require(_payee != address(0));\n    require(_shares > 0);\n    require(shares[_payee] == 0);\n\n    payees.push(_payee);\n    shares[_payee] = _shares;\n    totalShares = totalShares.add(_shares);\n  }\n}\n",
  "sourcePath": "/Users/mfahampshire/terra0/source/ERC721/contracts/SplitPayment.sol",
  "compiler": {
    "name": "solc",
    "version": "0.4.23+commit.124ca40d.Emscripten.clang"
  },
  "schemaVersion": "2.0.0",
  "updatedAt": "2018-05-13T10:21:33.359Z"
}