{
  "contractName": "testreg",
  "abi": [
    {
      "constant": true,
      "inputs": [
        {
          "name": "entity",
          "type": "address"
        }
      ],
      "name": "getRole",
      "outputs": [
        {
          "name": "",
          "type": "uint8"
        }
      ],
      "payable": false,
      "stateMutability": "view",
      "type": "function"
    },
    {
      "constant": true,
      "inputs": [],
      "name": "numTokensTotal",
      "outputs": [
        {
          "name": "",
          "type": "uint256"
        }
      ],
      "payable": false,
      "stateMutability": "view",
      "type": "function"
    },
    {
      "constant": false,
      "inputs": [
        {
          "name": "rolevalue",
          "type": "uint8"
        },
        {
          "name": "entity",
          "type": "address"
        }
      ],
      "name": "setRole",
      "outputs": [],
      "payable": false,
      "stateMutability": "nonpayable",
      "type": "function"
    },
    {
      "anonymous": false,
      "inputs": [
        {
          "indexed": false,
          "name": "from",
          "type": "address"
        },
        {
          "indexed": false,
          "name": "to",
          "type": "address"
        },
        {
          "indexed": false,
          "name": "tokenId",
          "type": "uint256"
        }
      ],
      "name": "Transfer",
      "type": "event"
    },
    {
      "anonymous": false,
      "inputs": [
        {
          "indexed": false,
          "name": "owner",
          "type": "address"
        },
        {
          "indexed": false,
          "name": "approved",
          "type": "address"
        },
        {
          "indexed": false,
          "name": "tokenId",
          "type": "uint256"
        }
      ],
      "name": "Approval",
      "type": "event"
    },
    {
      "anonymous": false,
      "inputs": [
        {
          "indexed": true,
          "name": "_owner",
          "type": "address"
        },
        {
          "indexed": true,
          "name": "_operator",
          "type": "address"
        },
        {
          "indexed": false,
          "name": "_approved",
          "type": "bool"
        }
      ],
      "name": "ApprovalForAll",
      "type": "event"
    },
    {
      "constant": false,
      "inputs": [
        {
          "name": "entityAddress",
          "type": "address"
        },
        {
          "name": "entityData",
          "type": "string"
        },
        {
          "name": "UniqueID",
          "type": "uint256"
        }
      ],
      "name": "_writedata",
      "outputs": [],
      "payable": false,
      "stateMutability": "nonpayable",
      "type": "function"
    },
    {
      "constant": false,
      "inputs": [
        {
          "name": "entityAddress",
          "type": "address"
        },
        {
          "name": "UniqueID",
          "type": "uint256"
        }
      ],
      "name": "_writeownership",
      "outputs": [],
      "payable": false,
      "stateMutability": "nonpayable",
      "type": "function"
    },
    {
      "constant": false,
      "inputs": [
        {
          "name": "Owner",
          "type": "address"
        },
        {
          "name": "uniqueID",
          "type": "uint256"
        }
      ],
      "name": "_removetoken",
      "outputs": [
        {
          "name": "list",
          "type": "uint256"
        }
      ],
      "payable": false,
      "stateMutability": "nonpayable",
      "type": "function"
    },
    {
      "constant": true,
      "inputs": [
        {
          "name": "_owner",
          "type": "address"
        }
      ],
      "name": "balanceOf",
      "outputs": [
        {
          "name": "balance",
          "type": "uint256"
        }
      ],
      "payable": false,
      "stateMutability": "view",
      "type": "function"
    },
    {
      "constant": true,
      "inputs": [
        {
          "name": "_tokenId",
          "type": "uint256"
        }
      ],
      "name": "ownerOf",
      "outputs": [
        {
          "name": "",
          "type": "address"
        }
      ],
      "payable": false,
      "stateMutability": "view",
      "type": "function"
    },
    {
      "constant": false,
      "inputs": [
        {
          "name": "_from",
          "type": "address"
        },
        {
          "name": "_to",
          "type": "address"
        },
        {
          "name": "_tokenId",
          "type": "uint256"
        }
      ],
      "name": "transferFrom",
      "outputs": [],
      "payable": true,
      "stateMutability": "payable",
      "type": "function"
    },
    {
      "constant": false,
      "inputs": [
        {
          "name": "_approved",
          "type": "address"
        },
        {
          "name": "_tokenId",
          "type": "uint256"
        }
      ],
      "name": "approve",
      "outputs": [],
      "payable": true,
      "stateMutability": "payable",
      "type": "function"
    },
    {
      "constant": false,
      "inputs": [
        {
          "name": "_to",
          "type": "address"
        },
        {
          "name": "_approved",
          "type": "bool"
        }
      ],
      "name": "setApprovalForAll",
      "outputs": [],
      "payable": false,
      "stateMutability": "nonpayable",
      "type": "function"
    },
    {
      "constant": true,
      "inputs": [
        {
          "name": "_owner",
          "type": "address"
        },
        {
          "name": "_operator",
          "type": "address"
        }
      ],
      "name": "isApprovedForAll",
      "outputs": [
        {
          "name": "",
          "type": "bool"
        }
      ],
      "payable": false,
      "stateMutability": "view",
      "type": "function"
    },
    {
      "constant": true,
      "inputs": [
        {
          "name": "_tokenId",
          "type": "uint256"
        }
      ],
      "name": "getApproved",
      "outputs": [
        {
          "name": "",
          "type": "address"
        }
      ],
      "payable": false,
      "stateMutability": "view",
      "type": "function"
    },
    {
      "constant": true,
      "inputs": [],
      "name": "name",
      "outputs": [
        {
          "name": "_name",
          "type": "string"
        }
      ],
      "payable": false,
      "stateMutability": "pure",
      "type": "function"
    },
    {
      "constant": true,
      "inputs": [],
      "name": "symbol",
      "outputs": [
        {
          "name": "_symbol",
          "type": "string"
        }
      ],
      "payable": false,
      "stateMutability": "pure",
      "type": "function"
    },
    {
      "constant": true,
      "inputs": [
        {
          "name": "_tokenId",
          "type": "uint256"
        }
      ],
      "name": "tokenURI",
      "outputs": [
        {
          "name": "",
          "type": "string"
        }
      ],
      "payable": false,
      "stateMutability": "view",
      "type": "function"
    },
    {
      "constant": false,
      "inputs": [
        {
          "name": "entityAddress",
          "type": "address"
        },
        {
          "name": "entityData",
          "type": "string"
        }
      ],
      "name": "Mint",
      "outputs": [
        {
          "name": "_UniqueID",
          "type": "uint256"
        }
      ],
      "payable": false,
      "stateMutability": "nonpayable",
      "type": "function"
    }
  ],
  "bytecode": "0x608060405260028081111561001057fe5b6000803373ffffffffffffffffffffffffffffffffffffffff1673ffffffffffffffffffffffffffffffffffffffff16815260200190815260200160002060006101000a81548160ff0219169083600281111561006957fe5b021790555061191e8061007d6000396000f3006080604052600436106100f1576000357c0100000000000000000000000000000000000000000000000000000000900463ffffffff16806306fdde03146100f6578063081812fc14610186578063095ea7b3146101f357806323b872dd14610233578063263f842d1461029357806344276733146102e05780634c2f6dd3146103455780636352211e146103b45780636d2d7a0d1461042157806370a08231146104b457806395d89b411461050b578063a22cb4651461059b578063af129dc2146105ea578063c87b56dd14610615578063cb126ab6146106bb578063e985e9c51461071c578063f2e12a3914610797575b600080fd5b34801561010257600080fd5b5061010b6107e7565b6040518080602001828103825283818151815260200191508051906020019080838360005b8381101561014b578082015181840152602081019050610130565b50505050905090810190601f1680156101785780820380516001836020036101000a031916815260200191505b509250505060405180910390f35b34801561019257600080fd5b506101b160048036038101908080359060200190929190505050610824565b604051808273ffffffffffffffffffffffffffffffffffffffff1673ffffffffffffffffffffffffffffffffffffffff16815260200191505060405180910390f35b610231600480360381019080803573ffffffffffffffffffffffffffffffffffffffff16906020019092919080359060200190929190505050610897565b005b610291600480360381019080803573ffffffffffffffffffffffffffffffffffffffff169060200190929190803573ffffffffffffffffffffffffffffffffffffffff16906020019092919080359060200190929190505050610b29565b005b34801561029f57600080fd5b506102de600480360381019080803573ffffffffffffffffffffffffffffffffffffffff16906020019092919080359060200190929190505050610e79565b005b3480156102ec57600080fd5b50610321600480360381019080803573ffffffffffffffffffffffffffffffffffffffff169060200190929190505050610f95565b6040518082600281111561033157fe5b60ff16815260200191505060405180910390f35b34801561035157600080fd5b5061039e600480360381019080803573ffffffffffffffffffffffffffffffffffffffff169060200190929190803590602001908201803590602001919091929391929390505050610fea565b6040518082815260200191505060405180910390f35b3480156103c057600080fd5b506103df6004803603810190808035906020019092919050505061109b565b604051808273ffffffffffffffffffffffffffffffffffffffff1673ffffffffffffffffffffffffffffffffffffffff16815260200191505060405180910390f35b34801561042d57600080fd5b506104b2600480360381019080803573ffffffffffffffffffffffffffffffffffffffff169060200190929190803590602001908201803590602001908080601f0160208091040260200160405190810160405280939291908181526020018383808284378201915050505050509192919290803590602001909291905050506110d8565b005b3480156104c057600080fd5b506104f5600480360381019080803573ffffffffffffffffffffffffffffffffffffffff169060200190929190505050611189565b6040518082815260200191505060405180910390f35b34801561051757600080fd5b506105206111d5565b6040518080602001828103825283818151815260200191508051906020019080838360005b83811015610560578082015181840152602081019050610545565b50505050905090810190601f16801561058d5780820380516001836020036101000a031916815260200191505b509250505060405180910390f35b3480156105a757600080fd5b506105e8600480360381019080803573ffffffffffffffffffffffffffffffffffffffff169060200190929190803515159060200190929190505050611212565b005b3480156105f657600080fd5b506105ff6112e5565b6040518082815260200191505060405180910390f35b34801561062157600080fd5b50610640600480360381019080803590602001909291905050506112eb565b6040518080602001828103825283818151815260200191508051906020019080838360005b83811015610680578082015181840152602081019050610665565b50505050905090810190601f1680156106ad5780820380516001836020036101000a031916815260200191505b509250505060405180910390f35b3480156106c757600080fd5b50610706600480360381019080803573ffffffffffffffffffffffffffffffffffffffff169060200190929190803590602001909291905050506113a3565b6040518082815260200191505060405180910390f35b34801561072857600080fd5b5061077d600480360381019080803573ffffffffffffffffffffffffffffffffffffffff169060200190929190803573ffffffffffffffffffffffffffffffffffffffff1690602001909291905050506115c8565b604051808215151515815260200191505060405180910390f35b3480156107a357600080fd5b506107e5600480360381019080803560ff169060200190929190803573ffffffffffffffffffffffffffffffffffffffff16906020019092919050505061165c565b005b60606040805190810160405280601181526020017f666c6f776572746f6b656e735f74657374000000000000000000000000000000815250905090565b6000600115156002600084815260200190815260200160002060010160009054906101000a900460ff16151514151561085c57600080fd5b6006600083815260200190815260200160002060009054906101000a900473ffffffffffffffffffffffffffffffffffffffff169050919050565b600115156002600083815260200190815260200160002060010160009054906101000a900460ff1615151415156108cd57600080fd5b6004600082815260200190815260200160002060009054906101000a900473ffffffffffffffffffffffffffffffffffffffff1673ffffffffffffffffffffffffffffffffffffffff163373ffffffffffffffffffffffffffffffffffffffff1614806109fa575060011515600760006004600085815260200190815260200160002060009054906101000a900473ffffffffffffffffffffffffffffffffffffffff1673ffffffffffffffffffffffffffffffffffffffff1673ffffffffffffffffffffffffffffffffffffffff16815260200190815260200160002060003373ffffffffffffffffffffffffffffffffffffffff1673ffffffffffffffffffffffffffffffffffffffff16815260200190815260200160002060009054906101000a900460ff161515145b1515610a0557600080fd5b600073ffffffffffffffffffffffffffffffffffffffff16610a26826116f7565b73ffffffffffffffffffffffffffffffffffffffff16141580610a765750600073ffffffffffffffffffffffffffffffffffffffff168273ffffffffffffffffffffffffffffffffffffffff1614155b15610b2557610a858282611734565b7f8c5be1e5ebec7d5bd14f71427d1e84f3dd0314c0f7b2291e5b200ac8c7c3b925338383604051808473ffffffffffffffffffffffffffffffffffffffff1673ffffffffffffffffffffffffffffffffffffffff1681526020018373ffffffffffffffffffffffffffffffffffffffff1673ffffffffffffffffffffffffffffffffffffffff168152602001828152602001935050505060405180910390a15b5050565b600115156002600083815260200190815260200160002060010160009054906101000a900460ff161515141515610b5f57600080fd5b3373ffffffffffffffffffffffffffffffffffffffff166006600083815260200190815260200160002060009054906101000a900473ffffffffffffffffffffffffffffffffffffffff1673ffffffffffffffffffffffffffffffffffffffff161480610c8c575060011515600760006004600085815260200190815260200160002060009054906101000a900473ffffffffffffffffffffffffffffffffffffffff1673ffffffffffffffffffffffffffffffffffffffff1673ffffffffffffffffffffffffffffffffffffffff16815260200190815260200160002060003373ffffffffffffffffffffffffffffffffffffffff1673ffffffffffffffffffffffffffffffffffffffff16815260200190815260200160002060009054906101000a900460ff161515145b1515610c9757600080fd5b8273ffffffffffffffffffffffffffffffffffffffff166004600083815260200190815260200160002060009054906101000a900473ffffffffffffffffffffffffffffffffffffffff1673ffffffffffffffffffffffffffffffffffffffff16141515610d0457600080fd5b600073ffffffffffffffffffffffffffffffffffffffff168273ffffffffffffffffffffffffffffffffffffffff1614151515610d4057600080fd5b610d4b83838361178a565b7f8c5be1e5ebec7d5bd14f71427d1e84f3dd0314c0f7b2291e5b200ac8c7c3b92583600083604051808473ffffffffffffffffffffffffffffffffffffffff1673ffffffffffffffffffffffffffffffffffffffff1681526020018373ffffffffffffffffffffffffffffffffffffffff168152602001828152602001935050505060405180910390a17fddf252ad1be2c89b69c2b068fc378daa952ba7f163c4a11628f55a4df523b3ef838383604051808473ffffffffffffffffffffffffffffffffffffffff1673ffffffffffffffffffffffffffffffffffffffff1681526020018373ffffffffffffffffffffffffffffffffffffffff1673ffffffffffffffffffffffffffffffffffffffff168152602001828152602001935050505060405180910390a1505050565b600360008373ffffffffffffffffffffffffffffffffffffffff1673ffffffffffffffffffffffffffffffffffffffff1681526020019081526020016000208190806001815401808255809150509060018203906000526020600020016000909192909190915055506001600360008473ffffffffffffffffffffffffffffffffffffffff1673ffffffffffffffffffffffffffffffffffffffff16815260200190815260200160002080549050036005600083815260200190815260200160002081905550816004600083815260200190815260200160002060006101000a81548173ffffffffffffffffffffffffffffffffffffffff021916908373ffffffffffffffffffffffffffffffffffffffff1602179055505050565b60008060008373ffffffffffffffffffffffffffffffffffffffff1673ffffffffffffffffffffffffffffffffffffffff16815260200190815260200160002060009054906101000a900460ff169050919050565b60008060028060ff16610ffc33610f95565b600281111561100757fe5b60ff1614151561101657600080fd5b61102b600180546117ad90919063ffffffff16565b91506110378683610e79565b6110748686868080601f016020809104026020016040519081016040528093929190818152602001838380828437820191505050505050846110d8565b611089600180546117ad90919063ffffffff16565b60018190555081925050509392505050565b60006004600083815260200190815260200160002060009054906101000a900473ffffffffffffffffffffffffffffffffffffffff169050919050565b81600260008381526020019081526020016000206000019080519060200190611102929190611821565b5060016002600083815260200190815260200160002060010160006101000a81548160ff021916908315150217905550826004600083815260200190815260200160002060006101000a81548173ffffffffffffffffffffffffffffffffffffffff021916908373ffffffffffffffffffffffffffffffffffffffff160217905550505050565b6000600360008373ffffffffffffffffffffffffffffffffffffffff1673ffffffffffffffffffffffffffffffffffffffff168152602001908152602001600020805490509050919050565b60606040805190810160405280600381526020017f5454540000000000000000000000000000000000000000000000000000000000815250905090565b3373ffffffffffffffffffffffffffffffffffffffff168273ffffffffffffffffffffffffffffffffffffffff161415151561124d57600080fd5b80600760003373ffffffffffffffffffffffffffffffffffffffff1673ffffffffffffffffffffffffffffffffffffffff16815260200190815260200160002060008473ffffffffffffffffffffffffffffffffffffffff1673ffffffffffffffffffffffffffffffffffffffff16815260200190815260200160002060006101000a81548160ff0219169083151502179055505050565b60015481565b6060600260008381526020019081526020016000206000018054600181600116156101000203166002900480601f0160208091040260200160405190810160405280929190818152602001828054600181600116156101000203166002900480156113975780601f1061136c57610100808354040283529160200191611397565b820191906000526020600020905b81548152906001019060200180831161137a57829003601f168201915b50505050509050919050565b60008060008473ffffffffffffffffffffffffffffffffffffffff166004600086815260200190815260200160002060009054906101000a900473ffffffffffffffffffffffffffffffffffffffff1673ffffffffffffffffffffffffffffffffffffffff1614151561141557600080fd5b60056000858152602001908152602001600020549150600360008673ffffffffffffffffffffffffffffffffffffffff1673ffffffffffffffffffffffffffffffffffffffff1681526020019081526020016000206001600360008873ffffffffffffffffffffffffffffffffffffffff1673ffffffffffffffffffffffffffffffffffffffff16815260200190815260200160002080549050038154811015156114bc57fe5b9060005260206000200154905080600360008773ffffffffffffffffffffffffffffffffffffffff1673ffffffffffffffffffffffffffffffffffffffff1681526020019081526020016000208381548110151561151657fe5b906000526020600020018190555060009050600360008673ffffffffffffffffffffffffffffffffffffffff1673ffffffffffffffffffffffffffffffffffffffff16815260200190815260200160002080548091906001900361157a91906118a1565b50600360008673ffffffffffffffffffffffffffffffffffffffff1673ffffffffffffffffffffffffffffffffffffffff168152602001908152602001600020805490509250505092915050565b6000600760008473ffffffffffffffffffffffffffffffffffffffff1673ffffffffffffffffffffffffffffffffffffffff16815260200190815260200160002060008373ffffffffffffffffffffffffffffffffffffffff1673ffffffffffffffffffffffffffffffffffffffff16815260200190815260200160002060009054906101000a900460ff16905092915050565b60028060ff1661166b33610f95565b600281111561167657fe5b60ff1614151561168557600080fd5b8260ff16600281111561169457fe5b6000808473ffffffffffffffffffffffffffffffffffffffff1673ffffffffffffffffffffffffffffffffffffffff16815260200190815260200160002060006101000a81548160ff021916908360028111156116ed57fe5b0217905550505050565b60006006600083815260200190815260200160002060009054906101000a900473ffffffffffffffffffffffffffffffffffffffff169050919050565b816006600083815260200190815260200160002060006101000a81548173ffffffffffffffffffffffffffffffffffffffff021916908373ffffffffffffffffffffffffffffffffffffffff1602179055505050565b61179483826113a3565b5061179e816117cb565b6117a88282610e79565b505050565b60008082840190508381101515156117c157fe5b8091505092915050565b60006006600083815260200190815260200160002060006101000a81548173ffffffffffffffffffffffffffffffffffffffff021916908373ffffffffffffffffffffffffffffffffffffffff16021790555050565b828054600181600116156101000203166002900490600052602060002090601f016020900481019282601f1061186257805160ff1916838001178555611890565b82800160010185558215611890579182015b8281111561188f578251825591602001919060010190611874565b5b50905061189d91906118cd565b5090565b8154818355818111156118c8578183600052602060002091820191016118c791906118cd565b5b505050565b6118ef91905b808211156118eb5760008160009055506001016118d3565b5090565b905600a165627a7a723058206975e7e30f0cf8bf7d4d487e92584dde4d8fe36aa0f3e525f123451fb1453b4f0029",
  "source": "pragma solidity ^0.4.23;\nimport './SafeMath.sol';\nimport './ERC721.sol';\nimport './acl.sol';\n\ncontract testreg is ERC721, ERC721Metadata, acl  {\n\n  using SafeMath for uint256;\n\n  uint public numTokensTotal;\n\n  event Transfer(address from, address to, uint256 tokenId);\n  event Approval(address owner, address approved, uint256 tokenId);\n\n  event ApprovalForAll(address indexed _owner, address indexed _operator, bool _approved);\n\n\n  struct TokenStruct {\n    string BCHTransactionid;\n    bool isEntity;\n    string health;\n    string blooming;\n    string height;\n  }\n\n  mapping (uint256 => TokenStruct) TokenId;\n\n  mapping(address => uint256[]) ListofUniqueTokenIds;\n\n  mapping (uint256 => address) TokenIdtoadress;\n\n  mapping(uint256 => uint256) internal Pointer_TokenId;\n\n  mapping(uint256 => address) internal TokenIdToApprovedAddress;\n\n  mapping (address => mapping(address => bool)) internal OwnerToOperator;\n\n\n\nfunction _writedata(address entityAddress, string entityData,uint256 UniqueID ) public{\n    TokenId[UniqueID].BCHTransactionid = entityData;\n    TokenId[UniqueID].isEntity = true;\n    TokenIdtoadress[UniqueID]=entityAddress;\n    }\n\n\nfunction _writeownership (address entityAddress,uint256 UniqueID ) public {\n    ListofUniqueTokenIds[entityAddress].push(UniqueID);\n    Pointer_TokenId[UniqueID] = ListofUniqueTokenIds[entityAddress].length-1;\n    TokenIdtoadress[UniqueID]= entityAddress;\n    }\n\nfunction _removetoken (address Owner,uint256 uniqueID)public returns (uint256 list){\n    require( TokenIdtoadress[uniqueID] == Owner); //check if token belongs to owner\n    uint256 _Pointer = Pointer_TokenId[uniqueID]; //needs require otherwise will always delete index 0\n    uint256 lastelement = ListofUniqueTokenIds[Owner][ListofUniqueTokenIds[Owner].length-1];\n    ListofUniqueTokenIds[Owner][_Pointer] = lastelement ; ///overwrite element with last element\n    delete lastelement; ///delete last element\n    ListofUniqueTokenIds[Owner].length--;\n    return ListofUniqueTokenIds[Owner].length;\n    }\n\n/// ERC721 Functions\nfunction balanceOf(address _owner) external view returns (uint256 balance){\n    return ListofUniqueTokenIds[_owner].length;\n  }\n\n function ownerOf(uint256 _tokenId) external view returns (address){\n    return TokenIdtoadress[_tokenId];\n }\n\n\n function transferFrom(address _from, address _to, uint256 _tokenId) external payable{\n    require (TokenId[_tokenId].isEntity== true);\n    require(TokenIdToApprovedAddress[_tokenId] == msg.sender || OwnerToOperator[TokenIdtoadress[_tokenId]][msg.sender]  == true ); /// || TokenIdToApprovedAddress[_tokenId] == address(this) );    /// its dangerous, probally not ERC721 conform\n    require(TokenIdtoadress[_tokenId] == _from);\n    require(_to != address(0));\n\n    transferownership(_from, _to, _tokenId);\n\n    emit Approval(_from, 0, _tokenId);\n    emit Transfer(_from, _to, _tokenId);\n    }\n\n\nfunction approve(address _approved, uint256 _tokenId) external payable{\n    require (TokenId[_tokenId].isEntity== true);   //entity exists and is tracked // OwnerToOperator[[TokenIdtoadress[_tokenId]]][msg.sender]\n    require(msg.sender == TokenIdtoadress[_tokenId] || OwnerToOperator[TokenIdtoadress[_tokenId]][msg.sender]  == true ); ////// // || msg.sender == address(this)  );  //its dangerous, probally not ERC721 conform\n\n    if (_getApproved(_tokenId) != address(0) || _approved != address(0)) {\n            _approve(_approved, _tokenId);\n            emit Approval(msg.sender, _approved, _tokenId);\n        }\n}\n\n\n\nfunction setApprovalForAll(address _to, bool _approved) external {\n    require(_to != msg.sender);\n    OwnerToOperator[msg.sender][_to] = _approved;\n}\n\n\nfunction isApprovedForAll(address _owner, address _operator) external view returns (bool){\n    return OwnerToOperator[_owner][_operator];\n}\n\n\nfunction getApproved(uint256 _tokenId) external view returns (address){\n    require (TokenId[_tokenId].isEntity== true);\n    return TokenIdToApprovedAddress[_tokenId];\n}\n\n\n/// Internal functions\n\nfunction transferownership(address Owner, address NewOwner,uint256 uniqueID)internal{\n    _removetoken(Owner,uniqueID);\n    _clearTokenApproval(uniqueID);\n    _writeownership(NewOwner,uniqueID);\n  }\n\n\nfunction _getApproved(uint256 _tokenId) internal view returns (address _approved){\n    return TokenIdToApprovedAddress[_tokenId];\n    }\n\n\nfunction _approve(address _to, uint256 _tokenId)internal{\n    TokenIdToApprovedAddress[_tokenId] = _to;\n    }\n\n\nfunction _clearTokenApproval(uint256 _tokenId)internal{\n    TokenIdToApprovedAddress[_tokenId] = address(0);\n    }\n\n///  Metadata Interface Function\n/// pls read https://solidity.readthedocs.io/en/latest/contracts.html#abstract-contracts\n\nfunction name() external pure returns (string _name){\n    return \"flowertokens_test\";\n}\n\nfunction symbol() external pure returns (string _symbol){\n    return \"TTT\";\n}\n\nfunction tokenURI(uint256 _tokenId) external view returns (string){\n    return TokenId[_tokenId].BCHTransactionid ;\n}\n\n/// ERC721TokenReceiver Needs to be implemented as well as save tranfer\n/// Mint function\n\nfunction Mint(address entityAddress, string entityData) external check(2) returns (uint256 _UniqueID) {\n    uint256 UniqueID = numTokensTotal.add(1) ;\n    _writeownership(entityAddress,UniqueID);\n    _writedata(entityAddress,entityData,UniqueID);\n    numTokensTotal= numTokensTotal.add(1);\n    return UniqueID;\n    }\n\n//// Safe Transfer Methods\n\n}\n",
  "sourcePath": "/Users/mfahampshire/terra0/source/ERC721/contracts/testreg.sol",
  "compiler": {
    "name": "solc",
    "version": "0.4.23+commit.124ca40d.Emscripten.clang"
  },
  "schemaVersion": "2.0.0",
  "updatedAt": "2018-05-13T15:17:34.529Z"
}